{
    "_format": "hh-sol-artifact-1",
    "contractName": "ServerNodes_Manager",
    "sourceName": "contracts/staking/ServerNodes_Manager.sol",
    "abi": [
        {
            "anonymous": false,
            "inputs": [
                {
                    "indexed": false,
                    "internalType": "address",
                    "name": "previousAdmin",
                    "type": "address"
                },
                {
                    "indexed": false,
                    "internalType": "address",
                    "name": "newAdmin",
                    "type": "address"
                }
            ],
            "name": "AdminChanged",
            "type": "event"
        },
        {
            "anonymous": false,
            "inputs": [
                {
                    "indexed": true,
                    "internalType": "address",
                    "name": "beacon",
                    "type": "address"
                }
            ],
            "name": "BeaconUpgraded",
            "type": "event"
        },
        {
            "anonymous": false,
            "inputs": [
                {
                    "indexed": false,
                    "internalType": "uint8",
                    "name": "version",
                    "type": "uint8"
                }
            ],
            "name": "Initialized",
            "type": "event"
        },
        {
            "anonymous": false,
            "inputs": [
                {
                    "indexed": false,
                    "internalType": "address",
                    "name": "account",
                    "type": "address"
                }
            ],
            "name": "Paused",
            "type": "event"
        },
        {
            "anonymous": false,
            "inputs": [
                {
                    "indexed": true,
                    "internalType": "address",
                    "name": "nodeAddress",
                    "type": "address"
                },
                {
                    "indexed": true,
                    "internalType": "address",
                    "name": "rewardAddress",
                    "type": "address"
                },
                {
                    "indexed": false,
                    "internalType": "uint256",
                    "name": "amountAmb",
                    "type": "uint256"
                },
                {
                    "indexed": false,
                    "internalType": "uint256",
                    "name": "amountBonds",
                    "type": "uint256"
                }
            ],
            "name": "Reward",
            "type": "event"
        },
        {
            "anonymous": false,
            "inputs": [
                {
                    "indexed": true,
                    "internalType": "bytes32",
                    "name": "role",
                    "type": "bytes32"
                },
                {
                    "indexed": true,
                    "internalType": "bytes32",
                    "name": "previousAdminRole",
                    "type": "bytes32"
                },
                {
                    "indexed": true,
                    "internalType": "bytes32",
                    "name": "newAdminRole",
                    "type": "bytes32"
                }
            ],
            "name": "RoleAdminChanged",
            "type": "event"
        },
        {
            "anonymous": false,
            "inputs": [
                {
                    "indexed": true,
                    "internalType": "bytes32",
                    "name": "role",
                    "type": "bytes32"
                },
                {
                    "indexed": true,
                    "internalType": "address",
                    "name": "account",
                    "type": "address"
                },
                {
                    "indexed": true,
                    "internalType": "address",
                    "name": "sender",
                    "type": "address"
                }
            ],
            "name": "RoleGranted",
            "type": "event"
        },
        {
            "anonymous": false,
            "inputs": [
                {
                    "indexed": true,
                    "internalType": "bytes32",
                    "name": "role",
                    "type": "bytes32"
                },
                {
                    "indexed": true,
                    "internalType": "address",
                    "name": "account",
                    "type": "address"
                },
                {
                    "indexed": true,
                    "internalType": "address",
                    "name": "sender",
                    "type": "address"
                }
            ],
            "name": "RoleRevoked",
            "type": "event"
        },
        {
            "anonymous": false,
            "inputs": [
                {
                    "indexed": true,
                    "internalType": "address",
                    "name": "nodeAddress",
                    "type": "address"
                },
                {
                    "indexed": true,
                    "internalType": "address",
                    "name": "nodeOwner",
                    "type": "address"
                },
                {
                    "indexed": false,
                    "internalType": "int256",
                    "name": "amount",
                    "type": "int256"
                }
            ],
            "name": "StakeChanged",
            "type": "event"
        },
        {
            "anonymous": false,
            "inputs": [
                {
                    "indexed": false,
                    "internalType": "address",
                    "name": "account",
                    "type": "address"
                }
            ],
            "name": "Unpaused",
            "type": "event"
        },
        {
            "anonymous": false,
            "inputs": [
                {
                    "indexed": true,
                    "internalType": "address",
                    "name": "implementation",
                    "type": "address"
                }
            ],
            "name": "Upgraded",
            "type": "event"
        },
        {
            "inputs": [],
            "name": "DEFAULT_ADMIN_ROLE",
            "outputs": [
                {
                    "internalType": "bytes32",
                    "name": "",
                    "type": "bytes32"
                }
            ],
            "stateMutability": "view",
            "type": "function"
        },
        {
            "inputs": [
                {
                    "internalType": "address",
                    "name": "nodeAddress",
                    "type": "address"
                }
            ],
            "name": "addStake",
            "outputs": [],
            "stateMutability": "payable",
            "type": "function"
        },
        {
            "inputs": [],
            "name": "airBond",
            "outputs": [
                {
                    "internalType": "address",
                    "name": "",
                    "type": "address"
                }
            ],
            "stateMutability": "view",
            "type": "function"
        },
        {
            "inputs": [
                {
                    "internalType": "uint256",
                    "name": "newMinStakeAmount",
                    "type": "uint256"
                }
            ],
            "name": "changeMinStakeAmount",
            "outputs": [],
            "stateMutability": "nonpayable",
            "type": "function"
        },
        {
            "inputs": [
                {
                    "internalType": "address",
                    "name": "nodeAddress",
                    "type": "address"
                },
                {
                    "internalType": "address",
                    "name": "newOwnerAddress",
                    "type": "address"
                }
            ],
            "name": "changeNodeOwner",
            "outputs": [],
            "stateMutability": "nonpayable",
            "type": "function"
        },
        {
            "inputs": [
                {
                    "internalType": "uint256",
                    "name": "newOnboardingDelay",
                    "type": "uint256"
                }
            ],
            "name": "changeOnboardingDelay",
            "outputs": [],
            "stateMutability": "nonpayable",
            "type": "function"
        },
        {
            "inputs": [
                {
                    "internalType": "uint256",
                    "name": "newUnstakeLockTime",
                    "type": "uint256"
                }
            ],
            "name": "changeUnstakeLockTime",
            "outputs": [],
            "stateMutability": "nonpayable",
            "type": "function"
        },
        {
            "inputs": [
                {
                    "internalType": "address",
                    "name": "nodeAddress",
                    "type": "address"
                }
            ],
            "name": "forceUnstake",
            "outputs": [],
            "stateMutability": "nonpayable",
            "type": "function"
        },
        {
            "inputs": [],
            "name": "getOnboardingWaitingList",
            "outputs": [
                {
                    "internalType": "address[]",
                    "name": "",
                    "type": "address[]"
                }
            ],
            "stateMutability": "view",
            "type": "function"
        },
        {
            "inputs": [
                {
                    "internalType": "bytes32",
                    "name": "role",
                    "type": "bytes32"
                }
            ],
            "name": "getRoleAdmin",
            "outputs": [
                {
                    "internalType": "bytes32",
                    "name": "",
                    "type": "bytes32"
                }
            ],
            "stateMutability": "view",
            "type": "function"
        },
        {
            "inputs": [],
            "name": "getStakesList",
            "outputs": [
                {
                    "internalType": "address[]",
                    "name": "",
                    "type": "address[]"
                }
            ],
            "stateMutability": "view",
            "type": "function"
        },
        {
            "inputs": [
                {
                    "internalType": "address",
                    "name": "ownerAddress",
                    "type": "address"
                }
            ],
            "name": "getUserStakesList",
            "outputs": [
                {
                    "internalType": "address[]",
                    "name": "result",
                    "type": "address[]"
                }
            ],
            "stateMutability": "view",
            "type": "function"
        },
        {
            "inputs": [
                {
                    "internalType": "bytes32",
                    "name": "role",
                    "type": "bytes32"
                },
                {
                    "internalType": "address",
                    "name": "account",
                    "type": "address"
                }
            ],
            "name": "grantRole",
            "outputs": [],
            "stateMutability": "nonpayable",
            "type": "function"
        },
        {
            "inputs": [
                {
                    "internalType": "bytes32",
                    "name": "role",
                    "type": "bytes32"
                },
                {
                    "internalType": "address",
                    "name": "account",
                    "type": "address"
                }
            ],
            "name": "hasRole",
            "outputs": [
                {
                    "internalType": "bool",
                    "name": "",
                    "type": "bool"
                }
            ],
            "stateMutability": "view",
            "type": "function"
        },
        {
            "inputs": [
                {
                    "internalType": "address[]",
                    "name": "addresses",
                    "type": "address[]"
                },
                {
                    "internalType": "uint256[]",
                    "name": "amounts",
                    "type": "uint256[]"
                },
                {
                    "internalType": "uint256[]",
                    "name": "timestamps",
                    "type": "uint256[]"
                }
            ],
            "name": "importOldStakes",
            "outputs": [],
            "stateMutability": "payable",
            "type": "function"
        },
        {
            "inputs": [
                {
                    "internalType": "contract IValidatorSet",
                    "name": "_validatorSet",
                    "type": "address"
                },
                {
                    "internalType": "contract LockKeeper",
                    "name": "_lockKeeper",
                    "type": "address"
                },
                {
                    "internalType": "contract RewardsBank",
                    "name": "_rewardsBank",
                    "type": "address"
                },
                {
                    "internalType": "address",
                    "name": "_airBond",
                    "type": "address"
                },
                {
                    "internalType": "contract Treasury",
                    "name": "_treasury",
                    "type": "address"
                },
                {
                    "internalType": "uint256",
                    "name": "_onboardingDelay",
                    "type": "uint256"
                },
                {
                    "internalType": "uint256",
                    "name": "_unstakeLockTime",
                    "type": "uint256"
                },
                {
                    "internalType": "uint256",
                    "name": "_minStakeAmount",
                    "type": "uint256"
                }
            ],
            "name": "initialize",
            "outputs": [],
            "stateMutability": "nonpayable",
            "type": "function"
        },
        {
            "inputs": [],
            "name": "lockKeeper",
            "outputs": [
                {
                    "internalType": "contract LockKeeper",
                    "name": "",
                    "type": "address"
                }
            ],
            "stateMutability": "view",
            "type": "function"
        },
        {
            "inputs": [
                {
                    "internalType": "address",
                    "name": "",
                    "type": "address"
                }
            ],
            "name": "lockedWithdraws",
            "outputs": [
                {
                    "internalType": "uint256",
                    "name": "",
                    "type": "uint256"
                }
            ],
            "stateMutability": "view",
            "type": "function"
        },
        {
            "inputs": [],
            "name": "minStakeAmount",
            "outputs": [
                {
                    "internalType": "uint256",
                    "name": "",
                    "type": "uint256"
                }
            ],
            "stateMutability": "view",
            "type": "function"
        },
        {
            "inputs": [
                {
                    "internalType": "address",
                    "name": "nodeAddress",
                    "type": "address"
                },
                {
                    "internalType": "address",
                    "name": "rewardAddress",
                    "type": "address"
                }
            ],
            "name": "newStake",
            "outputs": [],
            "stateMutability": "payable",
            "type": "function"
        },
        {
            "inputs": [],
            "name": "onBlock",
            "outputs": [],
            "stateMutability": "nonpayable",
            "type": "function"
        },
        {
            "inputs": [],
            "name": "onboardingDelay",
            "outputs": [
                {
                    "internalType": "uint256",
                    "name": "",
                    "type": "uint256"
                }
            ],
            "stateMutability": "view",
            "type": "function"
        },
        {
            "inputs": [],
            "name": "pause",
            "outputs": [],
            "stateMutability": "nonpayable",
            "type": "function"
        },
        {
            "inputs": [],
            "name": "paused",
            "outputs": [
                {
                    "internalType": "bool",
                    "name": "",
                    "type": "bool"
                }
            ],
            "stateMutability": "view",
            "type": "function"
        },
        {
            "inputs": [],
            "name": "proxiableUUID",
            "outputs": [
                {
                    "internalType": "bytes32",
                    "name": "",
                    "type": "bytes32"
                }
            ],
            "stateMutability": "view",
            "type": "function"
        },
        {
            "inputs": [
                {
                    "internalType": "bytes32",
                    "name": "role",
                    "type": "bytes32"
                },
                {
                    "internalType": "address",
                    "name": "account",
                    "type": "address"
                }
            ],
            "name": "renounceRole",
            "outputs": [],
            "stateMutability": "nonpayable",
            "type": "function"
        },
        {
            "inputs": [
                {
                    "internalType": "address",
                    "name": "nodeAddress",
                    "type": "address"
                }
            ],
            "name": "report",
            "outputs": [],
            "stateMutability": "nonpayable",
            "type": "function"
        },
        {
            "inputs": [
                {
                    "internalType": "address",
                    "name": "nodeAddress",
                    "type": "address"
                }
            ],
            "name": "restake",
            "outputs": [],
            "stateMutability": "nonpayable",
            "type": "function"
        },
        {
            "inputs": [
                {
                    "internalType": "bytes32",
                    "name": "role",
                    "type": "bytes32"
                },
                {
                    "internalType": "address",
                    "name": "account",
                    "type": "address"
                }
            ],
            "name": "revokeRole",
            "outputs": [],
            "stateMutability": "nonpayable",
            "type": "function"
        },
        {
            "inputs": [
                {
                    "internalType": "address",
                    "name": "nodeAddress",
                    "type": "address"
                },
                {
                    "internalType": "uint256",
                    "name": "amount",
                    "type": "uint256"
                }
            ],
            "name": "reward",
            "outputs": [],
            "stateMutability": "nonpayable",
            "type": "function"
        },
        {
            "inputs": [],
            "name": "rewardsBank",
            "outputs": [
                {
                    "internalType": "contract RewardsBank",
                    "name": "",
                    "type": "address"
                }
            ],
            "stateMutability": "view",
            "type": "function"
        },
        {
            "inputs": [
                {
                    "internalType": "address",
                    "name": "nodeAddress",
                    "type": "address"
                },
                {
                    "internalType": "address",
                    "name": "rewardsAddress",
                    "type": "address"
                }
            ],
            "name": "setRewardsAddress",
            "outputs": [],
            "stateMutability": "nonpayable",
            "type": "function"
        },
        {
            "inputs": [
                {
                    "internalType": "address",
                    "name": "",
                    "type": "address"
                }
            ],
            "name": "stakes",
            "outputs": [
                {
                    "internalType": "uint256",
                    "name": "stake",
                    "type": "uint256"
                },
                {
                    "internalType": "uint256",
                    "name": "timestampStake",
                    "type": "uint256"
                },
                {
                    "internalType": "address",
                    "name": "ownerAddress",
                    "type": "address"
                },
                {
                    "internalType": "address",
                    "name": "rewardsAddress",
                    "type": "address"
                }
            ],
            "stateMutability": "view",
            "type": "function"
        },
        {
            "inputs": [
                {
                    "internalType": "bytes4",
                    "name": "interfaceId",
                    "type": "bytes4"
                }
            ],
            "name": "supportsInterface",
            "outputs": [
                {
                    "internalType": "bool",
                    "name": "",
                    "type": "bool"
                }
            ],
            "stateMutability": "view",
            "type": "function"
        },
        {
            "inputs": [],
            "name": "treasury",
            "outputs": [
                {
                    "internalType": "contract Treasury",
                    "name": "",
                    "type": "address"
                }
            ],
            "stateMutability": "view",
            "type": "function"
        },
        {
            "inputs": [],
            "name": "unpause",
            "outputs": [],
            "stateMutability": "nonpayable",
            "type": "function"
        },
        {
            "inputs": [
                {
                    "internalType": "address",
                    "name": "nodeAddress",
                    "type": "address"
                },
                {
                    "internalType": "uint256",
                    "name": "amount",
                    "type": "uint256"
                }
            ],
            "name": "unstake",
            "outputs": [],
            "stateMutability": "nonpayable",
            "type": "function"
        },
        {
            "inputs": [],
            "name": "unstakeLockTime",
            "outputs": [
                {
                    "internalType": "uint256",
                    "name": "",
                    "type": "uint256"
                }
            ],
            "stateMutability": "view",
            "type": "function"
        },
        {
            "inputs": [
                {
                    "internalType": "address",
                    "name": "newImplementation",
                    "type": "address"
                }
            ],
            "name": "upgradeTo",
            "outputs": [],
            "stateMutability": "nonpayable",
            "type": "function"
        },
        {
            "inputs": [
                {
                    "internalType": "address",
                    "name": "newImplementation",
                    "type": "address"
                },
                {
                    "internalType": "bytes",
                    "name": "data",
                    "type": "bytes"
                }
            ],
            "name": "upgradeToAndCall",
            "outputs": [],
            "stateMutability": "payable",
            "type": "function"
        },
        {
            "inputs": [],
            "name": "validatorSet",
            "outputs": [
                {
                    "internalType": "contract IValidatorSet",
                    "name": "",
                    "type": "address"
                }
            ],
            "stateMutability": "view",
            "type": "function"
        },
        {
            "stateMutability": "payable",
            "type": "receive"
        }
    ],
    "bytecode": "0x60a06040523060805234801561001457600080fd5b506080516150fb61004c600039600081816115f1015281816116a101528181611dd201528181611e820152611fc701526150fb6000f3fe6080604052600436106102e6576000357c01000000000000000000000000000000000000000000000000000000009004806361d027b311610196578063a2a14817116100f3578063e053ea31116100a7578063f188768411610081578063f18876841461087d578063f18dbb3f14610893578063f3c94aa8146108a957600080fd5b8063e053ea3114610812578063e5d23a4b14610830578063e78977141461085d57600080fd5b8063d2dc652a116100d8578063d2dc652a146107bf578063d547741f146107d2578063dd924acd146107f257600080fd5b8063a2a148171461078a578063c2a672e01461079f57600080fd5b80638456cb591161014a57806391d148541161012f57806391d14854146106f55780639426e22614610748578063a217fddf1461077557600080fd5b80638456cb59146106cb5780638f1608d8146106e057600080fd5b80636f6d0b011161017b5780636f6d0b011461065e5780637403c6cd1461067e5780637517ce4b1461069e57600080fd5b806361d027b31461060f578063649a701b1461063c57600080fd5b806334e3149a116102445780634818a63c116101f857806352d1902d116101dd57806352d1902d146105c2578063566f83ca146105d75780635c975abb146105f757600080fd5b80634818a63c1461059c5780634f1ef286146105af57600080fd5b80633659cfe6116102295780633659cfe6146105475780633f4ba83a1461056757806344f26d891461057c57600080fd5b806334e3149a1461050757806336568abe1461052757600080fd5b80631d05e1fb1161029b578063248a9ca311610280578063248a9ca3146104935780632da23821146104d15780632f2ff15d146104e757600080fd5b80631d05e1fb1461045357806321670f221461047357600080fd5b80630c19ef45116102cc5780630c19ef451461037957806310767904146103a657806316934fc4146103bb57600080fd5b8062c77bfd146102f257806301ffc9a71461034957600080fd5b366102ed57005b600080fd5b3480156102fe57600080fd5b5060cb5461031f9073ffffffffffffffffffffffffffffffffffffffff1681565b60405173ffffffffffffffffffffffffffffffffffffffff90911681526020015b60405180910390f35b34801561035557600080fd5b506103696103643660046145f6565b6108c9565b6040519015158152602001610340565b34801561038557600080fd5b5060cc5461031f9073ffffffffffffffffffffffffffffffffffffffff1681565b6103b96103b436600461465a565b610962565b005b3480156103c757600080fd5b506104176103d636600461465a565b60d16020526000908152604090208054600182015460028301546003909301549192909173ffffffffffffffffffffffffffffffffffffffff918216911684565b60408051948552602085019390935273ffffffffffffffffffffffffffffffffffffffff91821692840192909252166060820152608001610340565b34801561045f57600080fd5b506103b961046e36600461465a565b610b66565b34801561047f57600080fd5b506103b961048e366004614677565b610dd7565b34801561049f57600080fd5b506104c36104ae3660046146a3565b60009081526065602052604090206001015490565b604051908152602001610340565b3480156104dd57600080fd5b506104c360cf5481565b3480156104f357600080fd5b506103b96105023660046146bc565b6114ec565b34801561051357600080fd5b506103b96105223660046146a3565b611516565b34801561053357600080fd5b506103b96105423660046146bc565b611527565b34801561055357600080fd5b506103b961056236600461465a565b6115da565b34801561057357600080fd5b506103b96117dc565b34801561058857600080fd5b506103b961059736600461465a565b6117ef565b6103b96105aa3660046146ec565b611a66565b6103b96105bd3660046147cc565b611dbb565b3480156105ce57600080fd5b506104c3611fad565b3480156105e357600080fd5b506103b96105f23660046146ec565b612099565b34801561060357600080fd5b5060975460ff16610369565b34801561061b57600080fd5b5060cd5461031f9073ffffffffffffffffffffffffffffffffffffffff1681565b34801561064857600080fd5b5061065161217a565b604051610340919061485f565b34801561066a57600080fd5b506103b96106793660046146a3565b6121e9565b34801561068a57600080fd5b506103b96106993660046148b9565b6121fa565b3480156106aa57600080fd5b506104c36106b936600461465a565b60d36020526000908152604090205481565b3480156106d757600080fd5b506103b96123f8565b3480156106ec57600080fd5b5061065161240b565b34801561070157600080fd5b506103696107103660046146bc565b600091825260656020908152604080842073ffffffffffffffffffffffffffffffffffffffff93909316845291905290205460ff1690565b34801561075457600080fd5b5060c95461031f9073ffffffffffffffffffffffffffffffffffffffff1681565b34801561078157600080fd5b506104c3600081565b34801561079657600080fd5b506103b9612478565b3480156107ab57600080fd5b506103b96107ba366004614677565b612482565b6103b96107cd3660046149ca565b612aca565b3480156107de57600080fd5b506103b96107ed3660046146bc565b612f44565b3480156107fe57600080fd5b506103b961080d3660046146a3565b612f69565b34801561081e57600080fd5b506103b961082d36600461465a565b50565b34801561083c57600080fd5b5060ca5461031f9073ffffffffffffffffffffffffffffffffffffffff1681565b34801561086957600080fd5b506103b96108783660046146ec565b612f7a565b34801561088957600080fd5b506104c360d05481565b34801561089f57600080fd5b506104c360ce5481565b3480156108b557600080fd5b506106516108c436600461465a565b61305b565b60007fffffffff0000000000000000000000000000000000000000000000000000000082167f7965db0b00000000000000000000000000000000000000000000000000000000148061095c57507f01ffc9a7000000000000000000000000000000000000000000000000000000007fffffffff000000000000000000000000000000000000000000000000000000008316145b92915050565b73ffffffffffffffffffffffffffffffffffffffff808216600090815260d1602052604090206002015482911633146109fc576040517f08c379a000000000000000000000000000000000000000000000000000000000815260206004820152601660248201527f4f6e6c79206f776e65722063616e20646f20746869730000000000000000000060448201526064015b60405180910390fd5b610a046131c8565b60003411610a6e576040517f08c379a000000000000000000000000000000000000000000000000000000000815260206004820152601560248201527f6d73672e76616c7565206d757374206265203e2030000000000000000000000060448201526064016109f3565b60d05473ffffffffffffffffffffffffffffffffffffffff8316600090815260d16020526040902054610aa2903490614adc565b1015610b0a576040517f08c379a000000000000000000000000000000000000000000000000000000000815260206004820181905260248201527f726573756c74696e67207374616b65203c206d696e5374616b65416d6f756e7460448201526064016109f3565b610b148234613235565b604051348152339073ffffffffffffffffffffffffffffffffffffffff8416907f18f12eacda24b1ab9f5b9516de560f1ab3ea27b70e44092ff1ab7bc58013b7e4906020015b60405180910390a35050565b73ffffffffffffffffffffffffffffffffffffffff808216600090815260d160205260409020600201548291163314610bfb576040517f08c379a000000000000000000000000000000000000000000000000000000000815260206004820152601660248201527f4f6e6c79206f776e65722063616e20646f20746869730000000000000000000060448201526064016109f3565b610c036131c8565b60ca5473ffffffffffffffffffffffffffffffffffffffff838116600090815260d360205260408082205490517ff3c73bd100000000000000000000000000000000000000000000000000000000815260048101919091529092919091169063f3c73bd1906024016020604051808303816000875af1158015610c8a573d6000803e3d6000fd5b505050506040513d601f19601f82011682018060405250810190610cae9190614aef565b73ffffffffffffffffffffffffffffffffffffffff8416600090815260d1602052604081205491925003610d7a5760d2805460018181019092557ff2192e1030363415d7b4fb0406540a0060e8e2fc8982f3f32289379e11fa654601805473ffffffffffffffffffffffffffffffffffffffff861673ffffffffffffffffffffffffffffffffffffffff19918216811790925560d4805493840181556000527f9780e26d96b1f2a9a18ef8fc72d589dbf03ef788137b64f43897e83a91e7feec90920180549092161790555b610d848382613235565b604051818152339073ffffffffffffffffffffffffffffffffffffffff8516907f18f12eacda24b1ab9f5b9516de560f1ab3ea27b70e44092ff1ab7bc58013b7e4906020015b60405180910390a3505050565b60c95473ffffffffffffffffffffffffffffffffffffffff163314610e7e576040517f08c379a000000000000000000000000000000000000000000000000000000000815260206004820152602360248201527f4f6e6c792076616c696461746f725365742063616e2063616c6c20726577617260448201527f642829000000000000000000000000000000000000000000000000000000000060648201526084016109f3565b73ffffffffffffffffffffffffffffffffffffffff808316600090815260d1602090815260409182902082516080810184528154808252600183015493820193909352600282015485169381019390935260030154909216606082015290610f42576040517f08c379a000000000000000000000000000000000000000000000000000000000815260206004820152601960248201527f6e6f646541646472657373206e6f7420696e207374616b65730000000000000060448201526064016109f3565b60cd546040517f75dc7d8c0000000000000000000000000000000000000000000000000000000081526004810184905260009173ffffffffffffffffffffffffffffffffffffffff16906375dc7d8c90602401602060405180830381865afa158015610fb2573d6000803e3d6000fd5b505050506040513d601f19601f82011682018060405250810190610fd69190614aef565b60cb5460cd546040517f02b5f88200000000000000000000000000000000000000000000000000000000815273ffffffffffffffffffffffffffffffffffffffff91821660048201526024810184905292935016906302b5f88290604401600060405180830381600087803b15801561104e57600080fd5b505af1158015611062573d6000803e3d6000fd5b5050505080836110729190614b08565b92506000606461108584602001516133d3565b61108f9086614b1b565b6110999190614b61565b905060006110a78286614b08565b606085015190915073ffffffffffffffffffffffffffffffffffffffff166112135760cb546040517f02b5f8820000000000000000000000000000000000000000000000000000000081523060048201526024810183905273ffffffffffffffffffffffffffffffffffffffff909116906302b5f88290604401600060405180830381600087803b15801561113b57600080fd5b505af115801561114f573d6000803e3d6000fd5b5050505061115d8682613235565b60c95460cb5460408681015190517f4dd5bc1900000000000000000000000000000000000000000000000000000000815273ffffffffffffffffffffffffffffffffffffffff928316600482015289831660248201529082166044820181905260648201526000608482015260a48101849052911690634dd5bc199060c401600060405180830381600087803b1580156111f657600080fd5b505af115801561120a573d6000803e3d6000fd5b5050505061135b565b60cb5460608501516040517f02b5f88200000000000000000000000000000000000000000000000000000000815273ffffffffffffffffffffffffffffffffffffffff9182166004820152602481018490529116906302b5f88290604401600060405180830381600087803b15801561128b57600080fd5b505af115801561129f573d6000803e3d6000fd5b505060c95460cb5460408881015160608a015191517f4dd5bc1900000000000000000000000000000000000000000000000000000000815273ffffffffffffffffffffffffffffffffffffffff93841660048201528c84166024820152908316604482015290821660648201526000608482015260a4810186905291169250634dd5bc19915060c401600060405180830381600087803b15801561134257600080fd5b505af1158015611356573d6000803e3d6000fd5b505050505b81156114e457606084015160009073ffffffffffffffffffffffffffffffffffffffff161561138e578460600151611394565b84604001515b60cb5460cc546040517f1593dee100000000000000000000000000000000000000000000000000000000815273ffffffffffffffffffffffffffffffffffffffff91821660048201528184166024820152604481018790529293501690631593dee190606401600060405180830381600087803b15801561141457600080fd5b505af1158015611428573d6000803e3d6000fd5b505060c95460cb5460408981015160cc5491517f4dd5bc1900000000000000000000000000000000000000000000000000000000815273ffffffffffffffffffffffffffffffffffffffff93841660048201528d8416602482015290831660448201528683166064820152908216608482015260a4810188905291169250634dd5bc19915060c401600060405180830381600087803b1580156114ca57600080fd5b505af11580156114de573d6000803e3d6000fd5b50505050505b505050505050565b6000828152606560205260409020600101546115078161342b565b6115118383613435565b505050565b60006115218161342b565b5060cf55565b73ffffffffffffffffffffffffffffffffffffffff811633146115cc576040517f08c379a000000000000000000000000000000000000000000000000000000000815260206004820152602f60248201527f416363657373436f6e74726f6c3a2063616e206f6e6c792072656e6f756e636560448201527f20726f6c657320666f722073656c66000000000000000000000000000000000060648201526084016109f3565b6115d6828261350b565b5050565b73ffffffffffffffffffffffffffffffffffffffff7f000000000000000000000000000000000000000000000000000000000000000016300361169f576040517f08c379a000000000000000000000000000000000000000000000000000000000815260206004820152602c60248201527f46756e6374696f6e206d7573742062652063616c6c6564207468726f7567682060448201527f64656c656761746563616c6c000000000000000000000000000000000000000060648201526084016109f3565b7f000000000000000000000000000000000000000000000000000000000000000073ffffffffffffffffffffffffffffffffffffffff166117147f360894a13ba1a3210667c828492db98dca3e2076cc3735a920a3ca505d382bbc5473ffffffffffffffffffffffffffffffffffffffff1690565b73ffffffffffffffffffffffffffffffffffffffff16146117b7576040517f08c379a000000000000000000000000000000000000000000000000000000000815260206004820152602c60248201527f46756e6374696f6e206d7573742062652063616c6c6564207468726f7567682060448201527f6163746976652070726f7879000000000000000000000000000000000000000060648201526084016109f3565b6117c0816135a8565b6040805160008082526020820190925261082d918391906135b3565b60006117e78161342b565b61082d6137b0565b60006117fa8161342b565b73ffffffffffffffffffffffffffffffffffffffff8216600090815260d1602052604090205480611887576040517f08c379a000000000000000000000000000000000000000000000000000000000815260206004820152601960248201527f6e6f646541646472657373206e6f7420696e207374616b65730000000000000060448201526064016109f3565b6118908361380f565b73ffffffffffffffffffffffffffffffffffffffff838116600081815260d1602052604080822082905560c95490517fcfbf92a900000000000000000000000000000000000000000000000000000000815260048101939093529092169063cfbf92a990602401602060405180830381865afa158015611914573d6000803e3d6000fd5b505050506040513d601f19601f820116820180604052508101906119389190614aef565b11156119cb5760c9546040517fc2a672e000000000000000000000000000000000000000000000000000000000815273ffffffffffffffffffffffffffffffffffffffff8581166004830152602482018490529091169063c2a672e090604401600060405180830381600087803b1580156119b257600080fd5b505af11580156119c6573d6000803e3d6000fd5b505050505b73ffffffffffffffffffffffffffffffffffffffff808416600090815260d16020526040902060020154611a00911682613964565b73ffffffffffffffffffffffffffffffffffffffff808416600081815260d16020526040902060020154909116907f18f12eacda24b1ab9f5b9516de560f1ab3ea27b70e44092ff1ab7bc58013b7e4611a5884614b75565b604051908152602001610dca565b611a6e6131c8565b60d054341015611b00576040517f08c379a000000000000000000000000000000000000000000000000000000000815260206004820152602360248201527f6d73672e76616c7565206d757374206265203e3d206d696e5374616b65416d6f60448201527f756e74000000000000000000000000000000000000000000000000000000000060648201526084016109f3565b73ffffffffffffffffffffffffffffffffffffffff8216600090815260d1602052604090205415611b8d576040517f08c379a000000000000000000000000000000000000000000000000000000000815260206004820152601760248201527f6e6f646520616c7265616479207265676973746572656400000000000000000060448201526064016109f3565b60c9546040517fcfbf92a900000000000000000000000000000000000000000000000000000000815273ffffffffffffffffffffffffffffffffffffffff84811660048301529091169063cfbf92a990602401602060405180830381865afa158015611bfd573d6000803e3d6000fd5b505050506040513d601f19601f82011682018060405250810190611c219190614aef565b15611c88576040517f08c379a000000000000000000000000000000000000000000000000000000000815260206004820152601760248201527f6e6f646520616c7265616479207265676973746572656400000000000000000060448201526064016109f3565b60408051608081018252348082524260208084019182523384860181815273ffffffffffffffffffffffffffffffffffffffff888116606088019081528a8216600081815260d187528a812099518a5596516001808b0191909155935160028a01805491851673ffffffffffffffffffffffffffffffffffffffff19928316179055915160039099018054999093169882169890981790915560d280548084019091557ff2192e1030363415d7b4fb0406540a0060e8e2fc8982f3f32289379e11fa654601805482168817905560d4805492830181559094527f9780e26d96b1f2a9a18ef8fc72d589dbf03ef788137b64f43897e83a91e7feec01805490931685179092559351918252927f18f12eacda24b1ab9f5b9516de560f1ab3ea27b70e44092ff1ab7bc58013b7e49101610b5a565b73ffffffffffffffffffffffffffffffffffffffff7f0000000000000000000000000000000000000000000000000000000000000000163003611e80576040517f08c379a000000000000000000000000000000000000000000000000000000000815260206004820152602c60248201527f46756e6374696f6e206d7573742062652063616c6c6564207468726f7567682060448201527f64656c656761746563616c6c000000000000000000000000000000000000000060648201526084016109f3565b7f000000000000000000000000000000000000000000000000000000000000000073ffffffffffffffffffffffffffffffffffffffff16611ef57f360894a13ba1a3210667c828492db98dca3e2076cc3735a920a3ca505d382bbc5473ffffffffffffffffffffffffffffffffffffffff1690565b73ffffffffffffffffffffffffffffffffffffffff1614611f98576040517f08c379a000000000000000000000000000000000000000000000000000000000815260206004820152602c60248201527f46756e6374696f6e206d7573742062652063616c6c6564207468726f7567682060448201527f6163746976652070726f7879000000000000000000000000000000000000000060648201526084016109f3565b611fa1826135a8565b6115d6828260016135b3565b60003073ffffffffffffffffffffffffffffffffffffffff7f00000000000000000000000000000000000000000000000000000000000000001614612074576040517f08c379a000000000000000000000000000000000000000000000000000000000815260206004820152603860248201527f555550535570677261646561626c653a206d757374206e6f742062652063616c60448201527f6c6564207468726f7567682064656c656761746563616c6c000000000000000060648201526084016109f3565b507f360894a13ba1a3210667c828492db98dca3e2076cc3735a920a3ca505d382bbc90565b73ffffffffffffffffffffffffffffffffffffffff808316600090815260d16020526040902060020154839116331461212e576040517f08c379a000000000000000000000000000000000000000000000000000000000815260206004820152601660248201527f4f6e6c79206f776e65722063616e20646f20746869730000000000000000000060448201526064016109f3565b5073ffffffffffffffffffffffffffffffffffffffff918216600090815260d160205260409020600301805473ffffffffffffffffffffffffffffffffffffffff191691909216179055565b606060d28054806020026020016040519081016040528092919081815260200182805480156121df57602002820191906000526020600020905b815473ffffffffffffffffffffffffffffffffffffffff1681526001909101906020018083116121b4575b5050505050905090565b60006121f48161342b565b5060ce55565b600054610100900460ff161580801561221a5750600054600160ff909116105b806122345750303b158015612234575060005460ff166001145b6122c0576040517f08c379a000000000000000000000000000000000000000000000000000000000815260206004820152602e60248201527f496e697469616c697a61626c653a20636f6e747261637420697320616c72656160448201527f647920696e697469616c697a656400000000000000000000000000000000000060648201526084016109f3565b6000805460ff19166001179055801561230057600080547fffffffffffffffffffffffffffffffffffffffffffffffffffffffffffff00ff166101001790555b60c9805473ffffffffffffffffffffffffffffffffffffffff1990811673ffffffffffffffffffffffffffffffffffffffff8c81169190911790925560ca805482168b841617905560cb805482168a841617905560cc8054821689841617905560cd805490911691871691909117905560ce84905560cf83905560d082905561238a600033613a2e565b80156123ed57600080547fffffffffffffffffffffffffffffffffffffffffffffffffffffffffffff00ff169055604051600181527f7f26b83ff96e1f2b6a682f133852f6798a09c465da95921460cefb38474024989060200160405180910390a15b505050505050505050565b60006124038161342b565b61082d613a38565b606060d48054806020026020016040519081016040528092919081815260200182805480156121df5760200282019190600052602060002090815473ffffffffffffffffffffffffffffffffffffffff1681526001909101906020018083116121b4575050505050905090565b612480613a75565b565b73ffffffffffffffffffffffffffffffffffffffff808316600090815260d160205260409020600201548391163314612517576040517f08c379a000000000000000000000000000000000000000000000000000000000815260206004820152601660248201527f4f6e6c79206f776e65722063616e20646f20746869730000000000000000000060448201526064016109f3565b61251f6131c8565b60008211612589576040517f08c379a000000000000000000000000000000000000000000000000000000000815260206004820152601260248201527f616d6f756e74206d757374206265203e2030000000000000000000000000000060448201526064016109f3565b73ffffffffffffffffffffffffffffffffffffffff8316600090815260d1602052604090205482811015612619576040517f08c379a000000000000000000000000000000000000000000000000000000000815260206004820152600e60248201527f7374616b65203c20616d6f756e7400000000000000000000000000000000000060448201526064016109f3565b82810361262e576126298461380f565b6126a3565b60d05461263b8483614b08565b10156126a3576040517f08c379a000000000000000000000000000000000000000000000000000000000815260206004820181905260248201527f726573756c74696e67207374616b65203c206d696e5374616b65416d6f756e7460448201526064016109f3565b73ffffffffffffffffffffffffffffffffffffffff8416600090815260d16020526040812080548592906126d8908490614b08565b909155505060c9546040517fcfbf92a900000000000000000000000000000000000000000000000000000000815273ffffffffffffffffffffffffffffffffffffffff8681166004830152600092169063cfbf92a990602401602060405180830381865afa15801561274e573d6000803e3d6000fd5b505050506040513d601f19601f820116820180604052508101906127729190614aef565b11156128055760c9546040517fc2a672e000000000000000000000000000000000000000000000000000000000815273ffffffffffffffffffffffffffffffffffffffff8681166004830152602482018690529091169063c2a672e090604401600060405180830381600087803b1580156127ec57600080fd5b505af1158015612800573d6000803e3d6000fd5b505050505b60ca5473ffffffffffffffffffffffffffffffffffffffff858116600090815260d360205260408082205490517fd68f4dd100000000000000000000000000000000000000000000000000000000815291938493169163d68f4dd1916128719160040190815260200190565b600060405180830381865afa15801561288e573d6000803e3d6000fd5b505050506040513d6000823e601f3d908101601f191682016040526128b69190810190614c3e565b60a0015167ffffffffffffffff1611156129755760ca5473ffffffffffffffffffffffffffffffffffffffff868116600090815260d36020526040908190205490517ff3c73bd1000000000000000000000000000000000000000000000000000000008152600481019190915291169063f3c73bd1906024016020604051808303816000875af115801561294e573d6000803e3d6000fd5b505050506040513d601f19601f820116820180604052508101906129729190614aef565b90505b60ca5473ffffffffffffffffffffffffffffffffffffffff166390a8fe0461299d8387614adc565b33600060cf54426129ae9190614adc565b6129b8878b614adc565b6129c18c613db6565b6040516020016129d19190614d31565b60408051601f19818403018152908290527c010000000000000000000000000000000000000000000000000000000063ffffffff8916028252612a1a9594939291600401614da2565b60206040518083038185885af1158015612a38573d6000803e3d6000fd5b50505050506040513d601f19601f82011682018060405250810190612a5d9190614aef565b73ffffffffffffffffffffffffffffffffffffffff8616600081815260d3602052604090209190915533907f18f12eacda24b1ab9f5b9516de560f1ab3ea27b70e44092ff1ab7bc58013b7e4612ab287614b75565b60405190815260200160405180910390a35050505050565b6000612ad58161342b565b82518451148015612ae7575081518451145b612b4d576040517f08c379a000000000000000000000000000000000000000000000000000000000815260206004820152600d60248201527f496e76616c696420696e7075740000000000000000000000000000000000000060448201526064016109f3565b6000805b8551811015612ead576000868281518110612b6e57612b6e614dfc565b6020026020010151905060d054868381518110612b8d57612b8d614dfc565b602002602001015111612c22576040517f08c379a000000000000000000000000000000000000000000000000000000000815260206004820152602260248201527f6d73672e76616c7565206d757374206265203e206d696e5374616b65416d6f7560448201527f6e7400000000000000000000000000000000000000000000000000000000000060648201526084016109f3565b73ffffffffffffffffffffffffffffffffffffffff8116600090815260d1602052604090205415612caf576040517f08c379a000000000000000000000000000000000000000000000000000000000815260206004820152601760248201527f6e6f646520616c7265616479207265676973746572656400000000000000000060448201526064016109f3565b6040518060800160405280878481518110612ccc57612ccc614dfc565b60200260200101518152602001868481518110612ceb57612ceb614dfc565b602090810291909101810151825273ffffffffffffffffffffffffffffffffffffffff8481168383018190526000604094850181905290815260d18352839020845181559184015160018301559183015160028201805473ffffffffffffffffffffffffffffffffffffffff199081169285169290921790556060909301516003909101805490931691161790558551869083908110612d8d57612d8d614dfc565b602002602001015183612da09190614adc565b60d2805460018181019092557ff2192e1030363415d7b4fb0406540a0060e8e2fc8982f3f32289379e11fa654601805473ffffffffffffffffffffffffffffffffffffffff851673ffffffffffffffffffffffffffffffffffffffff19918216811790925560d4805493840181556000527f9780e26d96b1f2a9a18ef8fc72d589dbf03ef788137b64f43897e83a91e7feec9092018054909216811790915587519194509081907f18f12eacda24b1ab9f5b9516de560f1ab3ea27b70e44092ff1ab7bc58013b7e490899086908110612e7b57612e7b614dfc565b6020026020010151604051612e9291815260200190565b60405180910390a35080612ea581614e2b565b915050612b51565b50348114612f3d576040517f08c379a000000000000000000000000000000000000000000000000000000000815260206004820152602660248201527f6d73672e76616c7565206d75737420626520657175616c20746f20616d6f756e60448201527f74732073756d000000000000000000000000000000000000000000000000000060648201526084016109f3565b5050505050565b600082815260656020526040902060010154612f5f8161342b565b611511838361350b565b6000612f748161342b565b5060d055565b73ffffffffffffffffffffffffffffffffffffffff808316600090815260d16020526040902060020154839116331461300f576040517f08c379a000000000000000000000000000000000000000000000000000000000815260206004820152601660248201527f4f6e6c79206f776e65722063616e20646f20746869730000000000000000000060448201526064016109f3565b5073ffffffffffffffffffffffffffffffffffffffff918216600090815260d160205260409020600201805473ffffffffffffffffffffffffffffffffffffffff191691909216179055565b60d25460609067ffffffffffffffff8111156130795761307961471a565b6040519080825280602002602001820160405280156130a2578160200160208202803683370190505b5090506000805b60d2548110156131c0578373ffffffffffffffffffffffffffffffffffffffff1660d1600060d284815481106130e1576130e1614dfc565b600091825260208083209091015473ffffffffffffffffffffffffffffffffffffffff908116845290830193909352604090910190206002015416036131ae5760d2818154811061313457613134614dfc565b60009182526020909120015473ffffffffffffffffffffffffffffffffffffffff16838361316181614e2b565b94508151811061317357613173614dfc565b602002602001019073ffffffffffffffffffffffffffffffffffffffff16908173ffffffffffffffffffffffffffffffffffffffff16815250505b806131b881614e2b565b9150506130a9565b508152919050565b60975460ff1615612480576040517f08c379a000000000000000000000000000000000000000000000000000000000815260206004820152601060248201527f5061757361626c653a207061757365640000000000000000000000000000000060448201526064016109f3565b73ffffffffffffffffffffffffffffffffffffffff8216600090815260d160205260408120805483929061326a908490614adc565b909155505060c9546040517fcfbf92a900000000000000000000000000000000000000000000000000000000815273ffffffffffffffffffffffffffffffffffffffff8481166004830152600092169063cfbf92a990602401602060405180830381865afa1580156132e0573d6000803e3d6000fd5b505050506040513d601f19601f820116820180604052508101906133049190614aef565b905080156115115760c95473ffffffffffffffffffffffffffffffffffffffff848116600090815260d1602052604090205491169063adc9772e90859061334c908590614b08565b6040517c010000000000000000000000000000000000000000000000000000000063ffffffff851602815273ffffffffffffffffffffffffffffffffffffffff90921660048301526024820152604401600060405180830381600087803b1580156133b657600080fd5b505af11580156133ca573d6000803e3d6000fd5b50505050505050565b6000806133e08342614b08565b905060006305a39a806133f483604b614b1b565b6133fe9190614b61565b613409906019614adc565b90506064811115613418575060645b613423816064614b08565b949350505050565b61082d8133613f23565b600082815260656020908152604080832073ffffffffffffffffffffffffffffffffffffffff8516845290915290205460ff166115d657600082815260656020908152604080832073ffffffffffffffffffffffffffffffffffffffff851684529091529020805460ff191660011790556134ad3390565b73ffffffffffffffffffffffffffffffffffffffff168173ffffffffffffffffffffffffffffffffffffffff16837f2f8788117e7eff1d82e926ec794901d17c78024a50270940304540a733656f0d60405160405180910390a45050565b600082815260656020908152604080832073ffffffffffffffffffffffffffffffffffffffff8516845290915290205460ff16156115d657600082815260656020908152604080832073ffffffffffffffffffffffffffffffffffffffff85168085529252808320805460ff1916905551339285917ff6391f5c32d9c69d2a47ea670b442974b53935d1edc7fd64eb21e047a839171b9190a45050565b60006115d68161342b565b7f4910fdfa16fed3260ed0e7147f7cc6da11a60208b5b9406d12a635614ffd91435460ff16156135e65761151183613fbf565b8273ffffffffffffffffffffffffffffffffffffffff166352d1902d6040518163ffffffff167c0100000000000000000000000000000000000000000000000000000000028152600401602060405180830381865afa925050508015613669575060408051601f3d908101601f1916820190925261366691810190614aef565b60015b6136f5576040517f08c379a000000000000000000000000000000000000000000000000000000000815260206004820152602e60248201527f45524331393637557067726164653a206e657720696d706c656d656e7461746960448201527f6f6e206973206e6f74205555505300000000000000000000000000000000000060648201526084016109f3565b7f360894a13ba1a3210667c828492db98dca3e2076cc3735a920a3ca505d382bbc81146137a4576040517f08c379a000000000000000000000000000000000000000000000000000000000815260206004820152602960248201527f45524331393637557067726164653a20756e737570706f727465642070726f7860448201527f6961626c6555554944000000000000000000000000000000000000000000000060648201526084016109f3565b506115118383836140be565b6137b86140e9565b6097805460ff191690557f5db9ee0a495bf2e6ff9c91a7834c1ba4fdd244a5e8aa4e537bd38aeae4b073aa335b60405173ffffffffffffffffffffffffffffffffffffffff909116815260200160405180910390a1565b60005b60d2548110156115d6578173ffffffffffffffffffffffffffffffffffffffff1660d2828154811061384657613846614dfc565b60009182526020909120015473ffffffffffffffffffffffffffffffffffffffff16036139525760d2805461387d90600190614b08565b8154811061388d5761388d614dfc565b60009182526020909120015460d2805473ffffffffffffffffffffffffffffffffffffffff90921691839081106138c6576138c6614dfc565b9060005260206000200160006101000a81548173ffffffffffffffffffffffffffffffffffffffff021916908373ffffffffffffffffffffffffffffffffffffffff16021790555060d280548061391f5761391f614e45565b6000828152602090208101600019908101805473ffffffffffffffffffffffffffffffffffffffff191690550190555050565b8061395c81614e2b565b915050613812565b60008273ffffffffffffffffffffffffffffffffffffffff168260405160006040518083038185875af1925050503d80600081146139be576040519150601f19603f3d011682016040523d82523d6000602084013e6139c3565b606091505b5050905080611511576040517f08c379a000000000000000000000000000000000000000000000000000000000815260206004820152600f60248201527f5472616e73666572206661696c6564000000000000000000000000000000000060448201526064016109f3565b6115d68282613435565b613a406131c8565b6097805460ff191660011790557f62e78cea01bee320cd4e420270b5ea74000d11b0c9f74754ebdbfc544b05a2586137e53390565b600060ce5442613a859190614b08565b905060005b60d4548110156115d657600060d48281548110613aa957613aa9614dfc565b600091825260208083209091015473ffffffffffffffffffffffffffffffffffffffff1680835260d190915260408220549092509003613bdd5760d48054613af390600190614b08565b81548110613b0357613b03614dfc565b60009182526020909120015460d4805473ffffffffffffffffffffffffffffffffffffffff9092169184908110613b3c57613b3c614dfc565b9060005260206000200160006101000a81548173ffffffffffffffffffffffffffffffffffffffff021916908373ffffffffffffffffffffffffffffffffffffffff16021790555060d4805480613b9557613b95614e45565b6000828152602090208101600019908101805473ffffffffffffffffffffffffffffffffffffffff191690550190558115613bd85781613bd481614e74565b9250505b613da3565b73ffffffffffffffffffffffffffffffffffffffff8116600090815260d160205260409020600101548310613da35760c95473ffffffffffffffffffffffffffffffffffffffff828116600081815260d160205260408082205490517f429b4b8300000000000000000000000000000000000000000000000000000000815260048101939093526024830152604482015291169063429b4b8390606401600060405180830381600087803b158015613c9457600080fd5b505af1158015613ca8573d6000803e3d6000fd5b505060d48054909250613cbe9150600190614b08565b81548110613cce57613cce614dfc565b60009182526020909120015460d4805473ffffffffffffffffffffffffffffffffffffffff9092169184908110613d0757613d07614dfc565b9060005260206000200160006101000a81548173ffffffffffffffffffffffffffffffffffffffff021916908373ffffffffffffffffffffffffffffffffffffffff16021790555060d4805480613d6057613d60614e45565b6000828152602090208101600019908101805473ffffffffffffffffffffffffffffffffffffffff191690550190558115613da35781613d9f81614e74565b9250505b5080613dae81614e2b565b915050613a8a565b60408051602880825260608281019093526000919060208201818036833701905050905060005b6014811015613f1c576000613df3826013614b08565b613dfe906008614b1b565b613e09906002614f72565b613e299073ffffffffffffffffffffffffffffffffffffffff8716614b61565b90506000613e38601083614f7e565b90506000613e47826010614fa0565b613e519084614fbc565b9050613e5c82614155565b85613e68866002614b1b565b81518110613e7857613e78614dfc565b60200101907effffffffffffffffffffffffffffffffffffffffffffffffffffffffffffff1916908160001a905350613eb081614155565b85613ebc866002614b1b565b613ec7906001614adc565b81518110613ed757613ed7614dfc565b60200101907effffffffffffffffffffffffffffffffffffffffffffffffffffffffffffff1916908160001a9053505050508080613f1490614e2b565b915050613ddd565b5092915050565b600082815260656020908152604080832073ffffffffffffffffffffffffffffffffffffffff8516845290915290205460ff166115d657613f638161419e565b613f6e8360206141bd565b604051602001613f7f929190614fd5565b60408051601f19818403018152908290527f08c379a00000000000000000000000000000000000000000000000000000000082526109f391600401615056565b73ffffffffffffffffffffffffffffffffffffffff81163b614063576040517f08c379a000000000000000000000000000000000000000000000000000000000815260206004820152602d60248201527f455243313936373a206e657720696d706c656d656e746174696f6e206973206e60448201527f6f74206120636f6e74726163740000000000000000000000000000000000000060648201526084016109f3565b7f360894a13ba1a3210667c828492db98dca3e2076cc3735a920a3ca505d382bbc805473ffffffffffffffffffffffffffffffffffffffff191673ffffffffffffffffffffffffffffffffffffffff92909216919091179055565b6140c783614425565b6000825111806140d45750805b15611511576140e38383614472565b50505050565b60975460ff16612480576040517f08c379a000000000000000000000000000000000000000000000000000000000815260206004820152601460248201527f5061757361626c653a206e6f742070617573656400000000000000000000000060448201526064016109f3565b6000600a8260ff161061416957605761416c565b60305b6141769083615069565b7f01000000000000000000000000000000000000000000000000000000000000000292915050565b606061095c73ffffffffffffffffffffffffffffffffffffffff831660145b606060006141cc836002614b1b565b6141d7906002614adc565b67ffffffffffffffff8111156141ef576141ef61471a565b6040519080825280601f01601f191660200182016040528015614219576020820181803683370190505b5090507f30000000000000000000000000000000000000000000000000000000000000008160008151811061425057614250614dfc565b60200101907effffffffffffffffffffffffffffffffffffffffffffffffffffffffffffff1916908160001a9053507f7800000000000000000000000000000000000000000000000000000000000000816001815181106142b3576142b3614dfc565b60200101907effffffffffffffffffffffffffffffffffffffffffffffffffffffffffffff1916908160001a90535060006142ef846002614b1b565b6142fa906001614adc565b90505b60018111156143b5577f303132333435363738396162636465660000000000000000000000000000000085600f166010811061433b5761433b614dfc565b1a7f01000000000000000000000000000000000000000000000000000000000000000282828151811061437057614370614dfc565b60200101907effffffffffffffffffffffffffffffffffffffffffffffffffffffffffffff1916908160001a9053506010909404936143ae81614e74565b90506142fd565b50831561441e576040517f08c379a000000000000000000000000000000000000000000000000000000000815260206004820181905260248201527f537472696e67733a20686578206c656e67746820696e73756666696369656e7460448201526064016109f3565b9392505050565b61442e81613fbf565b60405173ffffffffffffffffffffffffffffffffffffffff8216907fbc7cd75a20ee27fd9adebab32041f755214dbc6bffa90cc0225b39da2e5c2d3b90600090a250565b606061441e838360405180606001604052806027815260200161509f6027913960606000808573ffffffffffffffffffffffffffffffffffffffff16856040516144bc9190615082565b600060405180830381855af49150503d80600081146144f7576040519150601f19603f3d011682016040523d82523d6000602084013e6144fc565b606091505b509150915061450d86838387614517565b9695505050505050565b606083156145ad5782516000036145a65773ffffffffffffffffffffffffffffffffffffffff85163b6145a6576040517f08c379a000000000000000000000000000000000000000000000000000000000815260206004820152601d60248201527f416464726573733a2063616c6c20746f206e6f6e2d636f6e747261637400000060448201526064016109f3565b5081613423565b61342383838151156145c25781518083602001fd5b806040517f08c379a00000000000000000000000000000000000000000000000000000000081526004016109f39190615056565b60006020828403121561460857600080fd5b81357fffffffff000000000000000000000000000000000000000000000000000000008116811461441e57600080fd5b73ffffffffffffffffffffffffffffffffffffffff8116811461082d57600080fd5b60006020828403121561466c57600080fd5b813561441e81614638565b6000806040838503121561468a57600080fd5b823561469581614638565b946020939093013593505050565b6000602082840312156146b557600080fd5b5035919050565b600080604083850312156146cf57600080fd5b8235915060208301356146e181614638565b809150509250929050565b600080604083850312156146ff57600080fd5b823561470a81614638565b915060208301356146e181614638565b7f4e487b7100000000000000000000000000000000000000000000000000000000600052604160045260246000fd5b604051610120810167ffffffffffffffff8111828210171561476d5761476d61471a565b60405290565b604051601f8201601f1916810167ffffffffffffffff8111828210171561479c5761479c61471a565b604052919050565b600067ffffffffffffffff8211156147be576147be61471a565b50601f01601f191660200190565b600080604083850312156147df57600080fd5b82356147ea81614638565b9150602083013567ffffffffffffffff81111561480657600080fd5b8301601f8101851361481757600080fd5b803561482a614825826147a4565b614773565b81815286602083850101111561483f57600080fd5b816020840160208301376000602083830101528093505050509250929050565b6020808252825182820181905260009190848201906040850190845b818110156148ad57835173ffffffffffffffffffffffffffffffffffffffff168352928401929184019160010161487b565b50909695505050505050565b600080600080600080600080610100898b0312156148d657600080fd5b88356148e181614638565b975060208901356148f181614638565b9650604089013561490181614638565b9550606089013561491181614638565b9450608089013561492181614638565b979a969950949793969560a0850135955060c08501359460e001359350915050565b600067ffffffffffffffff82111561495d5761495d61471a565b5060209081020190565b600082601f83011261497857600080fd5b8135602061498861482583614943565b828152918102840181019181810190868411156149a457600080fd5b8286015b848110156149bf57803583529183019183016149a8565b509695505050505050565b6000806000606084860312156149df57600080fd5b833567ffffffffffffffff808211156149f757600080fd5b818601915086601f830112614a0b57600080fd5b81356020614a1b61482583614943565b8281529181028401810191818101908a841115614a3757600080fd5b948201945b83861015614a5e578535614a4f81614638565b82529482019490820190614a3c565b97505087013592505080821115614a7457600080fd5b614a8087838801614967565b93506040860135915080821115614a9657600080fd5b50614aa386828701614967565b9150509250925092565b7f4e487b7100000000000000000000000000000000000000000000000000000000600052601160045260246000fd5b8082018082111561095c5761095c614aad565b600060208284031215614b0157600080fd5b5051919050565b8181038181111561095c5761095c614aad565b808202811582820484141761095c5761095c614aad565b7f4e487b7100000000000000000000000000000000000000000000000000000000600052601260045260246000fd5b600082614b7057614b70614b32565b500490565b60007f80000000000000000000000000000000000000000000000000000000000000008203614ba657614ba6614aad565b5060000390565b8051614bb881614638565b919050565b805167ffffffffffffffff81168114614bb857600080fd5b60005b83811015614bf0578181015183820152602001614bd8565b50506000910152565b600082601f830112614c0a57600080fd5b8151614c18614825826147a4565b818152846020838601011115614c2d57600080fd5b613423826020830160208701614bd5565b600060208284031215614c5057600080fd5b815167ffffffffffffffff80821115614c6857600080fd5b908301906101208286031215614c7d57600080fd5b614c85614749565b614c8e83614bad565b8152614c9c60208401614bad565b6020820152614cad60408401614bad565b6040820152614cbe60608401614bbd565b6060820152614ccf60808401614bbd565b6080820152614ce060a08401614bbd565b60a0820152614cf160c08401614bbd565b60c082015260e083015160e08201526101008084015183811115614d1457600080fd5b614d2088828701614bf9565b918301919091525095945050505050565b7f5365727665724e6f64657320756e7374616b653a200000000000000000000000815260008251614d69816015850160208701614bd5565b9190910160150192915050565b60008151808452614d8e816020860160208601614bd5565b601f01601f19169290920160200192915050565b600073ffffffffffffffffffffffffffffffffffffffff808816835280871660208401525067ffffffffffffffff8516604083015283606083015260a06080830152614df160a0830184614d76565b979650505050505050565b7f4e487b7100000000000000000000000000000000000000000000000000000000600052603260045260246000fd5b60006000198203614e3e57614e3e614aad565b5060010190565b7f4e487b7100000000000000000000000000000000000000000000000000000000600052603160045260246000fd5b600081614e8357614e83614aad565b506000190190565b600181815b80851115614ec8578160001904821115614eac57614eac614aad565b80851615614eb957918102915b60029094049390800290614e90565b509250929050565b600082614edf5750600161095c565b81614eec5750600061095c565b8160018114614f025760028114614f0c57614f29565b600191505061095c565b60ff841115614f1d57614f1d614aad565b8360020a91505061095c565b5060208310610133831016604e8410600b8410161715614f4c575081810a61095c565b614f568383614e8b565b8060001904821115614f6a57614f6a614aad565b029392505050565b600061441e8383614ed0565b600060ff831680614f9157614f91614b32565b8060ff84160491505092915050565b60ff8181168382160290811690818114613f1c57613f1c614aad565b60ff828116828216039081111561095c5761095c614aad565b7f416363657373436f6e74726f6c3a206163636f756e742000000000000000000081526000835161500d816017850160208801614bd5565b7f206973206d697373696e6720726f6c6520000000000000000000000000000000601791840191820152835161504a816028840160208801614bd5565b01602801949350505050565b60208152600061441e6020830184614d76565b60ff818116838216019081111561095c5761095c614aad565b60008251615094818460208701614bd5565b919091019291505056fe416464726573733a206c6f772d6c6576656c2064656c65676174652063616c6c206661696c6564a26469706673582212204596cf78d0afffd9a4af3fa416fe7208ae5ec173ac04d03398ee01284170cb1a64736f6c63430008110033",
    "linkReferences": {},
    "deployedLinkReferences": {}
}