{
  "_format": "hh-sol-artifact-1",
  "contractName": "ValidatorSet",
  "sourceName": "contracts/consensus/ValidatorSet.sol",
  "abi": [
    {
      "anonymous": false,
      "inputs": [
        {
          "indexed": false,
          "internalType": "address",
          "name": "previousAdmin",
          "type": "address"
        },
        {
          "indexed": false,
          "internalType": "address",
          "name": "newAdmin",
          "type": "address"
        }
      ],
      "name": "AdminChanged",
      "type": "event"
    },
    {
      "anonymous": false,
      "inputs": [
        {
          "indexed": true,
          "internalType": "address",
          "name": "beacon",
          "type": "address"
        }
      ],
      "name": "BeaconUpgraded",
      "type": "event"
    },
    {
      "anonymous": false,
      "inputs": [
        {
          "indexed": false,
          "internalType": "uint8",
          "name": "version",
          "type": "uint8"
        }
      ],
      "name": "Initialized",
      "type": "event"
    },
    {
      "anonymous": false,
      "inputs": [
        {
          "indexed": true,
          "internalType": "bytes32",
          "name": "parentHash",
          "type": "bytes32"
        },
        {
          "indexed": false,
          "internalType": "address[]",
          "name": "newSet",
          "type": "address[]"
        }
      ],
      "name": "InitiateChange",
      "type": "event"
    },
    {
      "anonymous": false,
      "inputs": [
        {
          "indexed": true,
          "internalType": "address",
          "name": "nodeAddress",
          "type": "address"
        }
      ],
      "name": "QueueListNodeAdded",
      "type": "event"
    },
    {
      "anonymous": false,
      "inputs": [
        {
          "indexed": true,
          "internalType": "address",
          "name": "nodeAddress",
          "type": "address"
        }
      ],
      "name": "QueueListNodeRemoved",
      "type": "event"
    },
    {
      "anonymous": false,
      "inputs": [
        {
          "indexed": true,
          "internalType": "address",
          "name": "nodeAddress",
          "type": "address"
        },
        {
          "indexed": false,
          "internalType": "uint256",
          "name": "malisciousType",
          "type": "uint256"
        }
      ],
      "name": "Report",
      "type": "event"
    },
    {
      "anonymous": false,
      "inputs": [
        {
          "indexed": true,
          "internalType": "address",
          "name": "manager",
          "type": "address"
        },
        {
          "indexed": true,
          "internalType": "address",
          "name": "nodeAddress",
          "type": "address"
        },
        {
          "indexed": true,
          "internalType": "address",
          "name": "rewardReceiver",
          "type": "address"
        },
        {
          "indexed": false,
          "internalType": "address",
          "name": "nodeOwner",
          "type": "address"
        },
        {
          "indexed": false,
          "internalType": "address",
          "name": "tokenAddress",
          "type": "address"
        },
        {
          "indexed": false,
          "internalType": "uint256",
          "name": "amount",
          "type": "uint256"
        }
      ],
      "name": "Reward",
      "type": "event"
    },
    {
      "anonymous": false,
      "inputs": [
        {
          "indexed": false,
          "internalType": "address",
          "name": "stakingManager",
          "type": "address"
        },
        {
          "indexed": false,
          "internalType": "string",
          "name": "errorText",
          "type": "string"
        }
      ],
      "name": "RewardError",
      "type": "event"
    },
    {
      "anonymous": false,
      "inputs": [
        {
          "indexed": true,
          "internalType": "bytes32",
          "name": "role",
          "type": "bytes32"
        },
        {
          "indexed": true,
          "internalType": "bytes32",
          "name": "previousAdminRole",
          "type": "bytes32"
        },
        {
          "indexed": true,
          "internalType": "bytes32",
          "name": "newAdminRole",
          "type": "bytes32"
        }
      ],
      "name": "RoleAdminChanged",
      "type": "event"
    },
    {
      "anonymous": false,
      "inputs": [
        {
          "indexed": true,
          "internalType": "bytes32",
          "name": "role",
          "type": "bytes32"
        },
        {
          "indexed": true,
          "internalType": "address",
          "name": "account",
          "type": "address"
        },
        {
          "indexed": true,
          "internalType": "address",
          "name": "sender",
          "type": "address"
        }
      ],
      "name": "RoleGranted",
      "type": "event"
    },
    {
      "anonymous": false,
      "inputs": [
        {
          "indexed": true,
          "internalType": "bytes32",
          "name": "role",
          "type": "bytes32"
        },
        {
          "indexed": true,
          "internalType": "address",
          "name": "account",
          "type": "address"
        },
        {
          "indexed": true,
          "internalType": "address",
          "name": "sender",
          "type": "address"
        }
      ],
      "name": "RoleRevoked",
      "type": "event"
    },
    {
      "anonymous": false,
      "inputs": [
        {
          "indexed": true,
          "internalType": "address",
          "name": "nodeAddress",
          "type": "address"
        },
        {
          "indexed": true,
          "internalType": "address",
          "name": "stakingContract",
          "type": "address"
        },
        {
          "indexed": false,
          "internalType": "int256",
          "name": "changeAmount",
          "type": "int256"
        }
      ],
      "name": "StakeChanged",
      "type": "event"
    },
    {
      "anonymous": false,
      "inputs": [
        {
          "indexed": true,
          "internalType": "address",
          "name": "nodeAddress",
          "type": "address"
        },
        {
          "indexed": true,
          "internalType": "address",
          "name": "stakingContract",
          "type": "address"
        },
        {
          "indexed": false,
          "internalType": "uint256",
          "name": "amount",
          "type": "uint256"
        },
        {
          "indexed": false,
          "internalType": "bool",
          "name": "isAlwaysTop",
          "type": "bool"
        }
      ],
      "name": "StakeCreated",
      "type": "event"
    },
    {
      "anonymous": false,
      "inputs": [
        {
          "indexed": true,
          "internalType": "address",
          "name": "nodeAddress",
          "type": "address"
        },
        {
          "indexed": true,
          "internalType": "address",
          "name": "stakingContract",
          "type": "address"
        }
      ],
      "name": "StakeRemoved",
      "type": "event"
    },
    {
      "anonymous": false,
      "inputs": [
        {
          "indexed": true,
          "internalType": "address",
          "name": "nodeAddress",
          "type": "address"
        }
      ],
      "name": "TopListNodeAdded",
      "type": "event"
    },
    {
      "anonymous": false,
      "inputs": [
        {
          "indexed": true,
          "internalType": "address",
          "name": "nodeAddress",
          "type": "address"
        }
      ],
      "name": "TopListNodeRemoved",
      "type": "event"
    },
    {
      "anonymous": false,
      "inputs": [
        {
          "indexed": true,
          "internalType": "address",
          "name": "implementation",
          "type": "address"
        }
      ],
      "name": "Upgraded",
      "type": "event"
    },
    {
      "anonymous": false,
      "inputs": [
        {
          "indexed": false,
          "internalType": "address[]",
          "name": "newSet",
          "type": "address[]"
        }
      ],
      "name": "ValidatorSetFinalized",
      "type": "event"
    },
    {
      "inputs": [],
      "name": "DEFAULT_ADMIN_ROLE",
      "outputs": [
        {
          "internalType": "bytes32",
          "name": "",
          "type": "bytes32"
        }
      ],
      "stateMutability": "view",
      "type": "function"
    },
    {
      "inputs": [],
      "name": "REWARD_ORACLE_ROLE",
      "outputs": [
        {
          "internalType": "bytes32",
          "name": "",
          "type": "bytes32"
        }
      ],
      "stateMutability": "view",
      "type": "function"
    },
    {
      "inputs": [],
      "name": "STAKING_MANAGER_ROLE",
      "outputs": [
        {
          "internalType": "bytes32",
          "name": "",
          "type": "bytes32"
        }
      ],
      "stateMutability": "view",
      "type": "function"
    },
    {
      "inputs": [],
      "name": "_updateExternal",
      "outputs": [],
      "stateMutability": "nonpayable",
      "type": "function"
    },
    {
      "inputs": [
        {
          "internalType": "contract IOnBlockListener",
          "name": "listener",
          "type": "address"
        }
      ],
      "name": "addBlockListener",
      "outputs": [],
      "stateMutability": "nonpayable",
      "type": "function"
    },
    {
      "inputs": [],
      "name": "baseReward",
      "outputs": [
        {
          "internalType": "uint256",
          "name": "",
          "type": "uint256"
        }
      ],
      "stateMutability": "view",
      "type": "function"
    },
    {
      "inputs": [
        {
          "internalType": "uint256",
          "name": "newTopStakesCount",
          "type": "uint256"
        }
      ],
      "name": "changeTopStakesCount",
      "outputs": [],
      "stateMutability": "nonpayable",
      "type": "function"
    },
    {
      "inputs": [
        {
          "internalType": "address",
          "name": "rewardsBank",
          "type": "address"
        },
        {
          "internalType": "address",
          "name": "nodeAddress",
          "type": "address"
        },
        {
          "internalType": "address",
          "name": "nodeOwner",
          "type": "address"
        },
        {
          "internalType": "address",
          "name": "rewardReceiver",
          "type": "address"
        },
        {
          "internalType": "address",
          "name": "tokenAddress",
          "type": "address"
        },
        {
          "internalType": "uint256",
          "name": "amount",
          "type": "uint256"
        }
      ],
      "name": "emitReward",
      "outputs": [],
      "stateMutability": "nonpayable",
      "type": "function"
    },
    {
      "inputs": [],
      "name": "finalizeChange",
      "outputs": [],
      "stateMutability": "nonpayable",
      "type": "function"
    },
    {
      "inputs": [],
      "name": "getBlockListeners",
      "outputs": [
        {
          "internalType": "contract IOnBlockListener[]",
          "name": "",
          "type": "address[]"
        }
      ],
      "stateMutability": "view",
      "type": "function"
    },
    {
      "inputs": [
        {
          "internalType": "address",
          "name": "nodeAddress",
          "type": "address"
        }
      ],
      "name": "getNodeStake",
      "outputs": [
        {
          "internalType": "uint256",
          "name": "",
          "type": "uint256"
        }
      ],
      "stateMutability": "view",
      "type": "function"
    },
    {
      "inputs": [],
      "name": "getQueuedStakes",
      "outputs": [
        {
          "internalType": "address[]",
          "name": "",
          "type": "address[]"
        }
      ],
      "stateMutability": "view",
      "type": "function"
    },
    {
      "inputs": [],
      "name": "getRewardSettings",
      "outputs": [
        {
          "internalType": "uint64[5]",
          "name": "",
          "type": "uint64[5]"
        }
      ],
      "stateMutability": "view",
      "type": "function"
    },
    {
      "inputs": [
        {
          "internalType": "bytes32",
          "name": "role",
          "type": "bytes32"
        }
      ],
      "name": "getRoleAdmin",
      "outputs": [
        {
          "internalType": "bytes32",
          "name": "",
          "type": "bytes32"
        }
      ],
      "stateMutability": "view",
      "type": "function"
    },
    {
      "inputs": [
        {
          "internalType": "bytes32",
          "name": "role",
          "type": "bytes32"
        },
        {
          "internalType": "uint256",
          "name": "index",
          "type": "uint256"
        }
      ],
      "name": "getRoleMember",
      "outputs": [
        {
          "internalType": "address",
          "name": "",
          "type": "address"
        }
      ],
      "stateMutability": "view",
      "type": "function"
    },
    {
      "inputs": [
        {
          "internalType": "bytes32",
          "name": "role",
          "type": "bytes32"
        }
      ],
      "name": "getRoleMemberCount",
      "outputs": [
        {
          "internalType": "uint256",
          "name": "",
          "type": "uint256"
        }
      ],
      "stateMutability": "view",
      "type": "function"
    },
    {
      "inputs": [
        {
          "internalType": "address",
          "name": "manager",
          "type": "address"
        }
      ],
      "name": "getStakesByManager",
      "outputs": [
        {
          "internalType": "address[]",
          "name": "result",
          "type": "address[]"
        }
      ],
      "stateMutability": "view",
      "type": "function"
    },
    {
      "inputs": [],
      "name": "getTopStakes",
      "outputs": [
        {
          "internalType": "address[]",
          "name": "",
          "type": "address[]"
        }
      ],
      "stateMutability": "view",
      "type": "function"
    },
    {
      "inputs": [],
      "name": "getValidators",
      "outputs": [
        {
          "internalType": "address[]",
          "name": "",
          "type": "address[]"
        }
      ],
      "stateMutability": "view",
      "type": "function"
    },
    {
      "inputs": [
        {
          "internalType": "bytes32",
          "name": "role",
          "type": "bytes32"
        },
        {
          "internalType": "address",
          "name": "account",
          "type": "address"
        }
      ],
      "name": "grantRole",
      "outputs": [],
      "stateMutability": "nonpayable",
      "type": "function"
    },
    {
      "inputs": [
        {
          "internalType": "bytes32",
          "name": "role",
          "type": "bytes32"
        },
        {
          "internalType": "address",
          "name": "account",
          "type": "address"
        }
      ],
      "name": "hasRole",
      "outputs": [
        {
          "internalType": "bool",
          "name": "",
          "type": "bool"
        }
      ],
      "stateMutability": "view",
      "type": "function"
    },
    {
      "inputs": [
        {
          "internalType": "address",
          "name": "_rewardOracle",
          "type": "address"
        },
        {
          "internalType": "uint256",
          "name": "_baseReward",
          "type": "uint256"
        },
        {
          "internalType": "uint256",
          "name": "_topStakesCount",
          "type": "uint256"
        }
      ],
      "name": "initialize",
      "outputs": [],
      "stateMutability": "nonpayable",
      "type": "function"
    },
    {
      "inputs": [
        {
          "internalType": "address",
          "name": "",
          "type": "address"
        }
      ],
      "name": "latestNodeRewardTime",
      "outputs": [
        {
          "internalType": "uint256",
          "name": "",
          "type": "uint256"
        }
      ],
      "stateMutability": "view",
      "type": "function"
    },
    {
      "inputs": [
        {
          "internalType": "address",
          "name": "nodeAddress",
          "type": "address"
        },
        {
          "internalType": "uint256",
          "name": "amount",
          "type": "uint256"
        },
        {
          "internalType": "bool",
          "name": "isAlwaysTop",
          "type": "bool"
        }
      ],
      "name": "newStake",
      "outputs": [],
      "stateMutability": "nonpayable",
      "type": "function"
    },
    {
      "inputs": [],
      "name": "process",
      "outputs": [],
      "stateMutability": "nonpayable",
      "type": "function"
    },
    {
      "inputs": [],
      "name": "proxiableUUID",
      "outputs": [
        {
          "internalType": "bytes32",
          "name": "",
          "type": "bytes32"
        }
      ],
      "stateMutability": "view",
      "type": "function"
    },
    {
      "inputs": [
        {
          "internalType": "contract IOnBlockListener",
          "name": "listener",
          "type": "address"
        }
      ],
      "name": "removeBlockListener",
      "outputs": [],
      "stateMutability": "nonpayable",
      "type": "function"
    },
    {
      "inputs": [
        {
          "internalType": "bytes32",
          "name": "role",
          "type": "bytes32"
        },
        {
          "internalType": "address",
          "name": "account",
          "type": "address"
        }
      ],
      "name": "renounceRole",
      "outputs": [],
      "stateMutability": "nonpayable",
      "type": "function"
    },
    {
      "inputs": [
        {
          "internalType": "bytes32",
          "name": "role",
          "type": "bytes32"
        },
        {
          "internalType": "address",
          "name": "account",
          "type": "address"
        }
      ],
      "name": "revokeRole",
      "outputs": [],
      "stateMutability": "nonpayable",
      "type": "function"
    },
    {
      "inputs": [
        {
          "internalType": "uint256",
          "name": "_baseReward",
          "type": "uint256"
        }
      ],
      "name": "setReward",
      "outputs": [],
      "stateMutability": "nonpayable",
      "type": "function"
    },
    {
      "inputs": [
        {
          "internalType": "uint64[5]",
          "name": "newSettings",
          "type": "uint64[5]"
        }
      ],
      "name": "setRewardSettings",
      "outputs": [],
      "stateMutability": "nonpayable",
      "type": "function"
    },
    {
      "inputs": [
        {
          "internalType": "address",
          "name": "nodeAddress",
          "type": "address"
        },
        {
          "internalType": "uint256",
          "name": "amount",
          "type": "uint256"
        }
      ],
      "name": "stake",
      "outputs": [],
      "stateMutability": "nonpayable",
      "type": "function"
    },
    {
      "inputs": [
        {
          "internalType": "address",
          "name": "",
          "type": "address"
        }
      ],
      "name": "stakes",
      "outputs": [
        {
          "internalType": "uint256",
          "name": "amount",
          "type": "uint256"
        },
        {
          "internalType": "contract IStakeManager",
          "name": "stakingContract",
          "type": "address"
        },
        {
          "internalType": "bool",
          "name": "isAlwaysTop",
          "type": "bool"
        }
      ],
      "stateMutability": "view",
      "type": "function"
    },
    {
      "inputs": [
        {
          "internalType": "bytes4",
          "name": "interfaceId",
          "type": "bytes4"
        }
      ],
      "name": "supportsInterface",
      "outputs": [
        {
          "internalType": "bool",
          "name": "",
          "type": "bool"
        }
      ],
      "stateMutability": "view",
      "type": "function"
    },
    {
      "inputs": [],
      "name": "topStakesCount",
      "outputs": [
        {
          "internalType": "uint256",
          "name": "",
          "type": "uint256"
        }
      ],
      "stateMutability": "view",
      "type": "function"
    },
    {
      "inputs": [],
      "name": "totalStakeAmount",
      "outputs": [
        {
          "internalType": "uint256",
          "name": "",
          "type": "uint256"
        }
      ],
      "stateMutability": "view",
      "type": "function"
    },
    {
      "inputs": [
        {
          "internalType": "address",
          "name": "nodeAddress",
          "type": "address"
        },
        {
          "internalType": "uint256",
          "name": "amount",
          "type": "uint256"
        }
      ],
      "name": "unstake",
      "outputs": [],
      "stateMutability": "nonpayable",
      "type": "function"
    },
    {
      "inputs": [
        {
          "internalType": "address",
          "name": "newImplementation",
          "type": "address"
        }
      ],
      "name": "upgradeTo",
      "outputs": [],
      "stateMutability": "nonpayable",
      "type": "function"
    },
    {
      "inputs": [
        {
          "internalType": "address",
          "name": "newImplementation",
          "type": "address"
        },
        {
          "internalType": "bytes",
          "name": "data",
          "type": "bytes"
        }
      ],
      "name": "upgradeToAndCall",
      "outputs": [],
      "stateMutability": "payable",
      "type": "function"
    }
  ],
  "bytecode": "0x60a06040523060805234801561001457600080fd5b5060805161499361004c60003960008181610a0601528181610ab601528181610f2f01528181610fdf015261112401526149936000f3fe6080604052600436106102bd576000357c0100000000000000000000000000000000000000000000000000000000900480637a1ac61e1161018b578063b7ab4db5116100e8578063ca15c8731161009c578063d547741f11610081578063d547741f1461082c578063e03baa911461084c578063f98e58a11461086157600080fd5b8063ca15c873146107c9578063cfbf92a9146107e957600080fd5b8063bfd1f45e116100cd578063bfd1f45e1461077f578063c2a672e014610794578063c33fb877146107b457600080fd5b8063b7ab4db51461074a578063b8658bba1461075f57600080fd5b806394409a561161013f578063aaf598b311610124578063aaf598b3146106e8578063adc9772e1461070a578063b60655021461072a57600080fd5b806394409a56146106bd578063a217fddf146106d357600080fd5b80638fd55bac116101705780638fd55bac146106055780639010d07c1461062557806391d148541461066a57600080fd5b80637a1ac61e146105c357806389e53e6b146105e357600080fd5b8063429b4b83116102395780636f60820a116101ed57806375286211116101d25780637528621114610578578063754bf0b51461058d57806376ad03bc146105ad57600080fd5b80636f60820a1461052e57806371058e871461054457600080fd5b80634f1ef2861161021e5780634f1ef286146104d957806352d1902d146104ec5780635ea214911461050157600080fd5b8063429b4b83146104995780634dd5bc19146104b957600080fd5b80632f2ff15d116102905780633659cfe6116102755780633659cfe6146104305780633937c0b3146104505780633bc6a1421461048457600080fd5b80632f2ff15d146103f057806336568abe1461041057600080fd5b806301ffc9a7146102c257806316934fc4146102f7578063248a9ca314610390578063293be456146103ce575b600080fd5b3480156102ce57600080fd5b506102e26102dd366004614113565b610881565b60405190151581526020015b60405180910390f35b34801561030357600080fd5b5061035e610312366004614177565b60ca602052600090815260409020805460019091015473ffffffffffffffffffffffffffffffffffffffff81169074010000000000000000000000000000000000000000900460ff1683565b6040805193845273ffffffffffffffffffffffffffffffffffffffff90921660208401521515908201526060016102ee565b34801561039c57600080fd5b506103c06103ab366004614194565b60009081526066602052604090206001015490565b6040519081526020016102ee565b3480156103da57600080fd5b506103ee6103e9366004614194565b6108dd565b005b3480156103fc57600080fd5b506103ee61040b3660046141ad565b61090d565b34801561041c57600080fd5b506103ee61042b3660046141ad565b610937565b34801561043c57600080fd5b506103ee61044b366004614177565b6109ef565b34801561045c57600080fd5b506103c07fa6b5d83d32632203555cb9b2c2f68a8d94da48cadd9266ac0d17babedb52ea5b81565b34801561049057600080fd5b506103ee610bf4565b3480156104a557600080fd5b506103ee6104b43660046141dd565b610c12565b3480156104c557600080fd5b506103ee6104d4366004614224565b610e80565b6103ee6104e73660046142f9565b610f18565b3480156104f857600080fd5b506103c061110a565b34801561050d57600080fd5b506103c061051c366004614177565b60d76020526000908152604090205481565b34801561053a57600080fd5b506103c060cb5481565b34801561055057600080fd5b506103c07f5d23543221ee839e143ccd74c27fb92d54ec6d35fcc6165e5f665bb1f476e56581565b34801561058457600080fd5b506103ee6111f7565b34801561059957600080fd5b506103ee6105a8366004614194565b61131e565b3480156105b957600080fd5b506103c060cc5481565b3480156105cf57600080fd5b506103ee6105de3660046143a5565b611449565b3480156105ef57600080fd5b506105f8611634565b6040516102ee91906143da565b34801561061157600080fd5b506103ee610620366004614177565b6116a3565b34801561063157600080fd5b50610645610640366004614415565b6116b7565b60405173ffffffffffffffffffffffffffffffffffffffff90911681526020016102ee565b34801561067657600080fd5b506102e26106853660046141ad565b600091825260666020908152604080842073ffffffffffffffffffffffffffffffffffffffff93909316845291905290205460ff1690565b3480156106c957600080fd5b506103c060d25481565b3480156106df57600080fd5b506103c0600081565b3480156106f457600080fd5b506106fd6116d6565b6040516102ee9190614437565b34801561071657600080fd5b506103ee610725366004614491565b611744565b34801561073657600080fd5b506103ee610745366004614177565b611959565b34801561075657600080fd5b506106fd61196d565b34801561076b57600080fd5b506106fd61077a366004614177565b6119da565b34801561078b57600080fd5b506106fd611c6e565b3480156107a057600080fd5b506103ee6107af366004614491565b611cdb565b3480156107c057600080fd5b506103ee611f45565b3480156107d557600080fd5b506103c06107e4366004614194565b612060565b3480156107f557600080fd5b506103c0610804366004614177565b73ffffffffffffffffffffffffffffffffffffffff16600090815260ca602052604090205490565b34801561083857600080fd5b506103ee6108473660046141ad565b612077565b34801561085857600080fd5b506106fd61209c565b34801561086d57600080fd5b506103ee61087c3660046144bd565b612109565b60007fffffffff0000000000000000000000000000000000000000000000000000000082167f5a05180f0000000000000000000000000000000000000000000000000000000014806108d757506108d782612121565b92915050565b7f5d23543221ee839e143ccd74c27fb92d54ec6d35fcc6165e5f665bb1f476e565610907816121b8565b5060cc55565b600082815260666020526040902060010154610928816121b8565b61093283836121c2565b505050565b73ffffffffffffffffffffffffffffffffffffffff811633146109e1576040517f08c379a000000000000000000000000000000000000000000000000000000000815260206004820152602f60248201527f416363657373436f6e74726f6c3a2063616e206f6e6c792072656e6f756e636560448201527f20726f6c657320666f722073656c66000000000000000000000000000000000060648201526084015b60405180910390fd5b6109eb82826121e4565b5050565b73ffffffffffffffffffffffffffffffffffffffff7f0000000000000000000000000000000000000000000000000000000000000000163003610ab4576040517f08c379a000000000000000000000000000000000000000000000000000000000815260206004820152602c60248201527f46756e6374696f6e206d7573742062652063616c6c6564207468726f7567682060448201527f64656c656761746563616c6c000000000000000000000000000000000000000060648201526084016109d8565b7f000000000000000000000000000000000000000000000000000000000000000073ffffffffffffffffffffffffffffffffffffffff16610b297f360894a13ba1a3210667c828492db98dca3e2076cc3735a920a3ca505d382bbc5473ffffffffffffffffffffffffffffffffffffffff1690565b73ffffffffffffffffffffffffffffffffffffffff1614610bcc576040517f08c379a000000000000000000000000000000000000000000000000000000000815260206004820152602c60248201527f46756e6374696f6e206d7573742062652063616c6c6564207468726f7567682060448201527f6163746976652070726f7879000000000000000000000000000000000000000060648201526084016109d8565b610bd581612206565b60408051600080825260208201909252610bf191839190612211565b50565b333014610c0057600080fd5b610c0861240e565b610c1061244c565b565b7fa6b5d83d32632203555cb9b2c2f68a8d94da48cadd9266ac0d17babedb52ea5b610c3c816121b8565b60008311610ca6576040517f08c379a000000000000000000000000000000000000000000000000000000000815260206004820152601260248201527f616d6f756e74206d757374206265203e2030000000000000000000000000000060448201526064016109d8565b73ffffffffffffffffffffffffffffffffffffffff8416600090815260ca602052604090205415610d33576040517f08c379a000000000000000000000000000000000000000000000000000000000815260206004820152601160248201527f416c726561647920686173207374616b6500000000000000000000000000000060448201526064016109d8565b6040805160608101825284815233602080830191825285151583850190815273ffffffffffffffffffffffffffffffffffffffff898116600090815260ca90935294909120925183559051600190920180549151151574010000000000000000000000000000000000000000027fffffffffffffffffffffff0000000000000000000000000000000000000000009092169290931691909117179055610dd8846124fe565b604080518481528315156020820152339173ffffffffffffffffffffffffffffffffffffffff8716917fe519f13339e9a08f3caede8e5c4c1bc5569ef57466ab0dbf5308925ac7540f4c910160405180910390a3604051838152339073ffffffffffffffffffffffffffffffffffffffff8616907f18f12eacda24b1ab9f5b9516de560f1ab3ea27b70e44092ff1ab7bc58013b7e4906020015b60405180910390a350505050565b7fa6b5d83d32632203555cb9b2c2f68a8d94da48cadd9266ac0d17babedb52ea5b610eaa816121b8565b6040805173ffffffffffffffffffffffffffffffffffffffff878116825285811660208301529181018490528186169188811691908a16907fe382555d7262c4f986a10dce5e8b050c65395136daac44bb1a9ac852e45839e59060600160405180910390a450505050505050565b73ffffffffffffffffffffffffffffffffffffffff7f0000000000000000000000000000000000000000000000000000000000000000163003610fdd576040517f08c379a000000000000000000000000000000000000000000000000000000000815260206004820152602c60248201527f46756e6374696f6e206d7573742062652063616c6c6564207468726f7567682060448201527f64656c656761746563616c6c000000000000000000000000000000000000000060648201526084016109d8565b7f000000000000000000000000000000000000000000000000000000000000000073ffffffffffffffffffffffffffffffffffffffff166110527f360894a13ba1a3210667c828492db98dca3e2076cc3735a920a3ca505d382bbc5473ffffffffffffffffffffffffffffffffffffffff1690565b73ffffffffffffffffffffffffffffffffffffffff16146110f5576040517f08c379a000000000000000000000000000000000000000000000000000000000815260206004820152602c60248201527f46756e6374696f6e206d7573742062652063616c6c6564207468726f7567682060448201527f6163746976652070726f7879000000000000000000000000000000000000000060648201526084016109d8565b6110fe82612206565b6109eb82826001612211565b60003073ffffffffffffffffffffffffffffffffffffffff7f000000000000000000000000000000000000000000000000000000000000000016146111d1576040517f08c379a000000000000000000000000000000000000000000000000000000000815260206004820152603860248201527f555550535570677261646561626c653a206d757374206e6f742062652063616c60448201527f6c6564207468726f7567682064656c656761746563616c6c000000000000000060648201526084016109d8565b507f360894a13ba1a3210667c828492db98dca3e2076cc3735a920a3ca505d382bbc5b90565b73fffffffffffffffffffffffffffffffffffffffe33148061124757503360009081527f6f48904484b35701cf1f41ad9068b394adf7e2f8a59d2309a04d10a155eaa72b602052604090205460ff165b6112d3576040517f08c379a000000000000000000000000000000000000000000000000000000000815260206004820152602660248201527f6f6e6c7920737570657220757365722063616e2063616c6c207468697320667560448201527f6e6374696f6e000000000000000000000000000000000000000000000000000060648201526084016109d8565b60d080546112e39160cf91613f90565b507fa66cceae2e370a14add414cb77d00e2ff17cd603ee59764f2c2ff98f3e04627660cf604051611314919061454f565b60405180910390a1565b6000611329816121b8565b60008211611393576040517f08c379a000000000000000000000000000000000000000000000000000000000815260206004820152601d60248201527f6e6577546f705374616b6573436f756e74206d757374206265203e203000000060448201526064016109d8565b60d0548210156114435760d0546113ab6008826145cf565b6113b5908461460a565b1015611443576040517f08c379a000000000000000000000000000000000000000000000000000000000815260206004820152602a60248201527f6465637265617365206f66206d6f7265207468616e2031322e3525206973206e60448201527f6f7420616c6c6f7765640000000000000000000000000000000000000000000060648201526084016109d8565b5060cb55565b600154610100900460ff161580801561146657506001805460ff16105b8061147f5750303b15801561147f57506001805460ff16145b61150b576040517f08c379a000000000000000000000000000000000000000000000000000000000815260206004820152602e60248201527f496e697469616c697a61626c653a20636f6e747261637420697320616c72656160448201527f647920696e697469616c697a656400000000000000000000000000000000000060648201526084016109d8565b6001805460ff191681179055801561154a57600180547fffffffffffffffffffffffffffffffffffffffffffffffffffffffffffff00ff166101001790555b60cc83905560cb8290556040805160a08101825260018152620288706020820152620f424091810191909152620222e060608201526209470060808201526115969060cd906005613fe0565b506115a260003361250f565b6115cc7f5d23543221ee839e143ccd74c27fb92d54ec6d35fcc6165e5f665bb1f476e5658561250f565b801561162e57600180547fffffffffffffffffffffffffffffffffffffffffffffffffffffffffffff00ff1681556040519081527f7f26b83ff96e1f2b6a682f133852f6798a09c465da95921460cefb38474024989060200160405180910390a15b50505050565b61163c61407e565b6040805160a08101918290529060cd90600590826000855b82829054906101000a900467ffffffffffffffff1667ffffffffffffffff16815260200190600801906020826007010492830192600103820291508084116116545790505b5050505050905090565b60006116ae816121b8565b6109eb82612519565b60008281526098602052604081206116cf9083612683565b9392505050565b6060600080548060200260200160405190810160405280929190818152602001828054801561169957602002820191906000526020600020905b815473ffffffffffffffffffffffffffffffffffffffff168152600190910190602001808311611710575050505050905090565b600081116117ae576040517f08c379a000000000000000000000000000000000000000000000000000000000815260206004820152601260248201527f616d6f756e74206d757374206265203e2030000000000000000000000000000060448201526064016109d8565b73ffffffffffffffffffffffffffffffffffffffff8216600090815260ca60205260409020805461183b576040517f08c379a000000000000000000000000000000000000000000000000000000000815260206004820152601360248201527f5374616b6520646f65736e27742065786973740000000000000000000000000060448201526064016109d8565b600181015473ffffffffffffffffffffffffffffffffffffffff1633146118be576040517f08c379a000000000000000000000000000000000000000000000000000000000815260206004820181905260248201527f7374616b696e67436f6e7472616374206d757374206265207468652073616d6560448201526064016109d8565b6000806118ca8561268f565b12801591506118eb578260d260008282546118e5919061460a565b90915550505b828260000160008282546118ff919061460a565b9091555061190f905084826126d1565b604051838152339073ffffffffffffffffffffffffffffffffffffffff8616907f18f12eacda24b1ab9f5b9516de560f1ab3ea27b70e44092ff1ab7bc58013b7e490602001610e72565b6000611964816121b8565b6109eb8261274e565b606060cf8054806020026020016040519081016040528092919081815260200182805480156116995760200282019190600052602060002090815473ffffffffffffffffffffffffffffffffffffffff168152600190910190602001808311611710575050505050905090565b60d15460d0546060916119ec9161460a565b67ffffffffffffffff811115611a0457611a0461429d565b604051908082528060200260200182016040528015611a2d578160200160208202803683370190505b5090506000805b60d054811015611b4b578373ffffffffffffffffffffffffffffffffffffffff1660ca600060d08481548110611a6c57611a6c61461d565b600091825260208083209091015473ffffffffffffffffffffffffffffffffffffffff90811684529083019390935260409091019020600101541603611b395760d08181548110611abf57611abf61461d565b60009182526020909120015473ffffffffffffffffffffffffffffffffffffffff168383611aec8161464c565b945081518110611afe57611afe61461d565b602002602001019073ffffffffffffffffffffffffffffffffffffffff16908173ffffffffffffffffffffffffffffffffffffffff16815250505b80611b438161464c565b915050611a34565b5060005b60d154811015611c66578373ffffffffffffffffffffffffffffffffffffffff1660ca600060d18481548110611b8757611b8761461d565b600091825260208083209091015473ffffffffffffffffffffffffffffffffffffffff90811684529083019390935260409091019020600101541603611c545760d18181548110611bda57611bda61461d565b60009182526020909120015473ffffffffffffffffffffffffffffffffffffffff168383611c078161464c565b945081518110611c1957611c1961461d565b602002602001019073ffffffffffffffffffffffffffffffffffffffff16908173ffffffffffffffffffffffffffffffffffffffff16815250505b80611c5e8161464c565b915050611b4f565b508152919050565b606060d18054806020026020016040519081016040528092919081815260200182805480156116995760200282019190600052602060002090815473ffffffffffffffffffffffffffffffffffffffff168152600190910190602001808311611710575050505050905090565b60008111611d45576040517f08c379a000000000000000000000000000000000000000000000000000000000815260206004820152601260248201527f616d6f756e74206d757374206265203e2030000000000000000000000000000060448201526064016109d8565b73ffffffffffffffffffffffffffffffffffffffff808316600090815260ca6020526040902060018101549091163314611ddb576040517f08c379a000000000000000000000000000000000000000000000000000000000815260206004820181905260248201527f7374616b696e67436f6e7472616374206d757374206265207468652073616d6560448201526064016109d8565b8054821115611e46576040517f08c379a000000000000000000000000000000000000000000000000000000000815260206004820152601860248201527f616d6f756e7420626967676572207468616e207374616b65000000000000000060448201526064016109d8565b600080611e528561268f565b1280159150611e73578260d26000828254611e6d9190614666565b90915550505b82826000016000828254611e879190614666565b9091555033905073ffffffffffffffffffffffffffffffffffffffff85167f18f12eacda24b1ab9f5b9516de560f1ab3ea27b70e44092ff1ab7bc58013b7e4611ecf86614679565b60405190815260200160405180910390a38154600003611f3b57611ef3848261283b565b604051339073ffffffffffffffffffffffffffffffffffffffff8616907f698b699627f845a0a177da4fbb291c966684fdb0b944bcac38450e79abaa834490600090a361162e565b61162e84826128a4565b334114611fd4576040517f08c379a000000000000000000000000000000000000000000000000000000000815260206004820152602660248201527f6f6e6c7920737570657220757365722063616e2063616c6c207468697320667560448201527f6e6374696f6e000000000000000000000000000000000000000000000000000060648201526084016109d8565b611fdc612919565b611fe46129cb565b3073ffffffffffffffffffffffffffffffffffffffff16633bc6a1426040518163ffffffff167c0100000000000000000000000000000000000000000000000000000000028152600401600060405180830381600087803b15801561204857600080fd5b505af1925050508015612059575060015b15610c1057565b60008181526098602052604081206108d790612c3b565b600082815260666020526040902060010154612092816121b8565b61093283836121e4565b606060d08054806020026020016040519081016040528092919081815260200182805480156116995760200282019190600052602060002090815473ffffffffffffffffffffffffffffffffffffffff168152600190910190602001808311611710575050505050905090565b6000612114816121b8565b61093260cd83600561409c565b60007fffffffff0000000000000000000000000000000000000000000000000000000082167f7965db0b0000000000000000000000000000000000000000000000000000000014806108d757507f01ffc9a7000000000000000000000000000000000000000000000000000000007fffffffff000000000000000000000000000000000000000000000000000000008316146108d7565b610bf18133612c45565b6121cc8282612ce1565b60008281526098602052604090206109329082612db7565b6121ee8282612dd9565b60008281526098602052604090206109329082612e76565b60006109eb816121b8565b7f4910fdfa16fed3260ed0e7147f7cc6da11a60208b5b9406d12a635614ffd91435460ff16156122445761093283612e98565b8273ffffffffffffffffffffffffffffffffffffffff166352d1902d6040518163ffffffff167c0100000000000000000000000000000000000000000000000000000000028152600401602060405180830381865afa9250505080156122c7575060408051601f3d908101601f191682019092526122c4918101906146b1565b60015b612353576040517f08c379a000000000000000000000000000000000000000000000000000000000815260206004820152602e60248201527f45524331393637557067726164653a206e657720696d706c656d656e7461746960448201527f6f6e206973206e6f74205555505300000000000000000000000000000000000060648201526084016109d8565b7f360894a13ba1a3210667c828492db98dca3e2076cc3735a920a3ca505d382bbc8114612402576040517f08c379a000000000000000000000000000000000000000000000000000000000815260206004820152602960248201527f45524331393637557067726164653a20756e737570706f727465642070726f7860448201527f6961626c6555554944000000000000000000000000000000000000000000000060648201526084016109d8565b50610932838383612fa2565b60cb5460d0541161241b57565b60cf5460d65461242b919061460a565b43101561243457565b600061244160d354612fc7565b9050610bf1816130c4565b60d15460000361245857565b60cb5460d054101561247c57600061247160d4546131b0565b9050610bf181613263565b60cb5460d05403610c105760006124c860d160d454815481106124a1576124a161461d565b60009182526020909120015473ffffffffffffffffffffffffffffffffffffffff1661268f565b1315610c105760006124db60d354612fc7565b905060006124ea60d4546131b0565b90506124f5826130c4565b6109eb81613263565b612507816130c4565b610bf161244c565b6109eb82826121c2565b60006125248261339d565b90506000198103612591576040517f08c379a000000000000000000000000000000000000000000000000000000000815260206004820152600960248201527f4e6f7420666f756e64000000000000000000000000000000000000000000000060448201526064016109d8565b600080546125a190600190614666565b815481106125b1576125b161461d565b6000918252602082200154815473ffffffffffffffffffffffffffffffffffffffff9091169190839081106125e8576125e861461d565b6000918252602082200180547fffffffffffffffffffffffff00000000000000000000000000000000000000001673ffffffffffffffffffffffffffffffffffffffff9390931692909217909155805480612645576126456146ca565b600082815260209020810160001990810180547fffffffffffffffffffffffff00000000000000000000000000000000000000001690550190555050565b60006116cf838361341e565b60006108d78260d060d354815481106126aa576126aa61461d565b60009182526020909120015473ffffffffffffffffffffffffffffffffffffffff16613448565b80156127285760d060d354815481106126ec576126ec61461d565b60009182526020909120015473ffffffffffffffffffffffffffffffffffffffff908116908316036109eb5761272061352b565b6109eb61244c565b600061273383613684565b126109eb5761274360d18361369f565b60d4556109eb61244c565b60006127598261339d565b905060001981146127c6576040517f08c379a000000000000000000000000000000000000000000000000000000000815260206004820152601060248201527f416c7265616479206c697374656e65720000000000000000000000000000000060448201526064016109d8565b50600080546001810182559080527f290decd9548b62a8d60345a988386fc84ba6bc95484008f6362f93160ef3e5630180547fffffffffffffffffffffffff00000000000000000000000000000000000000001673ffffffffffffffffffffffffffffffffffffffff92909216919091179055565b73ffffffffffffffffffffffffffffffffffffffff8216600090815260ca6020526040812090815560010180547fffffffffffffffffffffff000000000000000000000000000000000000000000169055801561289b5761272082613778565b6109eb82613790565b80156128d05760006128b58361268f565b136109eb576128c560d08361369f565b60d3556109eb61244c565b60d160d454815481106128e5576128e561461d565b60009182526020909120015473ffffffffffffffffffffffffffffffffffffffff908116908316036109eb576127206137a8565b60005b600054811015610bf157600081815481106129395761293961461d565b6000918252602082200154604080517fa2a14817000000000000000000000000000000000000000000000000000000008152905173ffffffffffffffffffffffffffffffffffffffff9092169263a2a148179260048084019382900301818387803b1580156129a757600080fd5b505af19250505080156129b8575060015b50806129c38161464c565b91505061291c565b60d5544311612a5c576040517f08c379a000000000000000000000000000000000000000000000000000000000815260206004820152602360248201527f72657761726420616c72656164792063616c6c656420696e207468697320626c60448201527f6f636b000000000000000000000000000000000000000000000000000000000060648201526084016109d8565b4360d55533600090815260d76020908152604080832042905560ca909152812060d254815460cf5460cc54939493612a9491906146f9565b612a9e91906146f9565b612aa891906145cf565b60018301546040517f21670f220000000000000000000000000000000000000000000000000000000081523360048201526024810183905291925073ffffffffffffffffffffffffffffffffffffffff16906321670f2290604401600060405180830381600087803b158015612b1d57600080fd5b505af1925050508015612b2e575060015b6109eb57612b3a614710565b806308c379a003612bb45750612b4e614748565b80612b595750612bb6565b60018301546040517f12e1ce9822ac52f0302044a0a74d82822132efa1b3b4a9106fce30f124b7ca7e91612ba79173ffffffffffffffffffffffffffffffffffffffff909116908490614840565b60405180910390a1505050565b505b60018201546040805173ffffffffffffffffffffffffffffffffffffffff909216825260208201819052600d828201527f756e6b6e6f776e206572726f72000000000000000000000000000000000000006060830152517f12e1ce9822ac52f0302044a0a74d82822132efa1b3b4a9106fce30f124b7ca7e9181900360800190a15050565b60006108d7825490565b600082815260666020908152604080832073ffffffffffffffffffffffffffffffffffffffff8516845290915290205460ff166109eb57612c8581613892565b612c908360206138b1565b604051602001612ca192919061486f565b60408051601f19818403018152908290527f08c379a00000000000000000000000000000000000000000000000000000000082526109d8916004016148f0565b600082815260666020908152604080832073ffffffffffffffffffffffffffffffffffffffff8516845290915290205460ff166109eb57600082815260666020908152604080832073ffffffffffffffffffffffffffffffffffffffff851684529091529020805460ff19166001179055612d593390565b73ffffffffffffffffffffffffffffffffffffffff168173ffffffffffffffffffffffffffffffffffffffff16837f2f8788117e7eff1d82e926ec794901d17c78024a50270940304540a733656f0d60405160405180910390a45050565b60006116cf8373ffffffffffffffffffffffffffffffffffffffff8416613b12565b600082815260666020908152604080832073ffffffffffffffffffffffffffffffffffffffff8516845290915290205460ff16156109eb57600082815260666020908152604080832073ffffffffffffffffffffffffffffffffffffffff85168085529252808320805460ff1916905551339285917ff6391f5c32d9c69d2a47ea670b442974b53935d1edc7fd64eb21e047a839171b9190a45050565b60006116cf8373ffffffffffffffffffffffffffffffffffffffff8416613b61565b73ffffffffffffffffffffffffffffffffffffffff81163b612f3c576040517f08c379a000000000000000000000000000000000000000000000000000000000815260206004820152602d60248201527f455243313936373a206e657720696d706c656d656e746174696f6e206973206e60448201527f6f74206120636f6e74726163740000000000000000000000000000000000000060648201526084016109d8565b7f360894a13ba1a3210667c828492db98dca3e2076cc3735a920a3ca505d382bbc80547fffffffffffffffffffffffff00000000000000000000000000000000000000001673ffffffffffffffffffffffffffffffffffffffff92909216919091179055565b612fab83613c54565b600082511180612fb85750805b156109325761162e8383613ca1565b60008060d08381548110612fdd57612fdd61461d565b60009182526020909120015473ffffffffffffffffffffffffffffffffffffffff16905061300c60d084613cc6565b613014613d7b565b8260d3540361302a5761302561352b565b61303b565b60d05460d3540361303b5760d38390555b73ffffffffffffffffffffffffffffffffffffffff8116600090815260ca602052604081205460d2805491929091613074908490614666565b90915550504360d65560405173ffffffffffffffffffffffffffffffffffffffff8216907fa332cf2909289691b958b6a3cc484aeae751eb997c42ffb20cedd6bc47d9784f90600090a292915050565b60d180546001808201835560008390527f695fb3134ad82c3b8022bc5464edd0bcc9424ef672b52245dcb6ab2374327ce390910180547fffffffffffffffffffffffff00000000000000000000000000000000000000001673ffffffffffffffffffffffffffffffffffffffff85161790559054900361314857600060d45561316c565b600061315382613684565b131561316c5760d15461316890600190614666565b60d4555b60405173ffffffffffffffffffffffffffffffffffffffff8216907f13e20c2c86edb7fd9c4e781927a258a390e043bc948182fb996223fff6202a9590600090a250565b60008060d183815481106131c6576131c661461d565b60009182526020909120015473ffffffffffffffffffffffffffffffffffffffff1690506131f560d184613cc6565b8260d4540361320b576132066137a8565b61321c565b60d15460d4540361321c5760d48390555b60405173ffffffffffffffffffffffffffffffffffffffff8216907f6fc2e7915026e6cb0f33f9f79c5aab575b783bf2266799a86fa6b220b91b07f490600090a292915050565b60d080546001810182556000919091527fe89d44c8fd6a9bac8af33ce47f56337617d449bf7ff3956b618c646de829cbcb0180547fffffffffffffffffffffffff00000000000000000000000000000000000000001673ffffffffffffffffffffffffffffffffffffffff83161790556132db613d7b565b60d08054600091613302916132f290600190614666565b815481106124a1576124a161461d565b121561331b5760d05461331790600190614666565b60d3555b73ffffffffffffffffffffffffffffffffffffffff8116600090815260ca602052604081205460d280549192909161335490849061460a565b909155505060405173ffffffffffffffffffffffffffffffffffffffff8216907f172688e175fc2d12b540136329a3eafe3c60fafae6f2d476fe400a1a2c41063690600090a250565b6000805b600054811015613414578273ffffffffffffffffffffffffffffffffffffffff16600082815481106133d5576133d561461d565b60009182526020909120015473ffffffffffffffffffffffffffffffffffffffff16036134025792915050565b8061340c8161464c565b9150506133a1565b5060001992915050565b60008260000182815481106134355761343561461d565b9060005260206000200154905092915050565b60008173ffffffffffffffffffffffffffffffffffffffff168373ffffffffffffffffffffffffffffffffffffffff1603613485575060006108d7565b73ffffffffffffffffffffffffffffffffffffffff808416600090815260ca60208181526040808420815160608082018452825482526001928301548089168387015260ff740100000000000000000000000000000000000000009182900481161515848701528b8a1689529686529684902084519182018552805482529092015496871693820193909352939094049091161515928201929092526116cf9190613dc1565b600060d35560015b60d054811015610bf157600061366660ca600060d085815481106135595761355961461d565b60009182526020808320919091015473ffffffffffffffffffffffffffffffffffffffff90811684528382019490945260409283018220835160608101855281548152600190910154948516918101919091527401000000000000000000000000000000000000000090930460ff1615159183019190915260d35460d0805460ca93929081106135eb576135eb61461d565b60009182526020808320919091015473ffffffffffffffffffffffffffffffffffffffff9081168452838201949094526040928301909120825160608101845281548152600190910154938416918101919091527401000000000000000000000000000000000000000090920460ff16151590820152613dc1565b12156136725760d38190555b8061367c8161464c565b915050613533565b60006108d78260d160d454815481106126aa576126aa61461d565b6000805b8354811015613715578273ffffffffffffffffffffffffffffffffffffffff168482815481106136d5576136d561461d565b60009182526020909120015473ffffffffffffffffffffffffffffffffffffffff16036137035790506108d7565b8061370d8161464c565b9150506136a3565b506040517f08c379a000000000000000000000000000000000000000000000000000000000815260206004820152600f60248201527f56616c7565206e6f7420666f756e64000000000000000000000000000000000060448201526064016109d8565b600061378560d08361369f565b905061093281612fc7565b600061379d60d18361369f565b9050610932816131b0565b60d1546000036137b457565b600060d45560015b60d154811015610bf157600061387460ca600060d185815481106137e2576137e261461d565b60009182526020808320919091015473ffffffffffffffffffffffffffffffffffffffff90811684528382019490945260409283018220835160608101855281548152600190910154948516918101919091527401000000000000000000000000000000000000000090930460ff1615159183019190915260d45460d1805460ca93929081106135eb576135eb61461d565b13156138805760d48190555b8061388a8161464c565b9150506137bc565b60606108d773ffffffffffffffffffffffffffffffffffffffff831660145b606060006138c08360026146f9565b6138cb90600261460a565b67ffffffffffffffff8111156138e3576138e361429d565b6040519080825280601f01601f19166020018201604052801561390d576020820181803683370190505b5090507f3000000000000000000000000000000000000000000000000000000000000000816000815181106139445761394461461d565b60200101907effffffffffffffffffffffffffffffffffffffffffffffffffffffffffffff1916908160001a9053507f7800000000000000000000000000000000000000000000000000000000000000816001815181106139a7576139a761461d565b60200101907effffffffffffffffffffffffffffffffffffffffffffffffffffffffffffff1916908160001a90535060006139e38460026146f9565b6139ee90600161460a565b90505b6001811115613aa9577f303132333435363738396162636465660000000000000000000000000000000085600f1660108110613a2f57613a2f61461d565b1a7f010000000000000000000000000000000000000000000000000000000000000002828281518110613a6457613a6461461d565b60200101907effffffffffffffffffffffffffffffffffffffffffffffffffffffffffffff1916908160001a905350601090940493613aa281614903565b90506139f1565b5083156116cf576040517f08c379a000000000000000000000000000000000000000000000000000000000815260206004820181905260248201527f537472696e67733a20686578206c656e67746820696e73756666696369656e7460448201526064016109d8565b6000818152600183016020526040812054613b59575081546001818101845560008481526020808220909301849055845484825282860190935260409020919091556108d7565b5060006108d7565b60008181526001830160205260408120548015613c4a576000613b85600183614666565b8554909150600090613b9990600190614666565b9050818114613bfe576000866000018281548110613bb957613bb961461d565b9060005260206000200154905080876000018481548110613bdc57613bdc61461d565b6000918252602080832090910192909255918252600188019052604090208390555b8554869080613c0f57613c0f6146ca565b6001900381819060005260206000200160009055905585600101600086815260200190815260200160002060009055600193505050506108d7565b60009150506108d7565b613c5d81612e98565b60405173ffffffffffffffffffffffffffffffffffffffff8216907fbc7cd75a20ee27fd9adebab32041f755214dbc6bffa90cc0225b39da2e5c2d3b90600090a250565b60606116cf838360405180606001604052806027815260200161493760279139613e1f565b81548290613cd690600190614666565b81548110613ce657613ce661461d565b9060005260206000200160009054906101000a900473ffffffffffffffffffffffffffffffffffffffff16828281548110613d2357613d2361461d565b9060005260206000200160006101000a81548173ffffffffffffffffffffffffffffffffffffffff021916908373ffffffffffffffffffffffffffffffffffffffff16021790555081805480612645576126456146ca565b613d86600143614666565b407f55252fa6eee4741b4e24a74a70e9c11fd2c2281df8d6ea13126ff845f7825c8960d0604051613db7919061454f565b60405180910390a2565b6000816040015115158360400151151514613df1578260400151613de757600019613dea565b60015b90506108d7565b815183511115613e03575060016108d7565b815183511015613e1657506000196108d7565b50600092915050565b60606000808573ffffffffffffffffffffffffffffffffffffffff1685604051613e49919061491a565b600060405180830381855af49150503d8060008114613e84576040519150601f19603f3d011682016040523d82523d6000602084013e613e89565b606091505b5091509150613e9a86838387613ea4565b9695505050505050565b60608315613f3a578251600003613f335773ffffffffffffffffffffffffffffffffffffffff85163b613f33576040517f08c379a000000000000000000000000000000000000000000000000000000000815260206004820152601d60248201527f416464726573733a2063616c6c20746f206e6f6e2d636f6e747261637400000060448201526064016109d8565b5081613f44565b613f448383613f4c565b949350505050565b815115613f5c5781518083602001fd5b806040517f08c379a00000000000000000000000000000000000000000000000000000000081526004016109d891906148f0565b828054828255906000526020600020908101928215613fd05760005260206000209182015b82811115613fd0578254825591600101919060010190613fb5565b50613fdc9291506140fe565b5090565b600283019183908215613fd05791602002820160005b8382111561403d57835183826101000a81548167ffffffffffffffff021916908362ffffff1602179055509260200192600801602081600701049283019260010302613ff6565b80156140715782816101000a81549067ffffffffffffffff021916905560080160208160070104928301926001030261403d565b5050613fdc9291506140fe565b6040518060a001604052806005906020820280368337509192915050565b600283019183908215613fd05791602002820160005b8382111561403d57835183826101000a81548167ffffffffffffffff021916908367ffffffffffffffff16021790555092602001926008016020816007010492830192600103026140b2565b5b80821115613fdc57600081556001016140ff565b60006020828403121561412557600080fd5b81357fffffffff00000000000000000000000000000000000000000000000000000000811681146116cf57600080fd5b73ffffffffffffffffffffffffffffffffffffffff81168114610bf157600080fd5b60006020828403121561418957600080fd5b81356116cf81614155565b6000602082840312156141a657600080fd5b5035919050565b600080604083850312156141c057600080fd5b8235915060208301356141d281614155565b809150509250929050565b6000806000606084860312156141f257600080fd5b83356141fd81614155565b9250602084013591506040840135801515811461421957600080fd5b809150509250925092565b60008060008060008060c0878903121561423d57600080fd5b863561424881614155565b9550602087013561425881614155565b9450604087013561426881614155565b9350606087013561427881614155565b9250608087013561428881614155565b8092505060a087013590509295509295509295565b7f4e487b7100000000000000000000000000000000000000000000000000000000600052604160045260246000fd5b601f19601f830116810181811067ffffffffffffffff821117156142f2576142f261429d565b6040525050565b6000806040838503121561430c57600080fd5b823561431781614155565b915060208381013567ffffffffffffffff8082111561433557600080fd5b818601915086601f83011261434957600080fd5b81358181111561435b5761435b61429d565b604051915061437384601f19601f84011601836142cc565b808252878482850101111561438757600080fd5b80848401858401376000848284010152508093505050509250929050565b6000806000606084860312156143ba57600080fd5b83356143c581614155565b95602085013595506040909401359392505050565b60a08101818360005b600581101561440c57815167ffffffffffffffff168352602092830192909101906001016143e3565b50505092915050565b6000806040838503121561442857600080fd5b50508035926020909101359150565b6020808252825182820181905260009190848201906040850190845b8181101561448557835173ffffffffffffffffffffffffffffffffffffffff1683529284019291840191600101614453565b50909695505050505050565b600080604083850312156144a457600080fd5b82356144af81614155565b946020939093013593505050565b600060a082840312156144cf57600080fd5b82601f8301126144de57600080fd5b60405160a0810167ffffffffffffffff82821081831117156145025761450261429d565b8160405282915060a085018681111561451a57600080fd5b855b8181101561454357803583811681146145355760008081fd5b84526020938401930161451c565b50929695505050505050565b6020808252825482820181905260008481528281209092916040850190845b8181101561448557835473ffffffffffffffffffffffffffffffffffffffff168352600193840193928501920161456e565b7f4e487b7100000000000000000000000000000000000000000000000000000000600052601160045260246000fd5b600082614605577f4e487b7100000000000000000000000000000000000000000000000000000000600052601260045260246000fd5b500490565b808201808211156108d7576108d76145a0565b7f4e487b7100000000000000000000000000000000000000000000000000000000600052603260045260246000fd5b6000600019820361465f5761465f6145a0565b5060010190565b818103818111156108d7576108d76145a0565b60007f800000000000000000000000000000000000000000000000000000000000000082036146aa576146aa6145a0565b5060000390565b6000602082840312156146c357600080fd5b5051919050565b7f4e487b7100000000000000000000000000000000000000000000000000000000600052603160045260246000fd5b80820281158282048414176108d7576108d76145a0565b600060033d11156111f45760046000803e7c010000000000000000000000000000000000000000000000000000000060005104905090565b600060443d10156147565790565b6040517ffffffffffffffffffffffffffffffffffffffffffffffffffffffffffffffffc803d016004833e81513d67ffffffffffffffff81602484011181841117156147a457505050505090565b82850191508151818111156147bc5750505050505090565b843d87010160208285010111156147d65750505050505090565b6147e5602082860101876142cc565b509095945050505050565b60005b8381101561480b5781810151838201526020016147f3565b50506000910152565b6000815180845261482c8160208601602086016147f0565b601f01601f19169290920160200192915050565b73ffffffffffffffffffffffffffffffffffffffff83168152604060208201526000613f446040830184614814565b7f416363657373436f6e74726f6c3a206163636f756e74200000000000000000008152600083516148a78160178501602088016147f0565b7f206973206d697373696e6720726f6c652000000000000000000000000000000060179184019182015283516148e48160288401602088016147f0565b01602801949350505050565b6020815260006116cf6020830184614814565b600081614912576149126145a0565b506000190190565b6000825161492c8184602087016147f0565b919091019291505056fe416464726573733a206c6f772d6c6576656c2064656c65676174652063616c6c206661696c6564a2646970667358221220388a283e61515d985b62e0c7fb4067cfa23f217d96f4579bc8c536554f15ff7d64736f6c63430008110033",
  "deployedBytecode": "",
  "linkReferences": {},
  "deployedLinkReferences": {}
}