{
  "_format": "hh-sol-artifact-1",
  "contractName": "VotingContract",
  "sourceName": "contracts/airdao-voting-contract/Voting-Contract.sol",
  "abi": [
    {
      "inputs": [],
      "stateMutability": "nonpayable",
      "type": "constructor"
    },
    {
      "inputs": [],
      "name": "AccessControlBadConfirmation",
      "type": "error"
    },
    {
      "inputs": [
        {
          "internalType": "address",
          "name": "account",
          "type": "address"
        },
        {
          "internalType": "bytes32",
          "name": "neededRole",
          "type": "bytes32"
        }
      ],
      "name": "AccessControlUnauthorizedAccount",
      "type": "error"
    },
    {
      "inputs": [],
      "name": "InvalidInitialization",
      "type": "error"
    },
    {
      "inputs": [],
      "name": "NotInitializing",
      "type": "error"
    },
    {
      "anonymous": false,
      "inputs": [
        {
          "indexed": false,
          "internalType": "uint64",
          "name": "version",
          "type": "uint64"
        }
      ],
      "name": "Initialized",
      "type": "event"
    },
    {
      "anonymous": false,
      "inputs": [
        {
          "indexed": true,
          "internalType": "address",
          "name": "wallet",
          "type": "address"
        },
        {
          "indexed": false,
          "internalType": "uint256",
          "name": "votingMultiplier",
          "type": "uint256"
        },
        {
          "indexed": true,
          "internalType": "uint256",
          "name": "id",
          "type": "uint256"
        },
        {
          "indexed": false,
          "internalType": "uint256",
          "name": "timestamp",
          "type": "uint256"
        }
      ],
      "name": "RegisterForVote",
      "type": "event"
    },
    {
      "anonymous": false,
      "inputs": [
        {
          "indexed": true,
          "internalType": "bytes32",
          "name": "role",
          "type": "bytes32"
        },
        {
          "indexed": true,
          "internalType": "bytes32",
          "name": "previousAdminRole",
          "type": "bytes32"
        },
        {
          "indexed": true,
          "internalType": "bytes32",
          "name": "newAdminRole",
          "type": "bytes32"
        }
      ],
      "name": "RoleAdminChanged",
      "type": "event"
    },
    {
      "anonymous": false,
      "inputs": [
        {
          "indexed": true,
          "internalType": "bytes32",
          "name": "role",
          "type": "bytes32"
        },
        {
          "indexed": true,
          "internalType": "address",
          "name": "account",
          "type": "address"
        },
        {
          "indexed": true,
          "internalType": "address",
          "name": "sender",
          "type": "address"
        }
      ],
      "name": "RoleGranted",
      "type": "event"
    },
    {
      "anonymous": false,
      "inputs": [
        {
          "indexed": true,
          "internalType": "bytes32",
          "name": "role",
          "type": "bytes32"
        },
        {
          "indexed": true,
          "internalType": "address",
          "name": "account",
          "type": "address"
        },
        {
          "indexed": true,
          "internalType": "address",
          "name": "sender",
          "type": "address"
        }
      ],
      "name": "RoleRevoked",
      "type": "event"
    },
    {
      "anonymous": false,
      "inputs": [
        {
          "indexed": true,
          "internalType": "address",
          "name": "wallet",
          "type": "address"
        },
        {
          "indexed": true,
          "internalType": "uint256",
          "name": "id",
          "type": "uint256"
        },
        {
          "indexed": false,
          "internalType": "uint256",
          "name": "timestamp",
          "type": "uint256"
        }
      ],
      "name": "VotingStart",
      "type": "event"
    },
    {
      "inputs": [],
      "name": "DEFAULT_ADMIN_ROLE",
      "outputs": [
        {
          "internalType": "bytes32",
          "name": "",
          "type": "bytes32"
        }
      ],
      "stateMutability": "view",
      "type": "function"
    },
    {
      "inputs": [],
      "name": "DISCUSSION_PERIOD",
      "outputs": [
        {
          "internalType": "uint256",
          "name": "",
          "type": "uint256"
        }
      ],
      "stateMutability": "view",
      "type": "function"
    },
    {
      "inputs": [],
      "name": "REGISTRATION_PERIOD",
      "outputs": [
        {
          "internalType": "uint256",
          "name": "",
          "type": "uint256"
        }
      ],
      "stateMutability": "view",
      "type": "function"
    },
    {
      "inputs": [],
      "name": "VOTING_MODERATOR_ROLE",
      "outputs": [
        {
          "internalType": "bytes32",
          "name": "",
          "type": "bytes32"
        }
      ],
      "stateMutability": "view",
      "type": "function"
    },
    {
      "inputs": [],
      "name": "VOTING_PERIOD",
      "outputs": [
        {
          "internalType": "uint256",
          "name": "",
          "type": "uint256"
        }
      ],
      "stateMutability": "view",
      "type": "function"
    },
    {
      "inputs": [
        {
          "internalType": "address",
          "name": "wallet",
          "type": "address"
        }
      ],
      "name": "computeUserVotingMultiplierByWallet",
      "outputs": [
        {
          "internalType": "uint256",
          "name": "",
          "type": "uint256"
        }
      ],
      "stateMutability": "view",
      "type": "function"
    },
    {
      "inputs": [
        {
          "internalType": "address",
          "name": "wallet",
          "type": "address"
        }
      ],
      "name": "computeUserVotingPowerByWallet",
      "outputs": [
        {
          "internalType": "uint256",
          "name": "",
          "type": "uint256"
        }
      ],
      "stateMutability": "view",
      "type": "function"
    },
    {
      "inputs": [],
      "name": "getActiveVoting",
      "outputs": [
        {
          "internalType": "uint256",
          "name": "",
          "type": "uint256"
        },
        {
          "internalType": "uint256",
          "name": "",
          "type": "uint256"
        },
        {
          "internalType": "uint256",
          "name": "",
          "type": "uint256"
        },
        {
          "internalType": "uint256",
          "name": "",
          "type": "uint256"
        }
      ],
      "stateMutability": "view",
      "type": "function"
    },
    {
      "inputs": [
        {
          "internalType": "address",
          "name": "wallet",
          "type": "address"
        }
      ],
      "name": "getApplicationStateByWallet",
      "outputs": [
        {
          "components": [
            {
              "internalType": "uint256",
              "name": "originalVotingMultiplier",
              "type": "uint256"
            },
            {
              "internalType": "uint256",
              "name": "timestamp",
              "type": "uint256"
            },
            {
              "internalType": "uint256",
              "name": "actualVotingMultiplier",
              "type": "uint256"
            }
          ],
          "internalType": "struct VotingContract.ApplicationState",
          "name": "",
          "type": "tuple"
        }
      ],
      "stateMutability": "view",
      "type": "function"
    },
    {
      "inputs": [],
      "name": "getNumberOfAttendees",
      "outputs": [
        {
          "internalType": "uint256",
          "name": "",
          "type": "uint256"
        }
      ],
      "stateMutability": "view",
      "type": "function"
    },
    {
      "inputs": [
        {
          "internalType": "bytes32",
          "name": "role",
          "type": "bytes32"
        }
      ],
      "name": "getRoleAdmin",
      "outputs": [
        {
          "internalType": "bytes32",
          "name": "",
          "type": "bytes32"
        }
      ],
      "stateMutability": "view",
      "type": "function"
    },
    {
      "inputs": [
        {
          "internalType": "bytes32",
          "name": "role",
          "type": "bytes32"
        },
        {
          "internalType": "uint256",
          "name": "index",
          "type": "uint256"
        }
      ],
      "name": "getRoleMember",
      "outputs": [
        {
          "internalType": "address",
          "name": "",
          "type": "address"
        }
      ],
      "stateMutability": "view",
      "type": "function"
    },
    {
      "inputs": [
        {
          "internalType": "bytes32",
          "name": "role",
          "type": "bytes32"
        }
      ],
      "name": "getRoleMemberCount",
      "outputs": [
        {
          "internalType": "uint256",
          "name": "",
          "type": "uint256"
        }
      ],
      "stateMutability": "view",
      "type": "function"
    },
    {
      "inputs": [],
      "name": "getTotalVotingMultiplier",
      "outputs": [
        {
          "internalType": "uint256",
          "name": "",
          "type": "uint256"
        }
      ],
      "stateMutability": "view",
      "type": "function"
    },
    {
      "inputs": [
        {
          "internalType": "bytes32",
          "name": "role",
          "type": "bytes32"
        },
        {
          "internalType": "address",
          "name": "account",
          "type": "address"
        }
      ],
      "name": "grantRole",
      "outputs": [],
      "stateMutability": "nonpayable",
      "type": "function"
    },
    {
      "inputs": [
        {
          "internalType": "bytes32",
          "name": "role",
          "type": "bytes32"
        },
        {
          "internalType": "address",
          "name": "account",
          "type": "address"
        }
      ],
      "name": "hasRole",
      "outputs": [
        {
          "internalType": "bool",
          "name": "",
          "type": "bool"
        }
      ],
      "stateMutability": "view",
      "type": "function"
    },
    {
      "inputs": [],
      "name": "initialize",
      "outputs": [],
      "stateMutability": "nonpayable",
      "type": "function"
    },
    {
      "inputs": [],
      "name": "listSBT",
      "outputs": [
        {
          "internalType": "address[]",
          "name": "",
          "type": "address[]"
        }
      ],
      "stateMutability": "view",
      "type": "function"
    },
    {
      "inputs": [],
      "name": "register",
      "outputs": [],
      "stateMutability": "nonpayable",
      "type": "function"
    },
    {
      "inputs": [
        {
          "internalType": "address",
          "name": "wallet",
          "type": "address"
        }
      ],
      "name": "registerByWallet",
      "outputs": [],
      "stateMutability": "nonpayable",
      "type": "function"
    },
    {
      "inputs": [
        {
          "internalType": "address",
          "name": "sbtContract",
          "type": "address"
        }
      ],
      "name": "registerSBT",
      "outputs": [],
      "stateMutability": "nonpayable",
      "type": "function"
    },
    {
      "inputs": [
        {
          "internalType": "bytes32",
          "name": "role",
          "type": "bytes32"
        },
        {
          "internalType": "address",
          "name": "callerConfirmation",
          "type": "address"
        }
      ],
      "name": "renounceRole",
      "outputs": [],
      "stateMutability": "nonpayable",
      "type": "function"
    },
    {
      "inputs": [
        {
          "internalType": "bytes32",
          "name": "role",
          "type": "bytes32"
        },
        {
          "internalType": "address",
          "name": "account",
          "type": "address"
        }
      ],
      "name": "revokeRole",
      "outputs": [],
      "stateMutability": "nonpayable",
      "type": "function"
    },
    {
      "inputs": [],
      "name": "startVoting",
      "outputs": [],
      "stateMutability": "nonpayable",
      "type": "function"
    },
    {
      "inputs": [
        {
          "internalType": "bytes4",
          "name": "interfaceId",
          "type": "bytes4"
        }
      ],
      "name": "supportsInterface",
      "outputs": [
        {
          "internalType": "bool",
          "name": "",
          "type": "bool"
        }
      ],
      "stateMutability": "view",
      "type": "function"
    },
    {
      "inputs": [
        {
          "internalType": "address",
          "name": "sbtContract",
          "type": "address"
        }
      ],
      "name": "unregisterSBT",
      "outputs": [],
      "stateMutability": "nonpayable",
      "type": "function"
    }
  ],
  "bytecode": "0x60806040523480156200001157600080fd5b50620000256401000000006200002b810204565b62000114565b600062000040640100000000620000f0810204565b805490915068010000000000000000900460ff16156200008c576040517ff92ee8a900000000000000000000000000000000000000000000000000000000815260040160405180910390fd5b80546001604060020a0390811614620000ed57805467ffffffffffffffff19166001604060020a0390811782556040519081527fc7f505b2f371ae2175ee4913f4499e1f2633a7b5936321eed1cdaeb6115181d29060200160405180910390a15b50565b7ff0c57e16840df040f15088dc2f81fe391c3923bec73e23a9662efc9c229c6a0090565b61202280620001246000396000f3fe608060405234801561001057600080fd5b50600436106101cb576000357c0100000000000000000000000000000000000000000000000000000000900480639010d07c1161010b578063ae13d502116100b4578063ca15c8731161008e578063ca15c8731461042c578063d547741f1461043f578063e0f5409714610452578063ed27841e1461045a57600080fd5b8063ae13d502146103e4578063b1610d7e1461026d578063c3c0bc68146103f757600080fd5b8063a0fb79e1116100e5578063a0fb79e1146103ac578063a217fddf146103d4578063a9bf1441146103dc57600080fd5b80639010d07c146102fc57806390841a571461033457806391d148541461034757600080fd5b80632f2ff15d116101785780633aab6af2116101525780633aab6af2146102a55780633fee7b0d146102b8578063471487bf146102df5780638129fc1c146102f457600080fd5b80632f2ff15d1461027757806332ce7c0a1461028a57806336568abe1461029257600080fd5b80631ec6b60a116101a95780631ec6b60a14610223578063248a9ca31461022b578063255dd6d01461026d57600080fd5b806301ffc9a7146101d057806307d0a9a4146101f85780631aa3a00814610219575b600080fd5b6101e36101de366004611d54565b61046d565b60405190151581526020015b60405180910390f35b61020b610206366004611dba565b6104c9565b6040519081526020016101ef565b61022161066b565b005b610221610843565b61020b610239366004611dd5565b60009081527f02dd7bc7dec4dceedda775e58dd541e08a116c6c53815c0bd028192f7b626800602052604090206001015490565b61020b62093a8081565b610221610285366004611dee565b610a22565b61020b610a6c565b6102216102a0366004611dee565b610b12565b6102216102b3366004611dba565b610b70565b61020b7fa2e8fe7c00f159dc6d97ca8f61c83aa484a94b4677735133e05a1d3cf58ac69181565b6102e7610c61565b6040516101ef9190611e1a565b610221610c72565b61030f61030a366004611e74565b610df4565b60405173ffffffffffffffffffffffffffffffffffffffff90911681526020016101ef565b610221610342366004611dba565b610e35565b6101e3610355366004611dee565b60009182527f02dd7bc7dec4dceedda775e58dd541e08a116c6c53815c0bd028192f7b6268006020908152604080842073ffffffffffffffffffffffffffffffffffffffff93909316845291905290205460ff1690565b6103b461103c565b6040805194855260208501939093529183015260608201526080016101ef565b61020b600081565b61020b6110f8565b61020b6103f2366004611dba565b61119e565b61040a610405366004611dba565b61127c565b60408051825181526020808401519082015291810151908201526060016101ef565b61020b61043a366004611dd5565b611453565b61022161044d366004611dee565b61148b565b61020b607881565b610221610468366004611dba565b6114cf565b60007fffffffff0000000000000000000000000000000000000000000000000000000082167f5a05180f0000000000000000000000000000000000000000000000000000000014806104c357506104c3826115ba565b92915050565b60006003546000148061050257504262093a808060786003546104ec9190611ec5565b6104f69190611ec5565b6105009190611ec5565b115b61056d576040517f08c379a000000000000000000000000000000000000000000000000000000000815260206004820152601c60248201527f566f74696e6720697320656e646564206f72206e6f742065786973740000000060448201526064015b60405180910390fd5b816002546000141580156105a7575060025473ffffffffffffffffffffffffffffffffffffffff8216600090815260066020526040902054145b61060d576040517f08c379a000000000000000000000000000000000000000000000000000000000815260206004820152601560248201527f4170706c69636174696f6e206e6f7420666f756e6400000000000000000000006044820152606401610564565b6004546000036106205760009150610665565b60045473ffffffffffffffffffffffffffffffffffffffff841660009081526006602052604090206001015461065890612710611ed8565b6106629190611eef565b91505b50919050565b6002541580159061068d57506002543360009081526006602052604090205414155b6106f3576040517f08c379a000000000000000000000000000000000000000000000000000000000815260206004820152601860248201527f526567697374726174696f6e206e6f7420616c6c6f77656400000000000000006044820152606401610564565b600354158061072857504262093a808060786003546107129190611ec5565b61071c9190611ec5565b6107269190611ec5565b115b61078e576040517f08c379a000000000000000000000000000000000000000000000000000000000815260206004820152601c60248201527f566f74696e6720697320656e646564206f72206e6f74206578697374000000006044820152606401610564565b600254431180156107ac575060786003546107a99190611ec5565b42105b610838576040517f08c379a000000000000000000000000000000000000000000000000000000000815260206004820152602260248201527f526567697374726174696f6e206469646e2774207374617274206f7220656e6460448201527f65640000000000000000000000000000000000000000000000000000000000006064820152608401610564565b61084133611651565b565b3360009081527fd899505834629eb300e74c720bc2ccfa64c67750c977fb28a4698835213ef6c8602052604090205460ff16806108ae57503360009081527fb7db2dd08fcb62d0c9e08c51941cae53c267786a0b75803fb7960902fc8ef97d602052604090205460ff165b610914576040517f08c379a000000000000000000000000000000000000000000000000000000000815260206004820152600e60248201527f4e6f7420617574686f72697a65640000000000000000000000000000000000006044820152606401610564565b600354158061094957504262093a808060786003546109339190611ec5565b61093d9190611ec5565b6109479190611ec5565b105b6109d5576040517f08c379a000000000000000000000000000000000000000000000000000000000815260206004820152602260248201527f50726576696f757320766f74696e672069736e27742066696e6973686564207960448201527f65740000000000000000000000000000000000000000000000000000000000006064820152608401610564565b6000600581905560045543600281905542600381905560405190815233907f95aa2fa75c76a0a973620913a4440ac1cc6d1146df09a8433ac7bb7dbb3c60169060200160405180910390a3565b60008281527f02dd7bc7dec4dceedda775e58dd541e08a116c6c53815c0bd028192f7b6268006020526040902060010154610a5c816117a8565b610a6683836117b2565b50505050565b600060035460001480610aa557504262093a80806078600354610a8f9190611ec5565b610a999190611ec5565b610aa39190611ec5565b115b610b0b576040517f08c379a000000000000000000000000000000000000000000000000000000000815260206004820152601c60248201527f566f74696e6720697320656e646564206f72206e6f74206578697374000000006044820152606401610564565b5060045490565b73ffffffffffffffffffffffffffffffffffffffff81163314610b61576040517f6697b23200000000000000000000000000000000000000000000000000000000815260040160405180910390fd5b610b6b8282611809565b505050565b3360009081527fd899505834629eb300e74c720bc2ccfa64c67750c977fb28a4698835213ef6c8602052604090205460ff1680610bdb57503360009081527fb7db2dd08fcb62d0c9e08c51941cae53c267786a0b75803fb7960902fc8ef97d602052604090205460ff165b610c41576040517f08c379a000000000000000000000000000000000000000000000000000000000815260206004820152600e60248201527f4e6f7420617574686f72697a65640000000000000000000000000000000000006044820152606401610564565b610c4c600082611857565b15610c5e57610c5c600082611889565b505b50565b6060610c6d60006118ab565b905090565b7ff0c57e16840df040f15088dc2f81fe391c3923bec73e23a9662efc9c229c6a00805468010000000000000000810460ff16159067ffffffffffffffff16600081158015610cbd5750825b905060008267ffffffffffffffff166001148015610cda5750303b155b905081158015610ce8575080155b15610d1f576040517ff92ee8a900000000000000000000000000000000000000000000000000000000815260040160405180910390fd5b84547fffffffffffffffffffffffffffffffffffffffffffffffff00000000000000001660011785558315610d805784547fffffffffffffffffffffffffffffffffffffffffffffff00ffffffffffffffff16680100000000000000001785555b610d8b6000336117b2565b508315610ded5784547fffffffffffffffffffffffffffffffffffffffffffffff00ffffffffffffffff168555604051600181527fc7f505b2f371ae2175ee4913f4499e1f2633a7b5936321eed1cdaeb6115181d29060200160405180910390a15b5050505050565b60008281527fc1f6fe24621ce81ec5827caf0253cadb74709b061630e6b55e82371705932000602081905260408220610e2d90846118b8565b949350505050565b6003541580610e6a57504262093a80806078600354610e549190611ec5565b610e5e9190611ec5565b610e689190611ec5565b115b610ed0576040517f08c379a000000000000000000000000000000000000000000000000000000000815260206004820152601c60248201527f566f74696e6720697320656e646564206f72206e6f74206578697374000000006044820152606401610564565b3360009081527fd899505834629eb300e74c720bc2ccfa64c67750c977fb28a4698835213ef6c8602052604090205460ff1680610f3b57503360009081527fb7db2dd08fcb62d0c9e08c51941cae53c267786a0b75803fb7960902fc8ef97d602052604090205460ff165b610fa1576040517f08c379a000000000000000000000000000000000000000000000000000000000815260206004820152600e60248201527f4e6f7420617574686f72697a65640000000000000000000000000000000000006044820152606401610564565b60025443118015610fcd575062093a806078600354610fc09190611ec5565b610fca9190611ec5565b42105b611033576040517f08c379a000000000000000000000000000000000000000000000000000000000815260206004820181905260248201527f44697363757373696f6e206469646e2774207374617274206f7220656e6465646044820152606401610564565b610c5e81611651565b60008060008060035460001415801561107b57504262093a808060786003546110659190611ec5565b61106f9190611ec5565b6110799190611ec5565b115b6110e1576040517f08c379a000000000000000000000000000000000000000000000000000000000815260206004820152601060248201527f4e6f2061637469766520766f74696e67000000000000000000000000000000006044820152606401610564565b505060025460035460055460045492959194509250565b60006003546000148061113157504262093a8080607860035461111b9190611ec5565b6111259190611ec5565b61112f9190611ec5565b115b611197576040517f08c379a000000000000000000000000000000000000000000000000000000000815260206004820152601c60248201527f566f74696e6720697320656e646564206f72206e6f74206578697374000000006044820152606401610564565b5060055490565b60008060005b6111ae60006118c4565b8110156112755760006111c181836118b8565b6040517f90fdd58900000000000000000000000000000000000000000000000000000000815273ffffffffffffffffffffffffffffffffffffffff8781166004830152919250908216906390fdd58990602401602060405180830381865afa158015611231573d6000803e3d6000fd5b505050506040513d601f19601f820116820180604052508101906112559190611f2a565b61125f9084611ec5565b925050808061126d90611f43565b9150506111a4565b5092915050565b6112a060405180606001604052806000815260200160008152602001600081525090565b60035415806112d557504262093a808060786003546112bf9190611ec5565b6112c99190611ec5565b6112d39190611ec5565b115b61133b576040517f08c379a000000000000000000000000000000000000000000000000000000000815260206004820152601c60248201527f566f74696e6720697320656e646564206f72206e6f74206578697374000000006044820152606401610564565b60025473ffffffffffffffffffffffffffffffffffffffff8316600090815260066020526040902054146113f1576040517f08c379a000000000000000000000000000000000000000000000000000000000815260206004820152602360248201527f526567697374726174696f6e206170706c69636174696f6e206e6f7420666f7560448201527f6e642100000000000000000000000000000000000000000000000000000000006064820152608401610564565b60006113fc8361119e565b6040805160608101825273ffffffffffffffffffffffffffffffffffffffff86166000818152600660208181528583206001810154865293909252815260029091015490820152908101919091529150505b919050565b60008181527fc1f6fe24621ce81ec5827caf0253cadb74709b061630e6b55e82371705932000602081905260408220610662906118c4565b60008281527f02dd7bc7dec4dceedda775e58dd541e08a116c6c53815c0bd028192f7b62680060205260409020600101546114c5816117a8565b610a668383611809565b3360009081527fd899505834629eb300e74c720bc2ccfa64c67750c977fb28a4698835213ef6c8602052604090205460ff168061153a57503360009081527fb7db2dd08fcb62d0c9e08c51941cae53c267786a0b75803fb7960902fc8ef97d602052604090205460ff165b6115a0576040517f08c379a000000000000000000000000000000000000000000000000000000000815260206004820152600e60248201527f4e6f7420617574686f72697a65640000000000000000000000000000000000006044820152606401610564565b6115ab600082611857565b610c5e57610c5c6000826118ce565b60007fffffffff0000000000000000000000000000000000000000000000000000000082167f7965db0b0000000000000000000000000000000000000000000000000000000014806104c357507f01ffc9a7000000000000000000000000000000000000000000000000000000007fffffffff000000000000000000000000000000000000000000000000000000008316146104c3565b600061165c8261119e565b60025473ffffffffffffffffffffffffffffffffffffffff841660009081526006602052604090205491925014611718576001600560008282546116a09190611ec5565b909155505060025473ffffffffffffffffffffffffffffffffffffffff831660008181526006602052604090819020839055517f4a778a55dda751a74b53652e5f419d81d1f93e6fd527a5546d9fd153839bbfe39061170b9085904290918252602082015260400190565b60405180910390a361175a565b73ffffffffffffffffffffffffffffffffffffffff82166000908152600660205260408120600101546004805491929091611754908490611f7b565b90915550505b806004600082825461176c9190611ec5565b909155505073ffffffffffffffffffffffffffffffffffffffff9091166000908152600660205260409020600181019190915542600290910155565b610c5e81336118f0565b60007fc1f6fe24621ce81ec5827caf0253cadb74709b061630e6b55e82371705932000816117e08585611997565b90508015610e2d57600085815260208390526040902061180090856118ce565b50949350505050565b60007fc1f6fe24621ce81ec5827caf0253cadb74709b061630e6b55e82371705932000816118378585611ab8565b90508015610e2d5760008581526020839052604090206118009085611889565b73ffffffffffffffffffffffffffffffffffffffff8116600090815260018301602052604081205415155b9392505050565b60006118828373ffffffffffffffffffffffffffffffffffffffff8416611b96565b6060600061188283611c7f565b60006118828383611cdb565b60006104c3825490565b60006118828373ffffffffffffffffffffffffffffffffffffffff8416611d05565b60008281527f02dd7bc7dec4dceedda775e58dd541e08a116c6c53815c0bd028192f7b6268006020908152604080832073ffffffffffffffffffffffffffffffffffffffff8516845290915290205460ff16610c5c576040517fe2517d3f00000000000000000000000000000000000000000000000000000000815273ffffffffffffffffffffffffffffffffffffffff8216600482015260248101839052604401610564565b60008281527f02dd7bc7dec4dceedda775e58dd541e08a116c6c53815c0bd028192f7b6268006020818152604080842073ffffffffffffffffffffffffffffffffffffffff8616855290915282205460ff16611aae5760008481526020828152604080832073ffffffffffffffffffffffffffffffffffffffff87168452909152902080547fffffffffffffffffffffffffffffffffffffffffffffffffffffffffffffff00166001179055611a4a3390565b73ffffffffffffffffffffffffffffffffffffffff168373ffffffffffffffffffffffffffffffffffffffff16857f2f8788117e7eff1d82e926ec794901d17c78024a50270940304540a733656f0d60405160405180910390a460019150506104c3565b60009150506104c3565b60008281527f02dd7bc7dec4dceedda775e58dd541e08a116c6c53815c0bd028192f7b6268006020818152604080842073ffffffffffffffffffffffffffffffffffffffff8616855290915282205460ff1615611aae5760008481526020828152604080832073ffffffffffffffffffffffffffffffffffffffff8716808552925280832080547fffffffffffffffffffffffffffffffffffffffffffffffffffffffffffffff0016905551339287917ff6391f5c32d9c69d2a47ea670b442974b53935d1edc7fd64eb21e047a839171b9190a460019150506104c3565b60008181526001830160205260408120548015611aae576000611bba600183611f7b565b8554909150600090611bce90600190611f7b565b9050808214611c33576000866000018281548110611bee57611bee611f8e565b9060005260206000200154905080876000018481548110611c1157611c11611f8e565b6000918252602080832090910192909255918252600188019052604090208390555b8554869080611c4457611c44611fbd565b6001900381819060005260206000200160009055905585600101600086815260200190815260200160002060009055600193505050506104c3565b606081600001805480602002602001604051908101604052809291908181526020018280548015611ccf57602002820191906000526020600020905b815481526020019060010190808311611cbb575b50505050509050919050565b6000826000018281548110611cf257611cf2611f8e565b9060005260206000200154905092915050565b6000818152600183016020526040812054611d4c575081546001818101845560008481526020808220909301849055845484825282860190935260409020919091556104c3565b5060006104c3565b600060208284031215611d6657600080fd5b81357fffffffff000000000000000000000000000000000000000000000000000000008116811461188257600080fd5b803573ffffffffffffffffffffffffffffffffffffffff8116811461144e57600080fd5b600060208284031215611dcc57600080fd5b61188282611d96565b600060208284031215611de757600080fd5b5035919050565b60008060408385031215611e0157600080fd5b82359150611e1160208401611d96565b90509250929050565b6020808252825182820181905260009190848201906040850190845b81811015611e6857835173ffffffffffffffffffffffffffffffffffffffff1683529284019291840191600101611e36565b50909695505050505050565b60008060408385031215611e8757600080fd5b50508035926020909101359150565b7f4e487b7100000000000000000000000000000000000000000000000000000000600052601160045260246000fd5b808201808211156104c3576104c3611e96565b80820281158282048414176104c3576104c3611e96565b600082611f25577f4e487b7100000000000000000000000000000000000000000000000000000000600052601260045260246000fd5b500490565b600060208284031215611f3c57600080fd5b5051919050565b60007fffffffffffffffffffffffffffffffffffffffffffffffffffffffffffffffff8203611f7457611f74611e96565b5060010190565b818103818111156104c3576104c3611e96565b7f4e487b7100000000000000000000000000000000000000000000000000000000600052603260045260246000fd5b7f4e487b7100000000000000000000000000000000000000000000000000000000600052603160045260246000fdfea26469706673582212204801c008b7dd9d8eb47b391ce282ca131320728b42b780257f41a6b4569e3fc464736f6c63430008140033",
  "linkReferences": {},
  "deployedLinkReferences": {}
}