{
  "_format": "hh-sol-artifact-1",
  "contractName": "HumanSBT",
  "sourceName": "contracts/airdao-human-sbt/Human-SBT.sol",
  "abi": [
    {
      "inputs": [],
      "stateMutability": "nonpayable",
      "type": "constructor"
    },
    {
      "inputs": [],
      "name": "AccessControlBadConfirmation",
      "type": "error"
    },
    {
      "inputs": [
        {
          "internalType": "address",
          "name": "account",
          "type": "address"
        },
        {
          "internalType": "bytes32",
          "name": "neededRole",
          "type": "bytes32"
        }
      ],
      "name": "AccessControlUnauthorizedAccount",
      "type": "error"
    },
    {
      "inputs": [],
      "name": "InvalidInitialization",
      "type": "error"
    },
    {
      "inputs": [],
      "name": "NotInitializing",
      "type": "error"
    },
    {
      "anonymous": false,
      "inputs": [
        {
          "indexed": false,
          "internalType": "uint64",
          "name": "version",
          "type": "uint64"
        }
      ],
      "name": "Initialized",
      "type": "event"
    },
    {
      "anonymous": false,
      "inputs": [
        {
          "indexed": true,
          "internalType": "bytes32",
          "name": "role",
          "type": "bytes32"
        },
        {
          "indexed": true,
          "internalType": "bytes32",
          "name": "previousAdminRole",
          "type": "bytes32"
        },
        {
          "indexed": true,
          "internalType": "bytes32",
          "name": "newAdminRole",
          "type": "bytes32"
        }
      ],
      "name": "RoleAdminChanged",
      "type": "event"
    },
    {
      "anonymous": false,
      "inputs": [
        {
          "indexed": true,
          "internalType": "bytes32",
          "name": "role",
          "type": "bytes32"
        },
        {
          "indexed": true,
          "internalType": "address",
          "name": "account",
          "type": "address"
        },
        {
          "indexed": true,
          "internalType": "address",
          "name": "sender",
          "type": "address"
        }
      ],
      "name": "RoleGranted",
      "type": "event"
    },
    {
      "anonymous": false,
      "inputs": [
        {
          "indexed": true,
          "internalType": "bytes32",
          "name": "role",
          "type": "bytes32"
        },
        {
          "indexed": true,
          "internalType": "address",
          "name": "account",
          "type": "address"
        },
        {
          "indexed": true,
          "internalType": "address",
          "name": "sender",
          "type": "address"
        }
      ],
      "name": "RoleRevoked",
      "type": "event"
    },
    {
      "anonymous": false,
      "inputs": [
        {
          "indexed": true,
          "internalType": "address",
          "name": "userWallet",
          "type": "address"
        }
      ],
      "name": "SBTBurn",
      "type": "event"
    },
    {
      "anonymous": false,
      "inputs": [
        {
          "indexed": true,
          "internalType": "address",
          "name": "userWallet",
          "type": "address"
        },
        {
          "indexed": false,
          "internalType": "uint256",
          "name": "userId",
          "type": "uint256"
        },
        {
          "indexed": false,
          "internalType": "uint256",
          "name": "expiresAt",
          "type": "uint256"
        }
      ],
      "name": "SBTMint",
      "type": "event"
    },
    {
      "inputs": [],
      "name": "DEFAULT_ADMIN_ROLE",
      "outputs": [
        {
          "internalType": "bytes32",
          "name": "",
          "type": "bytes32"
        }
      ],
      "stateMutability": "view",
      "type": "function"
    },
    {
      "inputs": [],
      "name": "ISSUER_ROLE",
      "outputs": [
        {
          "internalType": "bytes32",
          "name": "",
          "type": "bytes32"
        }
      ],
      "stateMutability": "view",
      "type": "function"
    },
    {
      "inputs": [
        {
          "internalType": "bytes32",
          "name": "role",
          "type": "bytes32"
        }
      ],
      "name": "getRoleAdmin",
      "outputs": [
        {
          "internalType": "bytes32",
          "name": "",
          "type": "bytes32"
        }
      ],
      "stateMutability": "view",
      "type": "function"
    },
    {
      "inputs": [
        {
          "internalType": "bytes32",
          "name": "role",
          "type": "bytes32"
        },
        {
          "internalType": "uint256",
          "name": "index",
          "type": "uint256"
        }
      ],
      "name": "getRoleMember",
      "outputs": [
        {
          "internalType": "address",
          "name": "",
          "type": "address"
        }
      ],
      "stateMutability": "view",
      "type": "function"
    },
    {
      "inputs": [
        {
          "internalType": "bytes32",
          "name": "role",
          "type": "bytes32"
        }
      ],
      "name": "getRoleMemberCount",
      "outputs": [
        {
          "internalType": "uint256",
          "name": "",
          "type": "uint256"
        }
      ],
      "stateMutability": "view",
      "type": "function"
    },
    {
      "inputs": [
        {
          "internalType": "bytes32",
          "name": "role",
          "type": "bytes32"
        },
        {
          "internalType": "address",
          "name": "account",
          "type": "address"
        }
      ],
      "name": "grantRole",
      "outputs": [],
      "stateMutability": "nonpayable",
      "type": "function"
    },
    {
      "inputs": [
        {
          "internalType": "bytes32",
          "name": "role",
          "type": "bytes32"
        },
        {
          "internalType": "address",
          "name": "account",
          "type": "address"
        }
      ],
      "name": "hasRole",
      "outputs": [
        {
          "internalType": "bool",
          "name": "",
          "type": "bool"
        }
      ],
      "stateMutability": "view",
      "type": "function"
    },
    {
      "inputs": [],
      "name": "initialize",
      "outputs": [],
      "stateMutability": "nonpayable",
      "type": "function"
    },
    {
      "inputs": [
        {
          "internalType": "bytes32",
          "name": "role",
          "type": "bytes32"
        },
        {
          "internalType": "address",
          "name": "callerConfirmation",
          "type": "address"
        }
      ],
      "name": "renounceRole",
      "outputs": [],
      "stateMutability": "nonpayable",
      "type": "function"
    },
    {
      "inputs": [
        {
          "internalType": "bytes32",
          "name": "role",
          "type": "bytes32"
        },
        {
          "internalType": "address",
          "name": "account",
          "type": "address"
        }
      ],
      "name": "revokeRole",
      "outputs": [],
      "stateMutability": "nonpayable",
      "type": "function"
    },
    {
      "inputs": [
        {
          "internalType": "address",
          "name": "userWallet",
          "type": "address"
        }
      ],
      "name": "sbtBurn",
      "outputs": [],
      "stateMutability": "nonpayable",
      "type": "function"
    },
    {
      "inputs": [
        {
          "internalType": "address",
          "name": "userWallet",
          "type": "address"
        }
      ],
      "name": "sbtExists",
      "outputs": [
        {
          "internalType": "bool",
          "name": "",
          "type": "bool"
        }
      ],
      "stateMutability": "view",
      "type": "function"
    },
    {
      "inputs": [
        {
          "internalType": "address",
          "name": "userWallet",
          "type": "address"
        },
        {
          "internalType": "uint256",
          "name": "userId",
          "type": "uint256"
        },
        {
          "internalType": "uint256",
          "name": "expiresAt",
          "type": "uint256"
        }
      ],
      "name": "sbtMint",
      "outputs": [],
      "stateMutability": "nonpayable",
      "type": "function"
    },
    {
      "inputs": [
        {
          "internalType": "address",
          "name": "userWallet",
          "type": "address"
        }
      ],
      "name": "sbtVerify",
      "outputs": [
        {
          "internalType": "uint256",
          "name": "",
          "type": "uint256"
        },
        {
          "internalType": "uint256",
          "name": "",
          "type": "uint256"
        }
      ],
      "stateMutability": "view",
      "type": "function"
    },
    {
      "inputs": [
        {
          "internalType": "bytes4",
          "name": "interfaceId",
          "type": "bytes4"
        }
      ],
      "name": "supportsInterface",
      "outputs": [
        {
          "internalType": "bool",
          "name": "",
          "type": "bool"
        }
      ],
      "stateMutability": "view",
      "type": "function"
    },
    {
      "inputs": [],
      "name": "totalSupply",
      "outputs": [
        {
          "internalType": "uint256",
          "name": "",
          "type": "uint256"
        }
      ],
      "stateMutability": "view",
      "type": "function"
    }
  ],
  "bytecode": "0x608060405234801561001057600080fd5b50610022640100000000610027810204565b61010c565b600061003a6401000000006100e8810204565b805490915068010000000000000000900460ff1615610085576040517ff92ee8a900000000000000000000000000000000000000000000000000000000815260040160405180910390fd5b80546001604060020a03908116146100e557805467ffffffffffffffff19166001604060020a0390811782556040519081527fc7f505b2f371ae2175ee4913f4499e1f2633a7b5936321eed1cdaeb6115181d29060200160405180910390a15b50565b7ff0c57e16840df040f15088dc2f81fe391c3923bec73e23a9662efc9c229c6a0090565b6114448061011b6000396000f3fe608060405234801561001057600080fd5b506004361061011d576000357c0100000000000000000000000000000000000000000000000000000000900480639010d07c116100b4578063ca15c87311610083578063ca15c873146102e8578063d547741f146102fb578063eac70dfc1461030e578063ee6ff81a1461032157600080fd5b80639010d07c1461023057806391d1485414610268578063a217fddf146102cd578063a9a76ee2146102d557600080fd5b80632f2ff15d116100f05780632f2ff15d146101d957806336568abe146101ee5780638129fc1c1461020157806382aefa241461020957600080fd5b806301ffc9a7146101225780630f6d50dc1461014a57806318160ddd14610185578063248a9ca314610197575b600080fd5b61013561013036600461123b565b610349565b60405190151581526020015b60405180910390f35b6101356101583660046112a6565b73ffffffffffffffffffffffffffffffffffffffff16600090815260208190526040902060010154421090565b6002545b604051908152602001610141565b6101896101a53660046112c1565b60009081527f02dd7bc7dec4dceedda775e58dd541e08a116c6c53815c0bd028192f7b626800602052604090206001015490565b6101ec6101e73660046112da565b6103a5565b005b6101ec6101fc3660046112da565b6103ef565b6101ec61044d565b6101897f114e74f6ea3bd819998f78687bfcb11b140da08e9b7d222fa9c1f1ba1f2aa12281565b61024361023e366004611306565b6105d5565b60405173ffffffffffffffffffffffffffffffffffffffff9091168152602001610141565b6101356102763660046112da565b60009182527f02dd7bc7dec4dceedda775e58dd541e08a116c6c53815c0bd028192f7b6268006020908152604080842073ffffffffffffffffffffffffffffffffffffffff93909316845291905290205460ff1690565b610189600081565b6101ec6102e3366004611328565b610616565b6101896102f63660046112c1565b61097e565b6101ec6103093660046112da565b6109bd565b6101ec61031c3660046112a6565b610a01565b61033461032f3660046112a6565b610bbc565b60408051928352602083019190915201610141565b60007fffffffff0000000000000000000000000000000000000000000000000000000082167f5a05180f00000000000000000000000000000000000000000000000000000000148061039f575061039f82610c90565b92915050565b60008281527f02dd7bc7dec4dceedda775e58dd541e08a116c6c53815c0bd028192f7b62680060205260409020600101546103df81610d27565b6103e98383610d34565b50505050565b73ffffffffffffffffffffffffffffffffffffffff8116331461043e576040517f6697b23200000000000000000000000000000000000000000000000000000000815260040160405180910390fd5b6104488282610d8b565b505050565b7ff0c57e16840df040f15088dc2f81fe391c3923bec73e23a9662efc9c229c6a00805468010000000000000000810460ff16159067ffffffffffffffff166000811580156104985750825b905060008267ffffffffffffffff1660011480156104b55750303b155b9050811580156104c3575080155b156104fa576040517ff92ee8a900000000000000000000000000000000000000000000000000000000815260040160405180910390fd5b84547fffffffffffffffffffffffffffffffffffffffffffffffff0000000000000000166001178555831561055b5784547fffffffffffffffffffffffffffffffffffffffffffffff00ffffffffffffffff16680100000000000000001785555b6000600281905561056c9033610d34565b5083156105ce5784547fffffffffffffffffffffffffffffffffffffffffffffff00ffffffffffffffff168555604051600181527fc7f505b2f371ae2175ee4913f4499e1f2633a7b5936321eed1cdaeb6115181d29060200160405180910390a15b5050505050565b60008281527fc1f6fe24621ce81ec5827caf0253cadb74709b061630e6b55e8237170593200060208190526040822061060e9084610dd9565b949350505050565b7f114e74f6ea3bd819998f78687bfcb11b140da08e9b7d222fa9c1f1ba1f2aa12261064081610d27565b6000838152600160205260409020548490849073ffffffffffffffffffffffffffffffffffffffff16801561072f578273ffffffffffffffffffffffffffffffffffffffff168173ffffffffffffffffffffffffffffffffffffffff161461072f576040517f08c379a000000000000000000000000000000000000000000000000000000000815260206004820152602d60248201527f55736572206973207265737472696374656420746f2068617665206f6e6c792060448201527f6f6e652048756d616e205342540000000000000000000000000000000000000060648201526084015b60405180910390fd5b73ffffffffffffffffffffffffffffffffffffffff831660009081526020819052604090206001015480156108915773ffffffffffffffffffffffffffffffffffffffff8216610801576040517f08c379a000000000000000000000000000000000000000000000000000000000815260206004820152602f60248201527f57616c6c6574206164647265737320697320616c726561647920626f756e642060448201527f746f20616e6f74686572207573657200000000000000000000000000000000006064820152608401610726565b42811115610891576040517f08c379a000000000000000000000000000000000000000000000000000000000815260206004820152602360248201527f4e6f6e2d657870697265642048756d616e2053425420616c726561647920657860448201527f69737400000000000000000000000000000000000000000000000000000000006064820152608401610726565b73ffffffffffffffffffffffffffffffffffffffff881660009081526020819052604081206001015490036108d9576001600260008282546108d3919061138a565b90915550505b600087815260016020818152604080842080547fffffffffffffffffffffffff00000000000000000000000000000000000000001673ffffffffffffffffffffffffffffffffffffffff8e16908117909155808552848352938190208b815590920189905581518a81529081018990527f7efd1fdc36af3ae119c49a2ddba3c75949ee847b4babb45f7337c6315d846adb910160405180910390a25050505050505050565b60008181527fc1f6fe24621ce81ec5827caf0253cadb74709b061630e6b55e823717059320006020819052604082206109b690610de5565b9392505050565b60008281527f02dd7bc7dec4dceedda775e58dd541e08a116c6c53815c0bd028192f7b62680060205260409020600101546109f781610d27565b6103e98383610d8b565b3360009081527fecfb03a241cc67499591701273c9840824101e710aea92d3ca0339671f5c64c0602052604090205460ff1680610a6c57503360009081527fb7db2dd08fcb62d0c9e08c51941cae53c267786a0b75803fb7960902fc8ef97d602052604090205460ff165b610ad2576040517f08c379a000000000000000000000000000000000000000000000000000000000815260206004820152600e60248201527f4e6f7420617574686f72697a65640000000000000000000000000000000000006044820152606401610726565b73ffffffffffffffffffffffffffffffffffffffff81166000908152602081905260409020548015610bb85773ffffffffffffffffffffffffffffffffffffffff8216600090815260208181526040808320838155600190810184905584845291829052822080547fffffffffffffffffffffffff00000000000000000000000000000000000000001690556002805491929091610b7190849061139d565b909155505060405173ffffffffffffffffffffffffffffffffffffffff8316907fb37cf8eece8b5e64575d707079155f564741a1a9523c32d65196063452c4065b90600090a25b5050565b73ffffffffffffffffffffffffffffffffffffffff811660009081526020819052604081206001015481904210610c4f576040517f08c379a000000000000000000000000000000000000000000000000000000000815260206004820152601860248201527f5342542065787069726564206f72206e6f7420657869737400000000000000006044820152606401610726565b73ffffffffffffffffffffffffffffffffffffffff831660009081526020819052604090208054600190910154610c8790429061139d565b91509150915091565b60007fffffffff0000000000000000000000000000000000000000000000000000000082167f7965db0b00000000000000000000000000000000000000000000000000000000148061039f57507f01ffc9a7000000000000000000000000000000000000000000000000000000007fffffffff0000000000000000000000000000000000000000000000000000000083161461039f565b610d318133610def565b50565b60007fc1f6fe24621ce81ec5827caf0253cadb74709b061630e6b55e8237170593200081610d628585610e96565b9050801561060e576000858152602083905260409020610d829085610fb7565b50949350505050565b60007fc1f6fe24621ce81ec5827caf0253cadb74709b061630e6b55e8237170593200081610db98585610fd9565b9050801561060e576000858152602083905260409020610d8290856110b7565b60006109b683836110d9565b600061039f825490565b60008281527f02dd7bc7dec4dceedda775e58dd541e08a116c6c53815c0bd028192f7b6268006020908152604080832073ffffffffffffffffffffffffffffffffffffffff8516845290915290205460ff16610bb8576040517fe2517d3f00000000000000000000000000000000000000000000000000000000815273ffffffffffffffffffffffffffffffffffffffff8216600482015260248101839052604401610726565b60008281527f02dd7bc7dec4dceedda775e58dd541e08a116c6c53815c0bd028192f7b6268006020818152604080842073ffffffffffffffffffffffffffffffffffffffff8616855290915282205460ff16610fad5760008481526020828152604080832073ffffffffffffffffffffffffffffffffffffffff87168452909152902080547fffffffffffffffffffffffffffffffffffffffffffffffffffffffffffffff00166001179055610f493390565b73ffffffffffffffffffffffffffffffffffffffff168373ffffffffffffffffffffffffffffffffffffffff16857f2f8788117e7eff1d82e926ec794901d17c78024a50270940304540a733656f0d60405160405180910390a4600191505061039f565b600091505061039f565b60006109b68373ffffffffffffffffffffffffffffffffffffffff8416611103565b60008281527f02dd7bc7dec4dceedda775e58dd541e08a116c6c53815c0bd028192f7b6268006020818152604080842073ffffffffffffffffffffffffffffffffffffffff8616855290915282205460ff1615610fad5760008481526020828152604080832073ffffffffffffffffffffffffffffffffffffffff8716808552925280832080547fffffffffffffffffffffffffffffffffffffffffffffffffffffffffffffff0016905551339287917ff6391f5c32d9c69d2a47ea670b442974b53935d1edc7fd64eb21e047a839171b9190a4600191505061039f565b60006109b68373ffffffffffffffffffffffffffffffffffffffff8416611152565b60008260000182815481106110f0576110f06113b0565b9060005260206000200154905092915050565b600081815260018301602052604081205461114a5750815460018181018455600084815260208082209093018490558454848252828601909352604090209190915561039f565b50600061039f565b60008181526001830160205260408120548015610fad57600061117660018361139d565b855490915060009061118a9060019061139d565b90508082146111ef5760008660000182815481106111aa576111aa6113b0565b90600052602060002001549050808760000184815481106111cd576111cd6113b0565b6000918252602080832090910192909255918252600188019052604090208390555b8554869080611200576112006113df565b60019003818190600052602060002001600090559055856001016000868152602001908152602001600020600090556001935050505061039f565b60006020828403121561124d57600080fd5b81357fffffffff00000000000000000000000000000000000000000000000000000000811681146109b657600080fd5b803573ffffffffffffffffffffffffffffffffffffffff811681146112a157600080fd5b919050565b6000602082840312156112b857600080fd5b6109b68261127d565b6000602082840312156112d357600080fd5b5035919050565b600080604083850312156112ed57600080fd5b823591506112fd6020840161127d565b90509250929050565b6000806040838503121561131957600080fd5b50508035926020909101359150565b60008060006060848603121561133d57600080fd5b6113468461127d565b95602085013595506040909401359392505050565b7f4e487b7100000000000000000000000000000000000000000000000000000000600052601160045260246000fd5b8082018082111561039f5761039f61135b565b8181038181111561039f5761039f61135b565b7f4e487b7100000000000000000000000000000000000000000000000000000000600052603260045260246000fd5b7f4e487b7100000000000000000000000000000000000000000000000000000000600052603160045260246000fdfea26469706673582212206e29fa83dfc4cb699a111e8c1a609f22cccf9280aea531f9acfc9ddcaa68cff764736f6c63430008140033",
  "linkReferences": {},
  "deployedLinkReferences": {}
}