{
  "_format": "hh-sol-artifact-1",
  "contractName": "HumanSBTIssuer",
  "sourceName": "contracts/airdao-sbt-issuer/Human-SBT-Issuer.sol",
  "abi": [
    {
      "inputs": [],
      "stateMutability": "nonpayable",
      "type": "constructor"
    },
    {
      "inputs": [],
      "name": "AccessControlBadConfirmation",
      "type": "error"
    },
    {
      "inputs": [
        {
          "internalType": "address",
          "name": "account",
          "type": "address"
        },
        {
          "internalType": "bytes32",
          "name": "neededRole",
          "type": "bytes32"
        }
      ],
      "name": "AccessControlUnauthorizedAccount",
      "type": "error"
    },
    {
      "anonymous": false,
      "inputs": [
        {
          "indexed": true,
          "internalType": "bytes32",
          "name": "role",
          "type": "bytes32"
        },
        {
          "indexed": true,
          "internalType": "bytes32",
          "name": "previousAdminRole",
          "type": "bytes32"
        },
        {
          "indexed": true,
          "internalType": "bytes32",
          "name": "newAdminRole",
          "type": "bytes32"
        }
      ],
      "name": "RoleAdminChanged",
      "type": "event"
    },
    {
      "anonymous": false,
      "inputs": [
        {
          "indexed": true,
          "internalType": "bytes32",
          "name": "role",
          "type": "bytes32"
        },
        {
          "indexed": true,
          "internalType": "address",
          "name": "account",
          "type": "address"
        },
        {
          "indexed": true,
          "internalType": "address",
          "name": "sender",
          "type": "address"
        }
      ],
      "name": "RoleGranted",
      "type": "event"
    },
    {
      "anonymous": false,
      "inputs": [
        {
          "indexed": true,
          "internalType": "bytes32",
          "name": "role",
          "type": "bytes32"
        },
        {
          "indexed": true,
          "internalType": "address",
          "name": "account",
          "type": "address"
        },
        {
          "indexed": true,
          "internalType": "address",
          "name": "sender",
          "type": "address"
        }
      ],
      "name": "RoleRevoked",
      "type": "event"
    },
    {
      "inputs": [],
      "name": "DEFAULT_ADMIN_ROLE",
      "outputs": [
        {
          "internalType": "bytes32",
          "name": "",
          "type": "bytes32"
        }
      ],
      "stateMutability": "view",
      "type": "function"
    },
    {
      "inputs": [],
      "name": "HUNDRED_YEARS_IN_SECONDS",
      "outputs": [
        {
          "internalType": "uint256",
          "name": "",
          "type": "uint256"
        }
      ],
      "stateMutability": "view",
      "type": "function"
    },
    {
      "inputs": [],
      "name": "SIGN_PROVIDER_ROLE",
      "outputs": [
        {
          "internalType": "bytes32",
          "name": "",
          "type": "bytes32"
        }
      ],
      "stateMutability": "view",
      "type": "function"
    },
    {
      "inputs": [
        {
          "internalType": "bytes32",
          "name": "role",
          "type": "bytes32"
        }
      ],
      "name": "getRoleAdmin",
      "outputs": [
        {
          "internalType": "bytes32",
          "name": "",
          "type": "bytes32"
        }
      ],
      "stateMutability": "view",
      "type": "function"
    },
    {
      "inputs": [
        {
          "internalType": "bytes32",
          "name": "role",
          "type": "bytes32"
        },
        {
          "internalType": "address",
          "name": "account",
          "type": "address"
        }
      ],
      "name": "grantRole",
      "outputs": [],
      "stateMutability": "nonpayable",
      "type": "function"
    },
    {
      "inputs": [
        {
          "internalType": "bytes32",
          "name": "role",
          "type": "bytes32"
        },
        {
          "internalType": "address",
          "name": "account",
          "type": "address"
        }
      ],
      "name": "hasRole",
      "outputs": [
        {
          "internalType": "bool",
          "name": "",
          "type": "bool"
        }
      ],
      "stateMutability": "view",
      "type": "function"
    },
    {
      "inputs": [
        {
          "internalType": "bytes32",
          "name": "role",
          "type": "bytes32"
        },
        {
          "internalType": "address",
          "name": "callerConfirmation",
          "type": "address"
        }
      ],
      "name": "renounceRole",
      "outputs": [],
      "stateMutability": "nonpayable",
      "type": "function"
    },
    {
      "inputs": [
        {
          "internalType": "bytes32",
          "name": "role",
          "type": "bytes32"
        },
        {
          "internalType": "address",
          "name": "account",
          "type": "address"
        }
      ],
      "name": "revokeRole",
      "outputs": [],
      "stateMutability": "nonpayable",
      "type": "function"
    },
    {
      "inputs": [
        {
          "internalType": "address",
          "name": "sbtAddress",
          "type": "address"
        },
        {
          "internalType": "address",
          "name": "userWallet",
          "type": "address"
        }
      ],
      "name": "sbtBurn",
      "outputs": [],
      "stateMutability": "nonpayable",
      "type": "function"
    },
    {
      "inputs": [
        {
          "internalType": "address",
          "name": "sbtAddress",
          "type": "address"
        },
        {
          "internalType": "bytes",
          "name": "signedData",
          "type": "bytes"
        },
        {
          "internalType": "uint8",
          "name": "v",
          "type": "uint8"
        },
        {
          "internalType": "bytes32",
          "name": "r",
          "type": "bytes32"
        },
        {
          "internalType": "bytes32",
          "name": "s",
          "type": "bytes32"
        }
      ],
      "name": "sbtMint",
      "outputs": [],
      "stateMutability": "payable",
      "type": "function"
    },
    {
      "inputs": [
        {
          "internalType": "bytes4",
          "name": "interfaceId",
          "type": "bytes4"
        }
      ],
      "name": "supportsInterface",
      "outputs": [
        {
          "internalType": "bool",
          "name": "",
          "type": "bool"
        }
      ],
      "stateMutability": "view",
      "type": "function"
    }
  ],
  "bytecode": "0x608060405234801561001057600080fd5b5061002560003364010000000061002b810204565b506100ff565b600061004083836401000000006100d2810204565b6100c857600083815260208181526040808320600160a060020a03861684529091529020805460ff191660011790556100806401000000006100fb810204565b600160a060020a031682600160a060020a0316847f2f8788117e7eff1d82e926ec794901d17c78024a50270940304540a733656f0d60405160405180910390a45060016100cc565b5060005b92915050565b600091825260208281526040808420600160a060020a0393909316845291905290205460ff1690565b3390565b610ce08061010e6000396000f3fe6080604052600436106100d9576000357c010000000000000000000000000000000000000000000000000000000090048063787d188311610091578063a217fddf1161006b578063a217fddf14610243578063c5cf354114610258578063d547741f1461027857600080fd5b8063787d1883146101c757806380d0fc59146101da57806391d14854146101f257600080fd5b80632f2ff15d116100c25780632f2ff15d1461015157806336568abe14610173578063722060c01461019357600080fd5b806301ffc9a7146100de578063248a9ca314610113575b600080fd5b3480156100ea57600080fd5b506100fe6100f9366004610a40565b610298565b60405190151581526020015b60405180910390f35b34801561011f57600080fd5b5061014361012e366004610a89565b60009081526020819052604090206001015490565b60405190815260200161010a565b34801561015d57600080fd5b5061017161016c366004610ac4565b610331565b005b34801561017f57600080fd5b5061017161018e366004610ac4565b61035c565b34801561019f57600080fd5b506101437f88995461c3666bafd97271603dc3f82a16a8eb07fb58bc9e4e7b5df768de569081565b6101716101d5366004610b39565b6103ba565b3480156101e657600080fd5b5061014363bbf81e0081565b3480156101fe57600080fd5b506100fe61020d366004610ac4565b60009182526020828152604080842073ffffffffffffffffffffffffffffffffffffffff93909316845291905290205460ff1690565b34801561024f57600080fd5b50610143600081565b34801561026457600080fd5b50610171610273366004610c3d565b6105ec565b34801561028457600080fd5b50610171610293366004610ac4565b61067d565b60007fffffffff0000000000000000000000000000000000000000000000000000000082167f7965db0b00000000000000000000000000000000000000000000000000000000148061032b57507f01ffc9a7000000000000000000000000000000000000000000000000000000007fffffffff000000000000000000000000000000000000000000000000000000008316145b92915050565b60008281526020819052604090206001015461034c816106a2565b61035683836106af565b50505050565b73ffffffffffffffffffffffffffffffffffffffff811633146103ab576040517f6697b23200000000000000000000000000000000000000000000000000000000815260040160405180910390fd5b6103b582826107ab565b505050565b6103c684848484610866565b600080600080878060200190518101906103e09190610c6b565b93509350935093503373ffffffffffffffffffffffffffffffffffffffff168473ffffffffffffffffffffffffffffffffffffffff1614610482576040517f08c379a000000000000000000000000000000000000000000000000000000000815260206004820152601660248201527f53656e646572206973206e6f742076657269666965640000000000000000000060448201526064015b60405180910390fd5b4282116104eb576040517f08c379a000000000000000000000000000000000000000000000000000000000815260206004820152600f60248201527f52657175657374206578706972656400000000000000000000000000000000006044820152606401610479565b428111610554576040517f08c379a000000000000000000000000000000000000000000000000000000000815260206004820152600b60248201527f53425420657870697265640000000000000000000000000000000000000000006044820152606401610479565b6040517fa9a76ee2000000000000000000000000000000000000000000000000000000008152336004820152602481018490526044810182905273ffffffffffffffffffffffffffffffffffffffff8a169063a9a76ee290606401600060405180830381600087803b1580156105c957600080fd5b505af11580156105dd573d6000803e3d6000fd5b50505050505050505050505050565b60006105f7816106a2565b6040517feac70dfc00000000000000000000000000000000000000000000000000000000815273ffffffffffffffffffffffffffffffffffffffff838116600483015284169063eac70dfc90602401600060405180830381600087803b15801561066057600080fd5b505af1158015610674573d6000803e3d6000fd5b50505050505050565b600082815260208190526040902060010154610698816106a2565b61035683836107ab565b6106ac81336109b6565b50565b60008281526020818152604080832073ffffffffffffffffffffffffffffffffffffffff8516845290915281205460ff166107a35760008381526020818152604080832073ffffffffffffffffffffffffffffffffffffffff86168452909152902080547fffffffffffffffffffffffffffffffffffffffffffffffffffffffffffffff001660011790556107413390565b73ffffffffffffffffffffffffffffffffffffffff168273ffffffffffffffffffffffffffffffffffffffff16847f2f8788117e7eff1d82e926ec794901d17c78024a50270940304540a733656f0d60405160405180910390a450600161032b565b50600061032b565b60008281526020818152604080832073ffffffffffffffffffffffffffffffffffffffff8516845290915281205460ff16156107a35760008381526020818152604080832073ffffffffffffffffffffffffffffffffffffffff8616808552925280832080547fffffffffffffffffffffffffffffffffffffffffffffffffffffffffffffff0016905551339286917ff6391f5c32d9c69d2a47ea670b442974b53935d1edc7fd64eb21e047a839171b9190a450600161032b565b6000848051906020012090506000600182868686604051600081526020016040526040516108b0949392919093845260ff9290921660208401526040830152606082015260800190565b6020604051602081039080840390855afa1580156108d2573d6000803e3d6000fd5b5050604080517fffffffffffffffffffffffffffffffffffffffffffffffffffffffffffffffe0015173ffffffffffffffffffffffffffffffffffffffff811660009081527f09c7edd8a5587578ee0d751400bb6bf998545702574afa4cfdfb19e153417af0602052919091205490925060ff1690506109ae576040517f08c379a000000000000000000000000000000000000000000000000000000000815260206004820152600d60248201527f496e76616c696420696e707574000000000000000000000000000000000000006044820152606401610479565b505050505050565b60008281526020818152604080832073ffffffffffffffffffffffffffffffffffffffff8516845290915290205460ff16610a3c576040517fe2517d3f00000000000000000000000000000000000000000000000000000000815273ffffffffffffffffffffffffffffffffffffffff8216600482015260248101839052604401610479565b5050565b600060208284031215610a5257600080fd5b81357fffffffff0000000000000000000000000000000000000000000000000000000081168114610a8257600080fd5b9392505050565b600060208284031215610a9b57600080fd5b5035919050565b73ffffffffffffffffffffffffffffffffffffffff811681146106ac57600080fd5b60008060408385031215610ad757600080fd5b823591506020830135610ae981610aa2565b809150509250929050565b7f4e487b7100000000000000000000000000000000000000000000000000000000600052604160045260246000fd5b803560ff81168114610b3457600080fd5b919050565b600080600080600060a08688031215610b5157600080fd5b8535610b5c81610aa2565b9450602086013567ffffffffffffffff80821115610b7957600080fd5b818801915088601f830112610b8d57600080fd5b813581811115610b9f57610b9f610af4565b604051601f82017fffffffffffffffffffffffffffffffffffffffffffffffffffffffffffffffe0908116603f01168101908382118183101715610be557610be5610af4565b816040528281528b6020848701011115610bfe57600080fd5b826020860160208301376000602084830101528098505050505050610c2560408701610b23565b94979396509394606081013594506080013592915050565b60008060408385031215610c5057600080fd5b8235610c5b81610aa2565b91506020830135610ae981610aa2565b60008060008060808587031215610c8157600080fd5b8451610c8c81610aa2565b6020860151604087015160609097015191989097509094509250505056fea2646970667358221220533b8176b3ee37fc93c3c2838bf713624af2e7bc6c2f6298479f05be5ce62f4164736f6c63430008140033",
  "linkReferences": {},
  "deployedLinkReferences": {}
}