{
  "_format": "hh-sol-artifact-1",
  "contractName": "LockKeeper",
  "sourceName": "contracts/LockKeeper.sol",
  "abi": [
    {
      "anonymous": false,
      "inputs": [
        {
          "indexed": false,
          "internalType": "address",
          "name": "previousAdmin",
          "type": "address"
        },
        {
          "indexed": false,
          "internalType": "address",
          "name": "newAdmin",
          "type": "address"
        }
      ],
      "name": "AdminChanged",
      "type": "event"
    },
    {
      "anonymous": false,
      "inputs": [
        {
          "indexed": true,
          "internalType": "address",
          "name": "beacon",
          "type": "address"
        }
      ],
      "name": "BeaconUpgraded",
      "type": "event"
    },
    {
      "anonymous": false,
      "inputs": [
        {
          "indexed": true,
          "internalType": "uint256",
          "name": "lockId",
          "type": "uint256"
        },
        {
          "indexed": true,
          "internalType": "address",
          "name": "userAddress",
          "type": "address"
        },
        {
          "indexed": false,
          "internalType": "uint256",
          "name": "amount",
          "type": "uint256"
        }
      ],
      "name": "Claim",
      "type": "event"
    },
    {
      "anonymous": false,
      "inputs": [
        {
          "indexed": false,
          "internalType": "uint8",
          "name": "version",
          "type": "uint8"
        }
      ],
      "name": "Initialized",
      "type": "event"
    },
    {
      "anonymous": false,
      "inputs": [
        {
          "indexed": true,
          "internalType": "uint256",
          "name": "lockId",
          "type": "uint256"
        },
        {
          "indexed": false,
          "internalType": "uint256",
          "name": "canceledAmount",
          "type": "uint256"
        }
      ],
      "name": "LockCanceled",
      "type": "event"
    },
    {
      "anonymous": false,
      "inputs": [
        {
          "indexed": true,
          "internalType": "uint256",
          "name": "lockId",
          "type": "uint256"
        },
        {
          "indexed": true,
          "internalType": "address",
          "name": "receiver",
          "type": "address"
        },
        {
          "indexed": true,
          "internalType": "address",
          "name": "token",
          "type": "address"
        },
        {
          "indexed": false,
          "internalType": "address",
          "name": "locker",
          "type": "address"
        },
        {
          "indexed": false,
          "internalType": "uint64",
          "name": "lockTime",
          "type": "uint64"
        },
        {
          "indexed": false,
          "internalType": "uint64",
          "name": "firstUnlockTime",
          "type": "uint64"
        },
        {
          "indexed": false,
          "internalType": "uint64",
          "name": "unlockPeriod",
          "type": "uint64"
        },
        {
          "indexed": false,
          "internalType": "uint64",
          "name": "totalClaims",
          "type": "uint64"
        },
        {
          "indexed": false,
          "internalType": "uint256",
          "name": "intervalAmount",
          "type": "uint256"
        },
        {
          "indexed": false,
          "internalType": "string",
          "name": "description",
          "type": "string"
        }
      ],
      "name": "Locked",
      "type": "event"
    },
    {
      "anonymous": false,
      "inputs": [
        {
          "indexed": true,
          "internalType": "bytes32",
          "name": "role",
          "type": "bytes32"
        },
        {
          "indexed": true,
          "internalType": "bytes32",
          "name": "previousAdminRole",
          "type": "bytes32"
        },
        {
          "indexed": true,
          "internalType": "bytes32",
          "name": "newAdminRole",
          "type": "bytes32"
        }
      ],
      "name": "RoleAdminChanged",
      "type": "event"
    },
    {
      "anonymous": false,
      "inputs": [
        {
          "indexed": true,
          "internalType": "bytes32",
          "name": "role",
          "type": "bytes32"
        },
        {
          "indexed": true,
          "internalType": "address",
          "name": "account",
          "type": "address"
        },
        {
          "indexed": true,
          "internalType": "address",
          "name": "sender",
          "type": "address"
        }
      ],
      "name": "RoleGranted",
      "type": "event"
    },
    {
      "anonymous": false,
      "inputs": [
        {
          "indexed": true,
          "internalType": "bytes32",
          "name": "role",
          "type": "bytes32"
        },
        {
          "indexed": true,
          "internalType": "address",
          "name": "account",
          "type": "address"
        },
        {
          "indexed": true,
          "internalType": "address",
          "name": "sender",
          "type": "address"
        }
      ],
      "name": "RoleRevoked",
      "type": "event"
    },
    {
      "anonymous": false,
      "inputs": [
        {
          "indexed": true,
          "internalType": "address",
          "name": "implementation",
          "type": "address"
        }
      ],
      "name": "Upgraded",
      "type": "event"
    },
    {
      "inputs": [],
      "name": "DEFAULT_ADMIN_ROLE",
      "outputs": [
        {
          "internalType": "bytes32",
          "name": "",
          "type": "bytes32"
        }
      ],
      "stateMutability": "view",
      "type": "function"
    },
    {
      "inputs": [
        {
          "internalType": "address",
          "name": "user",
          "type": "address"
        }
      ],
      "name": "allUserLocks",
      "outputs": [
        {
          "internalType": "uint256[]",
          "name": "",
          "type": "uint256[]"
        },
        {
          "components": [
            {
              "internalType": "address",
              "name": "locker",
              "type": "address"
            },
            {
              "internalType": "address",
              "name": "receiver",
              "type": "address"
            },
            {
              "internalType": "address",
              "name": "token",
              "type": "address"
            },
            {
              "internalType": "uint64",
              "name": "firstUnlockTime",
              "type": "uint64"
            },
            {
              "internalType": "uint64",
              "name": "unlockPeriod",
              "type": "uint64"
            },
            {
              "internalType": "uint64",
              "name": "totalClaims",
              "type": "uint64"
            },
            {
              "internalType": "uint64",
              "name": "timesClaimed",
              "type": "uint64"
            },
            {
              "internalType": "uint256",
              "name": "intervalAmount",
              "type": "uint256"
            },
            {
              "internalType": "string",
              "name": "description",
              "type": "string"
            }
          ],
          "internalType": "struct LockKeeper.Lock[]",
          "name": "",
          "type": "tuple[]"
        }
      ],
      "stateMutability": "view",
      "type": "function"
    },
    {
      "inputs": [],
      "name": "autoClaim",
      "outputs": [],
      "stateMutability": "nonpayable",
      "type": "function"
    },
    {
      "inputs": [
        {
          "internalType": "uint256",
          "name": "lockId",
          "type": "uint256"
        }
      ],
      "name": "cancelLock",
      "outputs": [
        {
          "internalType": "uint256",
          "name": "unclaimedAmount",
          "type": "uint256"
        }
      ],
      "stateMutability": "nonpayable",
      "type": "function"
    },
    {
      "inputs": [
        {
          "internalType": "uint256",
          "name": "lockId",
          "type": "uint256"
        }
      ],
      "name": "claim",
      "outputs": [],
      "stateMutability": "nonpayable",
      "type": "function"
    },
    {
      "inputs": [],
      "name": "claimAll",
      "outputs": [],
      "stateMutability": "nonpayable",
      "type": "function"
    },
    {
      "inputs": [],
      "name": "getAllLocks",
      "outputs": [
        {
          "components": [
            {
              "internalType": "address",
              "name": "locker",
              "type": "address"
            },
            {
              "internalType": "address",
              "name": "receiver",
              "type": "address"
            },
            {
              "internalType": "address",
              "name": "token",
              "type": "address"
            },
            {
              "internalType": "uint64",
              "name": "firstUnlockTime",
              "type": "uint64"
            },
            {
              "internalType": "uint64",
              "name": "unlockPeriod",
              "type": "uint64"
            },
            {
              "internalType": "uint64",
              "name": "totalClaims",
              "type": "uint64"
            },
            {
              "internalType": "uint64",
              "name": "timesClaimed",
              "type": "uint64"
            },
            {
              "internalType": "uint256",
              "name": "intervalAmount",
              "type": "uint256"
            },
            {
              "internalType": "string",
              "name": "description",
              "type": "string"
            }
          ],
          "internalType": "struct LockKeeper.Lock[]",
          "name": "",
          "type": "tuple[]"
        }
      ],
      "stateMutability": "view",
      "type": "function"
    },
    {
      "inputs": [],
      "name": "getAllLocksIds",
      "outputs": [
        {
          "internalType": "uint256[]",
          "name": "",
          "type": "uint256[]"
        }
      ],
      "stateMutability": "view",
      "type": "function"
    },
    {
      "inputs": [
        {
          "internalType": "uint256",
          "name": "id",
          "type": "uint256"
        }
      ],
      "name": "getLock",
      "outputs": [
        {
          "components": [
            {
              "internalType": "address",
              "name": "locker",
              "type": "address"
            },
            {
              "internalType": "address",
              "name": "receiver",
              "type": "address"
            },
            {
              "internalType": "address",
              "name": "token",
              "type": "address"
            },
            {
              "internalType": "uint64",
              "name": "firstUnlockTime",
              "type": "uint64"
            },
            {
              "internalType": "uint64",
              "name": "unlockPeriod",
              "type": "uint64"
            },
            {
              "internalType": "uint64",
              "name": "totalClaims",
              "type": "uint64"
            },
            {
              "internalType": "uint64",
              "name": "timesClaimed",
              "type": "uint64"
            },
            {
              "internalType": "uint256",
              "name": "intervalAmount",
              "type": "uint256"
            },
            {
              "internalType": "string",
              "name": "description",
              "type": "string"
            }
          ],
          "internalType": "struct LockKeeper.Lock",
          "name": "",
          "type": "tuple"
        }
      ],
      "stateMutability": "view",
      "type": "function"
    },
    {
      "inputs": [
        {
          "internalType": "bytes32",
          "name": "role",
          "type": "bytes32"
        }
      ],
      "name": "getRoleAdmin",
      "outputs": [
        {
          "internalType": "bytes32",
          "name": "",
          "type": "bytes32"
        }
      ],
      "stateMutability": "view",
      "type": "function"
    },
    {
      "inputs": [
        {
          "internalType": "bytes32",
          "name": "role",
          "type": "bytes32"
        },
        {
          "internalType": "address",
          "name": "account",
          "type": "address"
        }
      ],
      "name": "grantRole",
      "outputs": [],
      "stateMutability": "nonpayable",
      "type": "function"
    },
    {
      "inputs": [
        {
          "internalType": "bytes32",
          "name": "role",
          "type": "bytes32"
        },
        {
          "internalType": "address",
          "name": "account",
          "type": "address"
        }
      ],
      "name": "hasRole",
      "outputs": [
        {
          "internalType": "bool",
          "name": "",
          "type": "bool"
        }
      ],
      "stateMutability": "view",
      "type": "function"
    },
    {
      "inputs": [],
      "name": "initialize",
      "outputs": [],
      "stateMutability": "nonpayable",
      "type": "function"
    },
    {
      "inputs": [],
      "name": "latestLockId",
      "outputs": [
        {
          "internalType": "uint256",
          "name": "",
          "type": "uint256"
        }
      ],
      "stateMutability": "view",
      "type": "function"
    },
    {
      "inputs": [
        {
          "internalType": "address",
          "name": "receiver",
          "type": "address"
        },
        {
          "internalType": "address",
          "name": "token",
          "type": "address"
        },
        {
          "internalType": "uint64",
          "name": "firstUnlockTime",
          "type": "uint64"
        },
        {
          "internalType": "uint64",
          "name": "totalClaims",
          "type": "uint64"
        },
        {
          "internalType": "uint64",
          "name": "unlockPeriod",
          "type": "uint64"
        },
        {
          "internalType": "uint256",
          "name": "unlockAmount",
          "type": "uint256"
        },
        {
          "internalType": "string",
          "name": "description",
          "type": "string"
        }
      ],
      "name": "lockLinear",
      "outputs": [
        {
          "internalType": "uint256",
          "name": "",
          "type": "uint256"
        }
      ],
      "stateMutability": "payable",
      "type": "function"
    },
    {
      "inputs": [
        {
          "internalType": "address",
          "name": "receiver",
          "type": "address"
        },
        {
          "internalType": "address",
          "name": "token",
          "type": "address"
        },
        {
          "internalType": "uint64",
          "name": "unlockTime",
          "type": "uint64"
        },
        {
          "internalType": "uint256",
          "name": "amount",
          "type": "uint256"
        },
        {
          "internalType": "string",
          "name": "description",
          "type": "string"
        }
      ],
      "name": "lockSingle",
      "outputs": [
        {
          "internalType": "uint256",
          "name": "",
          "type": "uint256"
        }
      ],
      "stateMutability": "payable",
      "type": "function"
    },
    {
      "inputs": [],
      "name": "onBlock",
      "outputs": [],
      "stateMutability": "nonpayable",
      "type": "function"
    },
    {
      "inputs": [],
      "name": "proxiableUUID",
      "outputs": [
        {
          "internalType": "bytes32",
          "name": "",
          "type": "bytes32"
        }
      ],
      "stateMutability": "view",
      "type": "function"
    },
    {
      "inputs": [
        {
          "internalType": "bytes32",
          "name": "role",
          "type": "bytes32"
        },
        {
          "internalType": "address",
          "name": "account",
          "type": "address"
        }
      ],
      "name": "renounceRole",
      "outputs": [],
      "stateMutability": "nonpayable",
      "type": "function"
    },
    {
      "inputs": [
        {
          "internalType": "bytes32",
          "name": "role",
          "type": "bytes32"
        },
        {
          "internalType": "address",
          "name": "account",
          "type": "address"
        }
      ],
      "name": "revokeRole",
      "outputs": [],
      "stateMutability": "nonpayable",
      "type": "function"
    },
    {
      "inputs": [
        {
          "internalType": "bytes4",
          "name": "interfaceId",
          "type": "bytes4"
        }
      ],
      "name": "supportsInterface",
      "outputs": [
        {
          "internalType": "bool",
          "name": "",
          "type": "bool"
        }
      ],
      "stateMutability": "view",
      "type": "function"
    },
    {
      "inputs": [
        {
          "internalType": "address",
          "name": "newImplementation",
          "type": "address"
        }
      ],
      "name": "upgradeTo",
      "outputs": [],
      "stateMutability": "nonpayable",
      "type": "function"
    },
    {
      "inputs": [
        {
          "internalType": "address",
          "name": "newImplementation",
          "type": "address"
        },
        {
          "internalType": "bytes",
          "name": "data",
          "type": "bytes"
        }
      ],
      "name": "upgradeToAndCall",
      "outputs": [],
      "stateMutability": "payable",
      "type": "function"
    }
  ],
  "bytecode": "0x60a06040523060805234801561001457600080fd5b50608051613c0361004c60003960008181610628015281816106d801528181610de301528181610e930152610fd80152613c036000f3fe60806040526004361061019d576000357c01000000000000000000000000000000000000000000000000000000009004806390a8fe04116100f3578063c70db3231161009c578063d68f4dd111610076578063d68f4dd114610427578063f3c73bd114610454578063ffa2fd021461047457600080fd5b8063c70db323146103dd578063d1058e59146103f2578063d547741f1461040757600080fd5b8063a217fddf116100cd578063a217fddf14610385578063a2a148171461039a578063b72ab6a1146103af57600080fd5b806390a8fe04146102fd57806391d1485414610310578063a0f493f01461036357600080fd5b8063379607f51161015557806352d1902d1161012f57806352d1902d146102bd578063596bd09f146102d25780638129fc1c146102e857600080fd5b8063379607f5146102775780634ac129df146102975780634f1ef286146102aa57600080fd5b80632f2ff15d116101865780632f2ff15d1461021557806336568abe146102375780633659cfe61461025757600080fd5b806301ffc9a7146101a2578063248a9ca3146101d7575b600080fd5b3480156101ae57600080fd5b506101c26101bd3660046131dc565b610496565b60405190151581526020015b60405180910390f35b3480156101e357600080fd5b506102076101f236600461321e565b60009081526065602052604090206001015490565b6040519081526020016101ce565b34801561022157600080fd5b50610235610230366004613260565b61052f565b005b34801561024357600080fd5b50610235610252366004613260565b610559565b34801561026357600080fd5b5061023561027236600461328c565b610611565b34801561028357600080fd5b5061023561029236600461321e565b610816565b6102076102a5366004613384565b610918565b6102356102b836600461341e565b610dcc565b3480156102c957600080fd5b50610207610fbe565b3480156102de57600080fd5b5061020760975481565b3480156102f457600080fd5b506102356110aa565b61020761030b366004613480565b611220565b34801561031c57600080fd5b506101c261032b366004613260565b600091825260656020908152604080842073ffffffffffffffffffffffffffffffffffffffff93909316845291905290205460ff1690565b34801561036f57600080fd5b5061037861123c565b6040516101ce9190613534565b34801561039157600080fd5b50610207600081565b3480156103a657600080fd5b50610235611294565b3480156103bb57600080fd5b506103cf6103ca36600461328c565b61129e565b6040516101ce9291906136ec565b3480156103e957600080fd5b506102356115bc565b3480156103fe57600080fd5b50610235611672565b34801561041357600080fd5b50610235610422366004613260565b6117da565b34801561043357600080fd5b5061044761044236600461321e565b6117ff565b6040516101ce919061371a565b34801561046057600080fd5b5061020761046f36600461321e565b6119ab565b34801561048057600080fd5b50610489611c99565b6040516101ce919061372d565b60007fffffffff0000000000000000000000000000000000000000000000000000000082167f7965db0b00000000000000000000000000000000000000000000000000000000148061052957507f01ffc9a7000000000000000000000000000000000000000000000000000000007fffffffff000000000000000000000000000000000000000000000000000000008316145b92915050565b60008281526065602052604090206001015461054a81611ef4565b6105548383611efe565b505050565b73ffffffffffffffffffffffffffffffffffffffff81163314610603576040517f08c379a000000000000000000000000000000000000000000000000000000000815260206004820152602f60248201527f416363657373436f6e74726f6c3a2063616e206f6e6c792072656e6f756e636560448201527f20726f6c657320666f722073656c66000000000000000000000000000000000060648201526084015b60405180910390fd5b61060d8282611fd4565b5050565b73ffffffffffffffffffffffffffffffffffffffff7f00000000000000000000000000000000000000000000000000000000000000001630036106d6576040517f08c379a000000000000000000000000000000000000000000000000000000000815260206004820152602c60248201527f46756e6374696f6e206d7573742062652063616c6c6564207468726f7567682060448201527f64656c656761746563616c6c000000000000000000000000000000000000000060648201526084016105fa565b7f000000000000000000000000000000000000000000000000000000000000000073ffffffffffffffffffffffffffffffffffffffff1661074b7f360894a13ba1a3210667c828492db98dca3e2076cc3735a920a3ca505d382bbc5473ffffffffffffffffffffffffffffffffffffffff1690565b73ffffffffffffffffffffffffffffffffffffffff16146107ee576040517f08c379a000000000000000000000000000000000000000000000000000000000815260206004820152602c60248201527f46756e6374696f6e206d7573742062652063616c6c6564207468726f7567682060448201527f6163746976652070726f7879000000000000000000000000000000000000000060648201526084016105fa565b6107f781612071565b604080516000808252602082019092526108139183919061207c565b50565b60008181526098602052604090206001015473ffffffffffffffffffffffffffffffffffffffff1633146108a6576040517f08c379a000000000000000000000000000000000000000000000000000000000815260206004820152601960248201527f4c6f636b4b65657065723a206e6f7420796f7572206c6f636b0000000000000060448201526064016105fa565b6108af81612279565b600003610813576040517f08c379a000000000000000000000000000000000000000000000000000000000815260206004820152601e60248201527f4c6f636b4b65657065723a20746f6f206561726c7920746f20636c61696d000060448201526064016105fa565b6000808567ffffffffffffffff16116109b3576040517f08c379a000000000000000000000000000000000000000000000000000000000815260206004820152602360248201527f4c6f636b4b65657065723a20746f74616c436c61696d73206d7573742062652060448201527f3e2030000000000000000000000000000000000000000000000000000000000060648201526084016105fa565b60006109c967ffffffffffffffff87168561376f565b905073ffffffffffffffffffffffffffffffffffffffff8816610a5457803414610a4f576040517f08c379a000000000000000000000000000000000000000000000000000000000815260206004820152601c60248201527f4c6f636b4b65657065723a2077726f6e6720414d4220616d6f756e740000000060448201526064016105fa565b610ade565b3415610abc576040517f08c379a000000000000000000000000000000000000000000000000000000000815260206004820181905260248201527f4c6f636b4b65657065723a2077687920646f20796f752073656e6420414d423f60448201526064016105fa565b610ade73ffffffffffffffffffffffffffffffffffffffff89163330846125de565b6040518061012001604052803373ffffffffffffffffffffffffffffffffffffffff1681526020018a73ffffffffffffffffffffffffffffffffffffffff1681526020018973ffffffffffffffffffffffffffffffffffffffff1681526020018867ffffffffffffffff1681526020018667ffffffffffffffff1681526020018767ffffffffffffffff168152602001600067ffffffffffffffff1681526020018581526020018481525060986000609760008154610b9c90613786565b9182905550815260208082019290925260409081016000208351815473ffffffffffffffffffffffffffffffffffffffff9182167fffffffffffffffffffffffff000000000000000000000000000000000000000091821617835593850151600183018054918316919095161790935590830151600282018054606086015167ffffffffffffffff90811674010000000000000000000000000000000000000000027fffffffff000000000000000000000000000000000000000000000000000000009092169390951692909217919091179055608083015160038201805460a086015160c08701518616700100000000000000000000000000000000027fffffffffffffffff0000000000000000ffffffffffffffffffffffffffffffff91871668010000000000000000027fffffffffffffffffffffffffffffffff00000000000000000000000000000000909316949096169390931717919091169290921790915560e082015160048201556101008201516005820190610d20908261383b565b5050609754609980546001810182556000919091527f72a152ddfb8e864297c917af52ea6c1c68aead0fee1a62673fcc7e0c94979d000181905560405173ffffffffffffffffffffffffffffffffffffffff808c1693508c1691907fedd0ec3f9ab871af1d7226b9beb74db029bdb8a1cfe9115bd6aff3e66f44687390610db490339042908e908d908f908e908e90613901565b60405180910390a45050609754979650505050505050565b73ffffffffffffffffffffffffffffffffffffffff7f0000000000000000000000000000000000000000000000000000000000000000163003610e91576040517f08c379a000000000000000000000000000000000000000000000000000000000815260206004820152602c60248201527f46756e6374696f6e206d7573742062652063616c6c6564207468726f7567682060448201527f64656c656761746563616c6c000000000000000000000000000000000000000060648201526084016105fa565b7f000000000000000000000000000000000000000000000000000000000000000073ffffffffffffffffffffffffffffffffffffffff16610f067f360894a13ba1a3210667c828492db98dca3e2076cc3735a920a3ca505d382bbc5473ffffffffffffffffffffffffffffffffffffffff1690565b73ffffffffffffffffffffffffffffffffffffffff1614610fa9576040517f08c379a000000000000000000000000000000000000000000000000000000000815260206004820152602c60248201527f46756e6374696f6e206d7573742062652063616c6c6564207468726f7567682060448201527f6163746976652070726f7879000000000000000000000000000000000000000060648201526084016105fa565b610fb282612071565b61060d8282600161207c565b60003073ffffffffffffffffffffffffffffffffffffffff7f00000000000000000000000000000000000000000000000000000000000000001614611085576040517f08c379a000000000000000000000000000000000000000000000000000000000815260206004820152603860248201527f555550535570677261646561626c653a206d757374206e6f742062652063616c60448201527f6c6564207468726f7567682064656c656761746563616c6c000000000000000060648201526084016105fa565b507f360894a13ba1a3210667c828492db98dca3e2076cc3735a920a3ca505d382bbc90565b600054610100900460ff16158080156110ca5750600054600160ff909116105b806110e45750303b1580156110e4575060005460ff166001145b611170576040517f08c379a000000000000000000000000000000000000000000000000000000000815260206004820152602e60248201527f496e697469616c697a61626c653a20636f6e747261637420697320616c72656160448201527f647920696e697469616c697a656400000000000000000000000000000000000060648201526084016105fa565b6000805460ff1916600117905580156111b057600080547fffffffffffffffffffffffffffffffffffffffffffffffffffffffffffff00ff166101001790555b6111bb6000336126a2565b801561081357600080547fffffffffffffffffffffffffffffffffffffffffffffffffffffffffffff00ff169055604051600181527f7f26b83ff96e1f2b6a682f133852f6798a09c465da95921460cefb38474024989060200160405180910390a150565b60006112328686866001808888610918565b9695505050505050565b6060609980548060200260200160405190810160405280929190818152602001828054801561128a57602002820191906000526020600020905b815481526020019060010190808311611276575b5050505050905090565b61129c6115bc565b565b606080600060998054905067ffffffffffffffff8111156112c1576112c16132bf565b6040519080825280602002602001820160405280156112ea578160200160208202803683370190505b5060995490915060009067ffffffffffffffff81111561130c5761130c6132bf565b60405190808252806020026020018201604052801561138557816020015b60408051610120810182526000808252602080830182905292820181905260608083018290526080830182905260a0830182905260c0830182905260e0830191909152610100820152825260001990920191018161132a5790505b5090506000805b6099548110156115ac576000609982815481106113ab576113ab61396d565b6000918252602080832090910154808352609890915260409091206001015490915073ffffffffffffffffffffffffffffffffffffffff908116908916146113f3575061159a565b808584815181106114065761140661396d565b602090810291909101810191909152600082815260988252604090819020815161012081018352815473ffffffffffffffffffffffffffffffffffffffff908116825260018301548116948201949094526002820154938416928101929092527401000000000000000000000000000000000000000090920467ffffffffffffffff908116606083015260038301548082166080840152680100000000000000008104821660a084015270010000000000000000000000000000000090041660c0820152600482015460e0820152600582018054919291610100840191906114ed906137a0565b80601f0160208091040260200160405190810160405280929190818152602001828054611519906137a0565b80156115665780601f1061153b57610100808354040283529160200191611566565b820191906000526020600020905b81548152906001019060200180831161154957829003601f168201915b50505050508152505084848061157b90613786565b95508151811061158d5761158d61396d565b6020026020010181905250505b806115a481613786565b91505061138c565b5080835281529094909350915050565b6000609980548060200260200160405190810160405280929190818152602001828054801561160a57602002820191906000526020600020905b8154815260200190600101908083116115f6575b50505050509050600081514361162091906139cb565b90505b815181101561060d576000806116518484815181106116445761164461396d565b6020026020010151612279565b119050801561165f57505050565b508061166a81613786565b915050611623565b600060998054806020026020016040519081016040528092919081815260200182805480156116c057602002820191906000526020600020905b8154815260200190600101908083116116ac575b50505050509050600080600090505b8251811015611772573373ffffffffffffffffffffffffffffffffffffffff16609860008584815181106117055761170561396d565b60209081029190910181015182528101919091526040016000206001015473ffffffffffffffffffffffffffffffffffffffff16036117605760006117558483815181106116445761164461396d565b111561176057600191505b8061176a81613786565b9150506116cf565b508061060d576040517f08c379a000000000000000000000000000000000000000000000000000000000815260206004820152601c60248201527f4c6f636b4b65657065723a206e6f7468696e6720746f20636c61696d0000000060448201526064016105fa565b6000828152606560205260409020600101546117f581611ef4565b6105548383611fd4565b604080516101208101825260008082526020820181905291810182905260608082018390526080820183905260a0820183905260c0820183905260e0820192909252610100810191909152600082815260986020908152604091829020825161012081018452815473ffffffffffffffffffffffffffffffffffffffff908116825260018301548116938201939093526002820154928316938101939093527401000000000000000000000000000000000000000090910467ffffffffffffffff908116606084015260038201548082166080850152680100000000000000008104821660a085015270010000000000000000000000000000000090041660c0830152600481015460e083015260058101805461010084019190611922906137a0565b80601f016020809104026020016040519081016040528092919081815260200182805461194e906137a0565b801561199b5780601f106119705761010080835404028352916020019161199b565b820191906000526020600020905b81548152906001019060200180831161197e57829003601f168201915b5050505050815250509050919050565b6000818152609860209081526040808320815161012081018352815473ffffffffffffffffffffffffffffffffffffffff908116825260018301548116948201949094526002820154938416928101929092527401000000000000000000000000000000000000000090920467ffffffffffffffff908116606083015260038301548082166080840152680100000000000000008104821660a084015270010000000000000000000000000000000090041660c0820152600482015460e0820152600582018054849391610100840191611a84906137a0565b80601f0160208091040260200160405190810160405280929190818152602001828054611ab0906137a0565b8015611afd5780601f10611ad257610100808354040283529160200191611afd565b820191906000526020600020905b815481529060010190602001808311611ae057829003601f168201915b5050505050815250509050806000015173ffffffffffffffffffffffffffffffffffffffff163373ffffffffffffffffffffffffffffffffffffffff1614611bc7576040517f08c379a000000000000000000000000000000000000000000000000000000000815260206004820152602b60248201527f4f6e6c792061646472657373207468617420637265617465206c6f636b20636160448201527f6e2063616e63656c20697400000000000000000000000000000000000000000060648201526084016105fa565b8060e001518160c001518260a00151611be091906139df565b67ffffffffffffffff16611bf4919061376f565b9150611bff836126ac565b827faecc04ce0bf297a72dd6d7e805cdcbbf227ee41b63f2a9ea05d65f7b8a82e93d83604051611c3191815260200190565b60405180910390a2604081015173ffffffffffffffffffffffffffffffffffffffff16611c69578051611c649083612810565b611c93565b80516040820151611c939173ffffffffffffffffffffffffffffffffffffffff90911690846128da565b50919050565b60995460609060009067ffffffffffffffff811115611cba57611cba6132bf565b604051908082528060200260200182016040528015611d3357816020015b60408051610120810182526000808252602080830182905292820181905260608083018290526080830182905260a0830182905260c0830182905260e08301919091526101008201528252600019909201910181611cd85790505b50905060005b609954811015611c93576098600060998381548110611d5a57611d5a61396d565b600091825260208083209091015483528281019390935260409182019020815161012081018352815473ffffffffffffffffffffffffffffffffffffffff9081168252600183015481169482019490945260028201549384169281019290925267ffffffffffffffff740100000000000000000000000000000000000000009093048316606083015260038101548084166080840152680100000000000000008104841660a0840152700100000000000000000000000000000000900490921660c0820152600482015460e082015260058201805491929161010084019190611e42906137a0565b80601f0160208091040260200160405190810160405280929190818152602001828054611e6e906137a0565b8015611ebb5780601f10611e9057610100808354040283529160200191611ebb565b820191906000526020600020905b815481529060010190602001808311611e9e57829003601f168201915b505050505081525050828281518110611ed657611ed661396d565b60200260200101819052508080611eec90613786565b915050611d39565b6108138133612930565b600082815260656020908152604080832073ffffffffffffffffffffffffffffffffffffffff8516845290915290205460ff1661060d57600082815260656020908152604080832073ffffffffffffffffffffffffffffffffffffffff851684529091529020805460ff19166001179055611f763390565b73ffffffffffffffffffffffffffffffffffffffff168173ffffffffffffffffffffffffffffffffffffffff16837f2f8788117e7eff1d82e926ec794901d17c78024a50270940304540a733656f0d60405160405180910390a45050565b600082815260656020908152604080832073ffffffffffffffffffffffffffffffffffffffff8516845290915290205460ff161561060d57600082815260656020908152604080832073ffffffffffffffffffffffffffffffffffffffff85168085529252808320805460ff1916905551339285917ff6391f5c32d9c69d2a47ea670b442974b53935d1edc7fd64eb21e047a839171b9190a45050565b600061060d81611ef4565b7f4910fdfa16fed3260ed0e7147f7cc6da11a60208b5b9406d12a635614ffd91435460ff16156120af57610554836129cc565b8273ffffffffffffffffffffffffffffffffffffffff166352d1902d6040518163ffffffff167c0100000000000000000000000000000000000000000000000000000000028152600401602060405180830381865afa925050508015612132575060408051601f3d908101601f1916820190925261212f91810190613a07565b60015b6121be576040517f08c379a000000000000000000000000000000000000000000000000000000000815260206004820152602e60248201527f45524331393637557067726164653a206e657720696d706c656d656e7461746960448201527f6f6e206973206e6f74205555505300000000000000000000000000000000000060648201526084016105fa565b7f360894a13ba1a3210667c828492db98dca3e2076cc3735a920a3ca505d382bbc811461226d576040517f08c379a000000000000000000000000000000000000000000000000000000000815260206004820152602960248201527f45524331393637557067726164653a20756e737570706f727465642070726f7860448201527f6961626c6555554944000000000000000000000000000000000000000000000060648201526084016105fa565b50610554838383612ad6565b6000818152609860209081526040808320815161012081018352815473ffffffffffffffffffffffffffffffffffffffff908116825260018301548116948201949094526002820154938416928101929092527401000000000000000000000000000000000000000090920467ffffffffffffffff908116606083015260038301548082166080840152680100000000000000008104821660a084015270010000000000000000000000000000000090041660c0820152600482015460e0820152600582018054849391610100840191612352906137a0565b80601f016020809104026020016040519081016040528092919081815260200182805461237e906137a0565b80156123cb5780601f106123a0576101008083540402835291602001916123cb565b820191906000526020600020905b8154815290600101906020018083116123ae57829003601f168201915b50505050508152505090506000429050816060015167ffffffffffffffff168167ffffffffffffffff161015612405575060009392505050565b6000826080015183606001518361241c91906139df565b6124269190613a20565b612431906001613a47565b67ffffffffffffffff1690508260a0015167ffffffffffffffff16811115612464575060a082015167ffffffffffffffff165b60008360e001518460c0015167ffffffffffffffff16836124859190613a68565b61248f919061376f565b9050806000036124a55750600095945050505050565b6040840151602085015160a086015167ffffffffffffffff1684036124d2576124cd886126ac565b612529565b600088815260986020526040902060030180547fffffffffffffffff0000000000000000ffffffffffffffffffffffffffffffff1670010000000000000000000000000000000067ffffffffffffffff8716021790555b856020015173ffffffffffffffffffffffffffffffffffffffff16887f3ed1528b0fdc7c5207c1bf935e34a667e13656b9ed165260c522be0bc544f3038560405161257691815260200190565b60405180910390a3604086015173ffffffffffffffffffffffffffffffffffffffff166125ac576125a78184612810565b6125d2565b60408601516125d29073ffffffffffffffffffffffffffffffffffffffff1682856128da565b50909695505050505050565b60405173ffffffffffffffffffffffffffffffffffffffff8085166024830152831660448201526064810182905261269c9085907f23b872dd00000000000000000000000000000000000000000000000000000000906084015b60408051601f198184030181529190526020810180517bffffffffffffffffffffffffffffffffffffffffffffffffffffffff167fffffffff0000000000000000000000000000000000000000000000000000000090931692909217909152612afb565b50505050565b61060d8282611efe565b600081815260986020526040812080547fffffffffffffffffffffffff0000000000000000000000000000000000000000908116825560018201805490911690556002810180547fffffffff000000000000000000000000000000000000000000000000000000001690556003810180547fffffffffffffffff0000000000000000000000000000000000000000000000001690556004810182905590612756600583018261318e565b505060005b60995481101561060d5781609982815481106127795761277961396d565b9060005260206000200154036127fe576099805461279990600190613a68565b815481106127a9576127a961396d565b9060005260206000200154609982815481106127c7576127c761396d565b60009182526020909120015560998054806127e4576127e4613a7b565b600190038181906000526020600020016000905590555050565b8061280881613786565b91505061275b565b60008273ffffffffffffffffffffffffffffffffffffffff168260405160006040518083038185875af1925050503d806000811461286a576040519150601f19603f3d011682016040523d82523d6000602084013e61286f565b606091505b5050905080610554576040517f08c379a000000000000000000000000000000000000000000000000000000000815260206004820152600f60248201527f5472616e73666572206661696c6564000000000000000000000000000000000060448201526064016105fa565b60405173ffffffffffffffffffffffffffffffffffffffff83166024820152604481018290526105549084907fa9059cbb0000000000000000000000000000000000000000000000000000000090606401612638565b600082815260656020908152604080832073ffffffffffffffffffffffffffffffffffffffff8516845290915290205460ff1661060d5761297081612c0a565b61297b836020612c29565b60405160200161298c929190613aaa565b60408051601f19818403018152908290527f08c379a00000000000000000000000000000000000000000000000000000000082526105fa91600401613b2b565b73ffffffffffffffffffffffffffffffffffffffff81163b612a70576040517f08c379a000000000000000000000000000000000000000000000000000000000815260206004820152602d60248201527f455243313936373a206e657720696d706c656d656e746174696f6e206973206e60448201527f6f74206120636f6e74726163740000000000000000000000000000000000000060648201526084016105fa565b7f360894a13ba1a3210667c828492db98dca3e2076cc3735a920a3ca505d382bbc80547fffffffffffffffffffffffff00000000000000000000000000000000000000001673ffffffffffffffffffffffffffffffffffffffff92909216919091179055565b612adf83612e91565b600082511180612aec5750805b156105545761269c8383612ede565b6000612b5d826040518060400160405280602081526020017f5361666545524332303a206c6f772d6c6576656c2063616c6c206661696c65648152508573ffffffffffffffffffffffffffffffffffffffff16612f039092919063ffffffff16565b9050805160001480612b7e575080806020019051810190612b7e9190613b3e565b610554576040517f08c379a000000000000000000000000000000000000000000000000000000000815260206004820152602a60248201527f5361666545524332303a204552433230206f7065726174696f6e20646964206e60448201527f6f7420737563636565640000000000000000000000000000000000000000000060648201526084016105fa565b606061052973ffffffffffffffffffffffffffffffffffffffff831660145b60606000612c3883600261376f565b612c43906002613b60565b67ffffffffffffffff811115612c5b57612c5b6132bf565b6040519080825280601f01601f191660200182016040528015612c85576020820181803683370190505b5090507f300000000000000000000000000000000000000000000000000000000000000081600081518110612cbc57612cbc61396d565b60200101907effffffffffffffffffffffffffffffffffffffffffffffffffffffffffffff1916908160001a9053507f780000000000000000000000000000000000000000000000000000000000000081600181518110612d1f57612d1f61396d565b60200101907effffffffffffffffffffffffffffffffffffffffffffffffffffffffffffff1916908160001a9053506000612d5b84600261376f565b612d66906001613b60565b90505b6001811115612e21577f303132333435363738396162636465660000000000000000000000000000000085600f1660108110612da757612da761396d565b1a7f010000000000000000000000000000000000000000000000000000000000000002828281518110612ddc57612ddc61396d565b60200101907effffffffffffffffffffffffffffffffffffffffffffffffffffffffffffff1916908160001a905350601090940493612e1a81613b73565b9050612d69565b508315612e8a576040517f08c379a000000000000000000000000000000000000000000000000000000000815260206004820181905260248201527f537472696e67733a20686578206c656e67746820696e73756666696369656e7460448201526064016105fa565b9392505050565b612e9a816129cc565b60405173ffffffffffffffffffffffffffffffffffffffff8216907fbc7cd75a20ee27fd9adebab32041f755214dbc6bffa90cc0225b39da2e5c2d3b90600090a250565b6060612e8a8383604051806060016040528060278152602001613ba760279139612f1a565b6060612f128484600085612f95565b949350505050565b60606000808573ffffffffffffffffffffffffffffffffffffffff1685604051612f449190613b8a565b600060405180830381855af49150503d8060008114612f7f576040519150601f19603f3d011682016040523d82523d6000602084013e612f84565b606091505b5091509150611232868383876130af565b60603031831115613028576040517f08c379a000000000000000000000000000000000000000000000000000000000815260206004820152602660248201527f416464726573733a20696e73756666696369656e742062616c616e636520666f60448201527f722063616c6c000000000000000000000000000000000000000000000000000060648201526084016105fa565b6000808673ffffffffffffffffffffffffffffffffffffffff1685876040516130519190613b8a565b60006040518083038185875af1925050503d806000811461308e576040519150601f19603f3d011682016040523d82523d6000602084013e613093565b606091505b50915091506130a4878383876130af565b979650505050505050565b6060831561314557825160000361313e5773ffffffffffffffffffffffffffffffffffffffff85163b61313e576040517f08c379a000000000000000000000000000000000000000000000000000000000815260206004820152601d60248201527f416464726573733a2063616c6c20746f206e6f6e2d636f6e747261637400000060448201526064016105fa565b5081612f12565b612f12838381511561315a5781518083602001fd5b806040517f08c379a00000000000000000000000000000000000000000000000000000000081526004016105fa9190613b2b565b50805461319a906137a0565b6000825580601f106131aa575050565b601f01602090049060005260206000209081019061081391905b808211156131d857600081556001016131c4565b5090565b6000602082840312156131ee57600080fd5b81357fffffffff0000000000000000000000000000000000000000000000000000000081168114612e8a57600080fd5b60006020828403121561323057600080fd5b5035919050565b803573ffffffffffffffffffffffffffffffffffffffff8116811461325b57600080fd5b919050565b6000806040838503121561327357600080fd5b8235915061328360208401613237565b90509250929050565b60006020828403121561329e57600080fd5b612e8a82613237565b803567ffffffffffffffff8116811461325b57600080fd5b7f4e487b7100000000000000000000000000000000000000000000000000000000600052604160045260246000fd5b600067ffffffffffffffff80841115613309576133096132bf565b604051601f8501601f19908116603f01168101908282118183101715613331576133316132bf565b8160405280935085815286868601111561334a57600080fd5b858560208301376000602087830101525050509392505050565b600082601f83011261337557600080fd5b612e8a838335602085016132ee565b600080600080600080600060e0888a03121561339f57600080fd5b6133a888613237565b96506133b660208901613237565b95506133c4604089016132a7565b94506133d2606089016132a7565b93506133e0608089016132a7565b925060a0880135915060c088013567ffffffffffffffff81111561340357600080fd5b61340f8a828b01613364565b91505092959891949750929550565b6000806040838503121561343157600080fd5b61343a83613237565b9150602083013567ffffffffffffffff81111561345657600080fd5b8301601f8101851361346757600080fd5b613476858235602084016132ee565b9150509250929050565b600080600080600060a0868803121561349857600080fd5b6134a186613237565b94506134af60208701613237565b93506134bd604087016132a7565b925060608601359150608086013567ffffffffffffffff8111156134e057600080fd5b6134ec88828901613364565b9150509295509295909350565b600081518084526020808501945080840160005b838110156135295781518752958201959082019060010161350d565b509495945050505050565b602081526000612e8a60208301846134f9565b60005b8381101561356257818101518382015260200161354a565b50506000910152565b60008151808452613583816020860160208601613547565b601f01601f19169290920160200192915050565b600061012073ffffffffffffffffffffffffffffffffffffffff835116845260208301516135dd602086018273ffffffffffffffffffffffffffffffffffffffff169052565b506040830151613605604086018273ffffffffffffffffffffffffffffffffffffffff169052565b506060830151613621606086018267ffffffffffffffff169052565b50608083015161363d608086018267ffffffffffffffff169052565b5060a083015161365960a086018267ffffffffffffffff169052565b5060c083015161367560c086018267ffffffffffffffff169052565b5060e083015160e08501526101008084015182828701526112328387018261356b565b600081518084526020808501808196508284028101915082860160005b858110156136df5782840389526136cd848351613597565b988501989350908401906001016136b5565b5091979650505050505050565b6040815260006136ff60408301856134f9565b82810360208401526137118185613698565b95945050505050565b602081526000612e8a6020830184613597565b602081526000612e8a6020830184613698565b7f4e487b7100000000000000000000000000000000000000000000000000000000600052601160045260246000fd5b808202811582820484141761052957610529613740565b6000600019820361379957613799613740565b5060010190565b6002810460018216806137b457607f821691505b602082108103611c93577f4e487b7100000000000000000000000000000000000000000000000000000000600052602260045260246000fd5b601f821115610554576000818152602081206020601f860104810160208610156138145750805b6020601f860104820191505b8181101561383357828155600101613820565b505050505050565b815167ffffffffffffffff811115613855576138556132bf565b6138698161386384546137a0565b846137ed565b602080601f8311600181146138a257600084156138865750858301515b60028086026008870290910a6000190419821617865550613833565b600085815260208120601f198616915b828110156138d1578886015182559484019460019091019084016138b2565b50858210156138f157878501516008601f88160260020a60001904191681555b5050505050600202600101905550565b73ffffffffffffffffffffffffffffffffffffffff88168152600067ffffffffffffffff8089166020840152808816604084015280871660608401528086166080840152508360a083015260e060c083015261396060e083018461356b565b9998505050505050505050565b7f4e487b7100000000000000000000000000000000000000000000000000000000600052603260045260246000fd5b7f4e487b7100000000000000000000000000000000000000000000000000000000600052601260045260246000fd5b6000826139da576139da61399c565b500690565b67ffffffffffffffff828116828216039080821115613a0057613a00613740565b5092915050565b600060208284031215613a1957600080fd5b5051919050565b600067ffffffffffffffff80841680613a3b57613a3b61399c565b92169190910492915050565b67ffffffffffffffff818116838216019080821115613a0057613a00613740565b8181038181111561052957610529613740565b7f4e487b7100000000000000000000000000000000000000000000000000000000600052603160045260246000fd5b7f416363657373436f6e74726f6c3a206163636f756e7420000000000000000000815260008351613ae2816017850160208801613547565b7f206973206d697373696e6720726f6c65200000000000000000000000000000006017918401918201528351613b1f816028840160208801613547565b01602801949350505050565b602081526000612e8a602083018461356b565b600060208284031215613b5057600080fd5b81518015158114612e8a57600080fd5b8082018082111561052957610529613740565b600081613b8257613b82613740565b506000190190565b60008251613b9c818460208701613547565b919091019291505056fe416464726573733a206c6f772d6c6576656c2064656c65676174652063616c6c206661696c6564a2646970667358221220c04ae521e0076cc75c80a434620dd088cce530cef76145bd051fd3880ecc5a8064736f6c63430008110033",
  "linkReferences": {},
  "deployedLinkReferences": {}
}