{
  "_format": "hh-sol-artifact-1",
  "contractName": "OGSBT",
  "sourceName": "contracts/airdao-og-sbt/OG-SBT.sol",
  "abi": [
    {
      "inputs": [],
      "stateMutability": "nonpayable",
      "type": "constructor"
    },
    {
      "inputs": [],
      "name": "AccessControlBadConfirmation",
      "type": "error"
    },
    {
      "inputs": [
        {
          "internalType": "address",
          "name": "account",
          "type": "address"
        },
        {
          "internalType": "bytes32",
          "name": "neededRole",
          "type": "bytes32"
        }
      ],
      "name": "AccessControlUnauthorizedAccount",
      "type": "error"
    },
    {
      "inputs": [],
      "name": "InvalidInitialization",
      "type": "error"
    },
    {
      "inputs": [],
      "name": "NotInitializing",
      "type": "error"
    },
    {
      "anonymous": false,
      "inputs": [
        {
          "indexed": false,
          "internalType": "uint64",
          "name": "version",
          "type": "uint64"
        }
      ],
      "name": "Initialized",
      "type": "event"
    },
    {
      "anonymous": false,
      "inputs": [
        {
          "indexed": true,
          "internalType": "bytes32",
          "name": "role",
          "type": "bytes32"
        },
        {
          "indexed": true,
          "internalType": "bytes32",
          "name": "previousAdminRole",
          "type": "bytes32"
        },
        {
          "indexed": true,
          "internalType": "bytes32",
          "name": "newAdminRole",
          "type": "bytes32"
        }
      ],
      "name": "RoleAdminChanged",
      "type": "event"
    },
    {
      "anonymous": false,
      "inputs": [
        {
          "indexed": true,
          "internalType": "bytes32",
          "name": "role",
          "type": "bytes32"
        },
        {
          "indexed": true,
          "internalType": "address",
          "name": "account",
          "type": "address"
        },
        {
          "indexed": true,
          "internalType": "address",
          "name": "sender",
          "type": "address"
        }
      ],
      "name": "RoleGranted",
      "type": "event"
    },
    {
      "anonymous": false,
      "inputs": [
        {
          "indexed": true,
          "internalType": "bytes32",
          "name": "role",
          "type": "bytes32"
        },
        {
          "indexed": true,
          "internalType": "address",
          "name": "account",
          "type": "address"
        },
        {
          "indexed": true,
          "internalType": "address",
          "name": "sender",
          "type": "address"
        }
      ],
      "name": "RoleRevoked",
      "type": "event"
    },
    {
      "anonymous": false,
      "inputs": [
        {
          "indexed": true,
          "internalType": "address",
          "name": "userWallet",
          "type": "address"
        }
      ],
      "name": "SBTBurn",
      "type": "event"
    },
    {
      "anonymous": false,
      "inputs": [
        {
          "indexed": true,
          "internalType": "address",
          "name": "userWallet",
          "type": "address"
        },
        {
          "indexed": true,
          "internalType": "address",
          "name": "ogWallet",
          "type": "address"
        },
        {
          "indexed": false,
          "internalType": "bytes32",
          "name": "txHash",
          "type": "bytes32"
        }
      ],
      "name": "SBTMint",
      "type": "event"
    },
    {
      "inputs": [],
      "name": "DEFAULT_ADMIN_ROLE",
      "outputs": [
        {
          "internalType": "bytes32",
          "name": "",
          "type": "bytes32"
        }
      ],
      "stateMutability": "view",
      "type": "function"
    },
    {
      "inputs": [],
      "name": "ISSUER_ROLE",
      "outputs": [
        {
          "internalType": "bytes32",
          "name": "",
          "type": "bytes32"
        }
      ],
      "stateMutability": "view",
      "type": "function"
    },
    {
      "inputs": [],
      "name": "VOTING_MODERATOR_ROLE",
      "outputs": [
        {
          "internalType": "bytes32",
          "name": "",
          "type": "bytes32"
        }
      ],
      "stateMutability": "view",
      "type": "function"
    },
    {
      "inputs": [
        {
          "internalType": "bytes32",
          "name": "role",
          "type": "bytes32"
        }
      ],
      "name": "getRoleAdmin",
      "outputs": [
        {
          "internalType": "bytes32",
          "name": "",
          "type": "bytes32"
        }
      ],
      "stateMutability": "view",
      "type": "function"
    },
    {
      "inputs": [
        {
          "internalType": "bytes32",
          "name": "role",
          "type": "bytes32"
        },
        {
          "internalType": "uint256",
          "name": "index",
          "type": "uint256"
        }
      ],
      "name": "getRoleMember",
      "outputs": [
        {
          "internalType": "address",
          "name": "",
          "type": "address"
        }
      ],
      "stateMutability": "view",
      "type": "function"
    },
    {
      "inputs": [
        {
          "internalType": "bytes32",
          "name": "role",
          "type": "bytes32"
        }
      ],
      "name": "getRoleMemberCount",
      "outputs": [
        {
          "internalType": "uint256",
          "name": "",
          "type": "uint256"
        }
      ],
      "stateMutability": "view",
      "type": "function"
    },
    {
      "inputs": [],
      "name": "getTotalVotingMultiplier",
      "outputs": [
        {
          "internalType": "uint256",
          "name": "",
          "type": "uint256"
        }
      ],
      "stateMutability": "view",
      "type": "function"
    },
    {
      "inputs": [
        {
          "internalType": "address",
          "name": "userWallet",
          "type": "address"
        }
      ],
      "name": "getUserVotingMultiplierByWallet",
      "outputs": [
        {
          "internalType": "uint256",
          "name": "",
          "type": "uint256"
        }
      ],
      "stateMutability": "view",
      "type": "function"
    },
    {
      "inputs": [],
      "name": "getVotingMultiplier",
      "outputs": [
        {
          "internalType": "uint256",
          "name": "",
          "type": "uint256"
        }
      ],
      "stateMutability": "view",
      "type": "function"
    },
    {
      "inputs": [
        {
          "internalType": "bytes32",
          "name": "role",
          "type": "bytes32"
        },
        {
          "internalType": "address",
          "name": "account",
          "type": "address"
        }
      ],
      "name": "grantRole",
      "outputs": [],
      "stateMutability": "nonpayable",
      "type": "function"
    },
    {
      "inputs": [
        {
          "internalType": "bytes32",
          "name": "role",
          "type": "bytes32"
        },
        {
          "internalType": "address",
          "name": "account",
          "type": "address"
        }
      ],
      "name": "hasRole",
      "outputs": [
        {
          "internalType": "bool",
          "name": "",
          "type": "bool"
        }
      ],
      "stateMutability": "view",
      "type": "function"
    },
    {
      "inputs": [],
      "name": "initialize",
      "outputs": [],
      "stateMutability": "nonpayable",
      "type": "function"
    },
    {
      "inputs": [
        {
          "internalType": "bytes32",
          "name": "role",
          "type": "bytes32"
        },
        {
          "internalType": "address",
          "name": "callerConfirmation",
          "type": "address"
        }
      ],
      "name": "renounceRole",
      "outputs": [],
      "stateMutability": "nonpayable",
      "type": "function"
    },
    {
      "inputs": [
        {
          "internalType": "bytes32",
          "name": "role",
          "type": "bytes32"
        },
        {
          "internalType": "address",
          "name": "account",
          "type": "address"
        }
      ],
      "name": "revokeRole",
      "outputs": [],
      "stateMutability": "nonpayable",
      "type": "function"
    },
    {
      "inputs": [
        {
          "internalType": "address",
          "name": "userWallet",
          "type": "address"
        }
      ],
      "name": "sbtBurn",
      "outputs": [],
      "stateMutability": "nonpayable",
      "type": "function"
    },
    {
      "inputs": [
        {
          "internalType": "address",
          "name": "userWallet",
          "type": "address"
        }
      ],
      "name": "sbtExists",
      "outputs": [
        {
          "internalType": "bool",
          "name": "",
          "type": "bool"
        }
      ],
      "stateMutability": "view",
      "type": "function"
    },
    {
      "inputs": [
        {
          "internalType": "address",
          "name": "userWallet",
          "type": "address"
        }
      ],
      "name": "sbtIssuedAt",
      "outputs": [
        {
          "internalType": "uint256",
          "name": "",
          "type": "uint256"
        }
      ],
      "stateMutability": "view",
      "type": "function"
    },
    {
      "inputs": [
        {
          "internalType": "address",
          "name": "userWallet",
          "type": "address"
        },
        {
          "internalType": "address",
          "name": "ogWallet",
          "type": "address"
        },
        {
          "internalType": "bytes32",
          "name": "txHash",
          "type": "bytes32"
        }
      ],
      "name": "sbtMint",
      "outputs": [],
      "stateMutability": "nonpayable",
      "type": "function"
    },
    {
      "inputs": [
        {
          "internalType": "address",
          "name": "userWallet",
          "type": "address"
        }
      ],
      "name": "sbtVerify",
      "outputs": [
        {
          "internalType": "uint256",
          "name": "",
          "type": "uint256"
        }
      ],
      "stateMutability": "view",
      "type": "function"
    },
    {
      "inputs": [
        {
          "internalType": "uint256",
          "name": "multiplier",
          "type": "uint256"
        }
      ],
      "name": "setVotingMultiplier",
      "outputs": [],
      "stateMutability": "nonpayable",
      "type": "function"
    },
    {
      "inputs": [
        {
          "internalType": "bytes4",
          "name": "interfaceId",
          "type": "bytes4"
        }
      ],
      "name": "supportsInterface",
      "outputs": [
        {
          "internalType": "bool",
          "name": "",
          "type": "bool"
        }
      ],
      "stateMutability": "view",
      "type": "function"
    },
    {
      "inputs": [],
      "name": "totalSupply",
      "outputs": [
        {
          "internalType": "uint256",
          "name": "",
          "type": "uint256"
        }
      ],
      "stateMutability": "view",
      "type": "function"
    }
  ],
  "bytecode": "0x608060405234801561001057600080fd5b50610022640100000000610027810204565b61010c565b600061003a6401000000006100e8810204565b805490915068010000000000000000900460ff1615610085576040517ff92ee8a900000000000000000000000000000000000000000000000000000000815260040160405180910390fd5b80546001604060020a03908116146100e557805467ffffffffffffffff19166001604060020a0390811782556040519081527fc7f505b2f371ae2175ee4913f4499e1f2633a7b5936321eed1cdaeb6115181d29060200160405180910390a15b50565b7ff0c57e16840df040f15088dc2f81fe391c3923bec73e23a9662efc9c229c6a0090565b6114e38061011b6000396000f3fe608060405234801561001057600080fd5b506004361061019f576000357c0100000000000000000000000000000000000000000000000000000000900480638129fc1c116100f55780639c8f1126116100a9578063d547741f11610083578063d547741f1461040d578063eac70dfc14610420578063ee6ff81a1461043357600080fd5b80639c8f1126146103df578063a217fddf146103f2578063ca15c873146103fa57600080fd5b80639010d07c116100da5780639010d07c1461032f57806390fdd5891461036757806391d148541461037a57600080fd5b80638129fc1c1461030057806382aefa241461030857600080fd5b80632f2ff15d116101575780633fee7b0d116101315780633fee7b0d1461029b5780636ee1cf06146102c2578063788c4202146102f857600080fd5b80632f2ff15d1461026d57806332ce7c0a1461028057806336568abe1461028857600080fd5b80630f6d50dc116101885780630f6d50dc146101e157806318160ddd14610219578063248a9ca31461022b57600080fd5b806301ffc9a7146101a45780630ddf1fc9146101cc575b600080fd5b6101b76101b23660046112ba565b610446565b60405190151581526020015b60405180910390f35b6101df6101da366004611325565b6104a2565b005b6101b76101ef366004611361565b73ffffffffffffffffffffffffffffffffffffffff16600090815260208190526040902054151590565b6002545b6040519081526020016101c3565b61021d61023936600461137c565b60009081527f02dd7bc7dec4dceedda775e58dd541e08a116c6c53815c0bd028192f7b626800602052604090206001015490565b6101df61027b366004611395565b6106f0565b61021d61073a565b6101df610296366004611395565b610751565b61021d7fa2e8fe7c00f159dc6d97ca8f61c83aa484a94b4677735133e05a1d3cf58ac69181565b61021d6102d0366004611361565b73ffffffffffffffffffffffffffffffffffffffff1660009081526020819052604090205490565b60035461021d565b6101df6107af565b61021d7f114e74f6ea3bd819998f78687bfcb11b140da08e9b7d222fa9c1f1ba1f2aa12281565b61034261033d3660046113c1565b61093d565b60405173ffffffffffffffffffffffffffffffffffffffff90911681526020016101c3565b61021d610375366004611361565b61097e565b6101b7610388366004611395565b60009182527f02dd7bc7dec4dceedda775e58dd541e08a116c6c53815c0bd028192f7b6268006020908152604080842073ffffffffffffffffffffffffffffffffffffffff93909316845291905290205460ff1690565b6101df6103ed36600461137c565b6109b8565b61021d600081565b61021d61040836600461137c565b610a8e565b6101df61041b366004611395565b610acd565b6101df61042e366004611361565b610b11565b61021d610441366004611361565b610ce3565b60007fffffffff0000000000000000000000000000000000000000000000000000000082167f5a05180f00000000000000000000000000000000000000000000000000000000148061049c575061049c82610d0e565b92915050565b7f114e74f6ea3bd819998f78687bfcb11b140da08e9b7d222fa9c1f1ba1f2aa1226104cc81610da5565b83836104fc8273ffffffffffffffffffffffffffffffffffffffff16600090815260208190526040902054151590565b15610568576040517f08c379a000000000000000000000000000000000000000000000000000000000815260206004820152601e60248201527f54686973206b696e64206f662053425420616c7265616479206578697374000060448201526064015b60405180910390fd5b73ffffffffffffffffffffffffffffffffffffffff818116600090815260016020526040902054161561061d576040517f08c379a000000000000000000000000000000000000000000000000000000000815260206004820152602b60248201527f57616c6c657420686173206265656e20616c7265616479207573656420746f2060448201527f6d696e74204f4720534254000000000000000000000000000000000000000000606482015260840161055f565b6001600260008282546106309190611412565b909155505073ffffffffffffffffffffffffffffffffffffffff80861660008181526001602081815260408084208054968d167fffffffffffffffffffffffff00000000000000000000000000000000000000009788168117909155808552918490529283902042815591820180549095168417909455600201879055519091907f8bec80a7cc349428a4298378ecd3e392c37704f241a481970120708934a7ddbe906106e09088815260200190565b60405180910390a3505050505050565b60008281527f02dd7bc7dec4dceedda775e58dd541e08a116c6c53815c0bd028192f7b626800602052604090206001015461072a81610da5565b6107348383610daf565b50505050565b600060025460035461074c9190611425565b905090565b73ffffffffffffffffffffffffffffffffffffffff811633146107a0576040517f6697b23200000000000000000000000000000000000000000000000000000000815260040160405180910390fd5b6107aa8282610e06565b505050565b7ff0c57e16840df040f15088dc2f81fe391c3923bec73e23a9662efc9c229c6a00805468010000000000000000810460ff16159067ffffffffffffffff166000811580156107fa5750825b905060008267ffffffffffffffff1660011480156108175750303b155b905081158015610825575080155b1561085c576040517ff92ee8a900000000000000000000000000000000000000000000000000000000815260040160405180910390fd5b84547fffffffffffffffffffffffffffffffffffffffffffffffff000000000000000016600117855583156108bd5784547fffffffffffffffffffffffffffffffffffffffffffffff00ffffffffffffffff16680100000000000000001785555b600060028190556109c46003556108d49033610daf565b5083156109365784547fffffffffffffffffffffffffffffffffffffffffffffff00ffffffffffffffff168555604051600181527fc7f505b2f371ae2175ee4913f4499e1f2633a7b5936321eed1cdaeb6115181d29060200160405180910390a15b5050505050565b60008281527fc1f6fe24621ce81ec5827caf0253cadb74709b061630e6b55e823717059320006020819052604082206109769084610e54565b949350505050565b73ffffffffffffffffffffffffffffffffffffffff81166000908152602081905260408120546109b057506000919050565b60035461049c565b3360009081527fd899505834629eb300e74c720bc2ccfa64c67750c977fb28a4698835213ef6c8602052604090205460ff1680610a2357503360009081527fb7db2dd08fcb62d0c9e08c51941cae53c267786a0b75803fb7960902fc8ef97d602052604090205460ff165b610a89576040517f08c379a000000000000000000000000000000000000000000000000000000000815260206004820152600e60248201527f4e6f7420617574686f72697a6564000000000000000000000000000000000000604482015260640161055f565b600355565b60008181527fc1f6fe24621ce81ec5827caf0253cadb74709b061630e6b55e82371705932000602081905260408220610ac690610e60565b9392505050565b60008281527f02dd7bc7dec4dceedda775e58dd541e08a116c6c53815c0bd028192f7b6268006020526040902060010154610b0781610da5565b6107348383610e06565b3360009081527fecfb03a241cc67499591701273c9840824101e710aea92d3ca0339671f5c64c0602052604090205460ff1680610b7c57503360009081527fb7db2dd08fcb62d0c9e08c51941cae53c267786a0b75803fb7960902fc8ef97d602052604090205460ff165b610be2576040517f08c379a000000000000000000000000000000000000000000000000000000000815260206004820152600e60248201527f4e6f7420617574686f72697a6564000000000000000000000000000000000000604482015260640161055f565b73ffffffffffffffffffffffffffffffffffffffff811660009081526020819052604090205415610ce05773ffffffffffffffffffffffffffffffffffffffff80821660008181526020818152604080832060018181018054909716855280845291842080547fffffffffffffffffffffffff000000000000000000000000000000000000000090811690915594845291839052828255845490931690935560029283018190558254919291610c9990849061143c565b909155505060405173ffffffffffffffffffffffffffffffffffffffff8216907fb37cf8eece8b5e64575d707079155f564741a1a9523c32d65196063452c4065b90600090a25b50565b73ffffffffffffffffffffffffffffffffffffffff811660009081526020819052604081205461049c565b60007fffffffff0000000000000000000000000000000000000000000000000000000082167f7965db0b00000000000000000000000000000000000000000000000000000000148061049c57507f01ffc9a7000000000000000000000000000000000000000000000000000000007fffffffff0000000000000000000000000000000000000000000000000000000083161461049c565b610ce08133610e6a565b60007fc1f6fe24621ce81ec5827caf0253cadb74709b061630e6b55e8237170593200081610ddd8585610f15565b90508015610976576000858152602083905260409020610dfd9085611036565b50949350505050565b60007fc1f6fe24621ce81ec5827caf0253cadb74709b061630e6b55e8237170593200081610e348585611058565b90508015610976576000858152602083905260409020610dfd9085611136565b6000610ac68383611158565b600061049c825490565b60008281527f02dd7bc7dec4dceedda775e58dd541e08a116c6c53815c0bd028192f7b6268006020908152604080832073ffffffffffffffffffffffffffffffffffffffff8516845290915290205460ff16610f11576040517fe2517d3f00000000000000000000000000000000000000000000000000000000815273ffffffffffffffffffffffffffffffffffffffff821660048201526024810183905260440161055f565b5050565b60008281527f02dd7bc7dec4dceedda775e58dd541e08a116c6c53815c0bd028192f7b6268006020818152604080842073ffffffffffffffffffffffffffffffffffffffff8616855290915282205460ff1661102c5760008481526020828152604080832073ffffffffffffffffffffffffffffffffffffffff87168452909152902080547fffffffffffffffffffffffffffffffffffffffffffffffffffffffffffffff00166001179055610fc83390565b73ffffffffffffffffffffffffffffffffffffffff168373ffffffffffffffffffffffffffffffffffffffff16857f2f8788117e7eff1d82e926ec794901d17c78024a50270940304540a733656f0d60405160405180910390a4600191505061049c565b600091505061049c565b6000610ac68373ffffffffffffffffffffffffffffffffffffffff8416611182565b60008281527f02dd7bc7dec4dceedda775e58dd541e08a116c6c53815c0bd028192f7b6268006020818152604080842073ffffffffffffffffffffffffffffffffffffffff8616855290915282205460ff161561102c5760008481526020828152604080832073ffffffffffffffffffffffffffffffffffffffff8716808552925280832080547fffffffffffffffffffffffffffffffffffffffffffffffffffffffffffffff0016905551339287917ff6391f5c32d9c69d2a47ea670b442974b53935d1edc7fd64eb21e047a839171b9190a4600191505061049c565b6000610ac68373ffffffffffffffffffffffffffffffffffffffff84166111d1565b600082600001828154811061116f5761116f61144f565b9060005260206000200154905092915050565b60008181526001830160205260408120546111c95750815460018181018455600084815260208082209093018490558454848252828601909352604090209190915561049c565b50600061049c565b6000818152600183016020526040812054801561102c5760006111f560018361143c565b85549091506000906112099060019061143c565b905080821461126e5760008660000182815481106112295761122961144f565b906000526020600020015490508087600001848154811061124c5761124c61144f565b6000918252602080832090910192909255918252600188019052604090208390555b855486908061127f5761127f61147e565b60019003818190600052602060002001600090559055856001016000868152602001908152602001600020600090556001935050505061049c565b6000602082840312156112cc57600080fd5b81357fffffffff0000000000000000000000000000000000000000000000000000000081168114610ac657600080fd5b803573ffffffffffffffffffffffffffffffffffffffff8116811461132057600080fd5b919050565b60008060006060848603121561133a57600080fd5b611343846112fc565b9250611351602085016112fc565b9150604084013590509250925092565b60006020828403121561137357600080fd5b610ac6826112fc565b60006020828403121561138e57600080fd5b5035919050565b600080604083850312156113a857600080fd5b823591506113b8602084016112fc565b90509250929050565b600080604083850312156113d457600080fd5b50508035926020909101359150565b7f4e487b7100000000000000000000000000000000000000000000000000000000600052601160045260246000fd5b8082018082111561049c5761049c6113e3565b808202811582820484141761049c5761049c6113e3565b8181038181111561049c5761049c6113e3565b7f4e487b7100000000000000000000000000000000000000000000000000000000600052603260045260246000fd5b7f4e487b7100000000000000000000000000000000000000000000000000000000600052603160045260246000fdfea2646970667358221220e41c843c6fefa4b34b7a7104aa0e2df4419a034cbd38ddb4ed857b66c9c4cd4c64736f6c63430008140033",
  "linkReferences": {},
  "deployedLinkReferences": {}
}