{
  "_format": "hh-sol-artifact-1",
  "contractName": "OGSBT",
  "sourceName": "contracts/airdao-og-sbt/OG-SBT.sol",
  "abi": [
    {
      "inputs": [],
      "stateMutability": "nonpayable",
      "type": "constructor"
    },
    {
      "inputs": [],
      "name": "AccessControlBadConfirmation",
      "type": "error"
    },
    {
      "inputs": [
        {
          "internalType": "address",
          "name": "account",
          "type": "address"
        },
        {
          "internalType": "bytes32",
          "name": "neededRole",
          "type": "bytes32"
        }
      ],
      "name": "AccessControlUnauthorizedAccount",
      "type": "error"
    },
    {
      "inputs": [],
      "name": "InvalidInitialization",
      "type": "error"
    },
    {
      "inputs": [],
      "name": "NotInitializing",
      "type": "error"
    },
    {
      "anonymous": false,
      "inputs": [
        {
          "indexed": false,
          "internalType": "uint64",
          "name": "version",
          "type": "uint64"
        }
      ],
      "name": "Initialized",
      "type": "event"
    },
    {
      "anonymous": false,
      "inputs": [
        {
          "indexed": true,
          "internalType": "bytes32",
          "name": "role",
          "type": "bytes32"
        },
        {
          "indexed": true,
          "internalType": "bytes32",
          "name": "previousAdminRole",
          "type": "bytes32"
        },
        {
          "indexed": true,
          "internalType": "bytes32",
          "name": "newAdminRole",
          "type": "bytes32"
        }
      ],
      "name": "RoleAdminChanged",
      "type": "event"
    },
    {
      "anonymous": false,
      "inputs": [
        {
          "indexed": true,
          "internalType": "bytes32",
          "name": "role",
          "type": "bytes32"
        },
        {
          "indexed": true,
          "internalType": "address",
          "name": "account",
          "type": "address"
        },
        {
          "indexed": true,
          "internalType": "address",
          "name": "sender",
          "type": "address"
        }
      ],
      "name": "RoleGranted",
      "type": "event"
    },
    {
      "anonymous": false,
      "inputs": [
        {
          "indexed": true,
          "internalType": "bytes32",
          "name": "role",
          "type": "bytes32"
        },
        {
          "indexed": true,
          "internalType": "address",
          "name": "account",
          "type": "address"
        },
        {
          "indexed": true,
          "internalType": "address",
          "name": "sender",
          "type": "address"
        }
      ],
      "name": "RoleRevoked",
      "type": "event"
    },
    {
      "anonymous": false,
      "inputs": [
        {
          "indexed": true,
          "internalType": "address",
          "name": "userWallet",
          "type": "address"
        }
      ],
      "name": "SBTBurn",
      "type": "event"
    },
    {
      "anonymous": false,
      "inputs": [
        {
          "indexed": true,
          "internalType": "address",
          "name": "userWallet",
          "type": "address"
        },
        {
          "indexed": false,
          "internalType": "bytes32",
          "name": "txHash",
          "type": "bytes32"
        }
      ],
      "name": "SBTMint",
      "type": "event"
    },
    {
      "inputs": [],
      "name": "DEFAULT_ADMIN_ROLE",
      "outputs": [
        {
          "internalType": "bytes32",
          "name": "",
          "type": "bytes32"
        }
      ],
      "stateMutability": "view",
      "type": "function"
    },
    {
      "inputs": [],
      "name": "ISSUER_ROLE",
      "outputs": [
        {
          "internalType": "bytes32",
          "name": "",
          "type": "bytes32"
        }
      ],
      "stateMutability": "view",
      "type": "function"
    },
    {
      "inputs": [
        {
          "internalType": "bytes32",
          "name": "role",
          "type": "bytes32"
        }
      ],
      "name": "getRoleAdmin",
      "outputs": [
        {
          "internalType": "bytes32",
          "name": "",
          "type": "bytes32"
        }
      ],
      "stateMutability": "view",
      "type": "function"
    },
    {
      "inputs": [
        {
          "internalType": "bytes32",
          "name": "role",
          "type": "bytes32"
        },
        {
          "internalType": "uint256",
          "name": "index",
          "type": "uint256"
        }
      ],
      "name": "getRoleMember",
      "outputs": [
        {
          "internalType": "address",
          "name": "",
          "type": "address"
        }
      ],
      "stateMutability": "view",
      "type": "function"
    },
    {
      "inputs": [
        {
          "internalType": "bytes32",
          "name": "role",
          "type": "bytes32"
        }
      ],
      "name": "getRoleMemberCount",
      "outputs": [
        {
          "internalType": "uint256",
          "name": "",
          "type": "uint256"
        }
      ],
      "stateMutability": "view",
      "type": "function"
    },
    {
      "inputs": [
        {
          "internalType": "bytes32",
          "name": "role",
          "type": "bytes32"
        },
        {
          "internalType": "address",
          "name": "account",
          "type": "address"
        }
      ],
      "name": "grantRole",
      "outputs": [],
      "stateMutability": "nonpayable",
      "type": "function"
    },
    {
      "inputs": [
        {
          "internalType": "bytes32",
          "name": "role",
          "type": "bytes32"
        },
        {
          "internalType": "address",
          "name": "account",
          "type": "address"
        }
      ],
      "name": "hasRole",
      "outputs": [
        {
          "internalType": "bool",
          "name": "",
          "type": "bool"
        }
      ],
      "stateMutability": "view",
      "type": "function"
    },
    {
      "inputs": [],
      "name": "initialize",
      "outputs": [],
      "stateMutability": "nonpayable",
      "type": "function"
    },
    {
      "inputs": [
        {
          "internalType": "bytes32",
          "name": "role",
          "type": "bytes32"
        },
        {
          "internalType": "address",
          "name": "callerConfirmation",
          "type": "address"
        }
      ],
      "name": "renounceRole",
      "outputs": [],
      "stateMutability": "nonpayable",
      "type": "function"
    },
    {
      "inputs": [
        {
          "internalType": "bytes32",
          "name": "role",
          "type": "bytes32"
        },
        {
          "internalType": "address",
          "name": "account",
          "type": "address"
        }
      ],
      "name": "revokeRole",
      "outputs": [],
      "stateMutability": "nonpayable",
      "type": "function"
    },
    {
      "inputs": [
        {
          "internalType": "address",
          "name": "userWallet",
          "type": "address"
        }
      ],
      "name": "sbtBurn",
      "outputs": [],
      "stateMutability": "nonpayable",
      "type": "function"
    },
    {
      "inputs": [
        {
          "internalType": "address",
          "name": "userWallet",
          "type": "address"
        }
      ],
      "name": "sbtExists",
      "outputs": [
        {
          "internalType": "bool",
          "name": "",
          "type": "bool"
        }
      ],
      "stateMutability": "view",
      "type": "function"
    },
    {
      "inputs": [
        {
          "internalType": "address",
          "name": "userWallet",
          "type": "address"
        }
      ],
      "name": "sbtIssuedAt",
      "outputs": [
        {
          "internalType": "uint256",
          "name": "",
          "type": "uint256"
        }
      ],
      "stateMutability": "view",
      "type": "function"
    },
    {
      "inputs": [
        {
          "internalType": "address",
          "name": "userWallet",
          "type": "address"
        },
        {
          "internalType": "bytes32",
          "name": "txHash",
          "type": "bytes32"
        }
      ],
      "name": "sbtMint",
      "outputs": [],
      "stateMutability": "nonpayable",
      "type": "function"
    },
    {
      "inputs": [
        {
          "internalType": "address",
          "name": "userWallet",
          "type": "address"
        }
      ],
      "name": "sbtVerify",
      "outputs": [
        {
          "internalType": "uint256",
          "name": "",
          "type": "uint256"
        }
      ],
      "stateMutability": "view",
      "type": "function"
    },
    {
      "inputs": [
        {
          "internalType": "bytes4",
          "name": "interfaceId",
          "type": "bytes4"
        }
      ],
      "name": "supportsInterface",
      "outputs": [
        {
          "internalType": "bool",
          "name": "",
          "type": "bool"
        }
      ],
      "stateMutability": "view",
      "type": "function"
    },
    {
      "inputs": [],
      "name": "totalSupply",
      "outputs": [
        {
          "internalType": "uint256",
          "name": "",
          "type": "uint256"
        }
      ],
      "stateMutability": "view",
      "type": "function"
    }
  ],
  "bytecode": "0x608060405234801561001057600080fd5b50610022640100000000610027810204565b61010c565b600061003a6401000000006100e8810204565b805490915068010000000000000000900460ff1615610085576040517ff92ee8a900000000000000000000000000000000000000000000000000000000815260040160405180910390fd5b80546001604060020a03908116146100e557805467ffffffffffffffff19166001604060020a0390811782556040519081527fc7f505b2f371ae2175ee4913f4499e1f2633a7b5936321eed1cdaeb6115181d29060200160405180910390a15b50565b7ff0c57e16840df040f15088dc2f81fe391c3923bec73e23a9662efc9c229c6a0090565b6111788061011b6000396000f3fe608060405234801561001057600080fd5b5060043610610138576000357c0100000000000000000000000000000000000000000000000000000000900480638129fc1c116100cf578063a217fddf1161009e578063d547741f11610083578063d547741f14610349578063eac70dfc1461035c578063ee6ff81a1461036f57600080fd5b8063a217fddf1461032e578063ca15c8731461033657600080fd5b80638129fc1c1461026257806382aefa241461026a5780639010d07c1461029157806391d14854146102c957600080fd5b80632f2ff15d1161010b5780632f2ff15d146101f157806336568abe146102065780634e70e5aa146102195780636ee1cf061461022c57600080fd5b806301ffc9a71461013d5780630f6d50dc1461016557806318160ddd1461019d578063248a9ca3146101af575b600080fd5b61015061014b366004610f78565b610382565b60405190151581526020015b60405180910390f35b610150610173366004610fe3565b73ffffffffffffffffffffffffffffffffffffffff16600090815260208190526040902054151590565b6001545b60405190815260200161015c565b6101a16101bd366004610ffe565b60009081527f02dd7bc7dec4dceedda775e58dd541e08a116c6c53815c0bd028192f7b626800602052604090206001015490565b6102046101ff366004611017565b6103de565b005b610204610214366004611017565b610428565b610204610227366004611043565b610486565b6101a161023a366004610fe3565b73ffffffffffffffffffffffffffffffffffffffff1660009081526020819052604090205490565b6102046105c8565b6101a17f114e74f6ea3bd819998f78687bfcb11b140da08e9b7d222fa9c1f1ba1f2aa12281565b6102a461029f36600461106d565b610756565b60405173ffffffffffffffffffffffffffffffffffffffff909116815260200161015c565b6101506102d7366004611017565b60009182527f02dd7bc7dec4dceedda775e58dd541e08a116c6c53815c0bd028192f7b6268006020908152604080842073ffffffffffffffffffffffffffffffffffffffff93909316845291905290205460ff1690565b6101a1600081565b6101a1610344366004610ffe565b610797565b610204610357366004611017565b6107d6565b61020461036a366004610fe3565b61081a565b6101a161037d366004610fe3565b6109a1565b60007fffffffff0000000000000000000000000000000000000000000000000000000082167f5a05180f0000000000000000000000000000000000000000000000000000000014806103d857506103d8826109cc565b92915050565b60008281527f02dd7bc7dec4dceedda775e58dd541e08a116c6c53815c0bd028192f7b626800602052604090206001015461041881610a63565b6104228383610a6d565b50505050565b73ffffffffffffffffffffffffffffffffffffffff81163314610477576040517f6697b23200000000000000000000000000000000000000000000000000000000815260040160405180910390fd5b6104818282610ac4565b505050565b7f114e74f6ea3bd819998f78687bfcb11b140da08e9b7d222fa9c1f1ba1f2aa1226104b081610a63565b826104df8173ffffffffffffffffffffffffffffffffffffffff16600090815260208190526040902054151590565b1561054b576040517f08c379a000000000000000000000000000000000000000000000000000000000815260206004820152601e60248201527f54686973206b696e64206f662053425420616c7265616479206578697374000060448201526064015b60405180910390fd5b600180600082825461055d91906110be565b909155505073ffffffffffffffffffffffffffffffffffffffff84166000818152602081815260409182902042815560010186905590518581527f4366e63e953a8ba7411d08d8781b7440105b38a53e77bc893587cdb401654f44910160405180910390a250505050565b7ff0c57e16840df040f15088dc2f81fe391c3923bec73e23a9662efc9c229c6a00805468010000000000000000810460ff16159067ffffffffffffffff166000811580156106135750825b905060008267ffffffffffffffff1660011480156106305750303b155b90508115801561063e575080155b15610675576040517ff92ee8a900000000000000000000000000000000000000000000000000000000815260040160405180910390fd5b84547fffffffffffffffffffffffffffffffffffffffffffffffff000000000000000016600117855583156106d65784547fffffffffffffffffffffffffffffffffffffffffffffff00ffffffffffffffff16680100000000000000001785555b600060018190556109c46002556106ed9033610a6d565b50831561074f5784547fffffffffffffffffffffffffffffffffffffffffffffff00ffffffffffffffff168555604051600181527fc7f505b2f371ae2175ee4913f4499e1f2633a7b5936321eed1cdaeb6115181d29060200160405180910390a15b5050505050565b60008281527fc1f6fe24621ce81ec5827caf0253cadb74709b061630e6b55e8237170593200060208190526040822061078f9084610b12565b949350505050565b60008181527fc1f6fe24621ce81ec5827caf0253cadb74709b061630e6b55e823717059320006020819052604082206107cf90610b1e565b9392505050565b60008281527f02dd7bc7dec4dceedda775e58dd541e08a116c6c53815c0bd028192f7b626800602052604090206001015461081081610a63565b6104228383610ac4565b3360009081527fecfb03a241cc67499591701273c9840824101e710aea92d3ca0339671f5c64c0602052604090205460ff168061088557503360009081527fb7db2dd08fcb62d0c9e08c51941cae53c267786a0b75803fb7960902fc8ef97d602052604090205460ff165b6108eb576040517f08c379a000000000000000000000000000000000000000000000000000000000815260206004820152600e60248201527f4e6f7420617574686f72697a65640000000000000000000000000000000000006044820152606401610542565b73ffffffffffffffffffffffffffffffffffffffff81166000908152602081905260409020541561099e5773ffffffffffffffffffffffffffffffffffffffff8116600090815260208190526040812081815560019081018290558054909182916109579083906110d1565b909155505060405173ffffffffffffffffffffffffffffffffffffffff8216907fb37cf8eece8b5e64575d707079155f564741a1a9523c32d65196063452c4065b90600090a25b50565b73ffffffffffffffffffffffffffffffffffffffff81166000908152602081905260408120546103d8565b60007fffffffff0000000000000000000000000000000000000000000000000000000082167f7965db0b0000000000000000000000000000000000000000000000000000000014806103d857507f01ffc9a7000000000000000000000000000000000000000000000000000000007fffffffff000000000000000000000000000000000000000000000000000000008316146103d8565b61099e8133610b28565b60007fc1f6fe24621ce81ec5827caf0253cadb74709b061630e6b55e8237170593200081610a9b8585610bd3565b9050801561078f576000858152602083905260409020610abb9085610cf4565b50949350505050565b60007fc1f6fe24621ce81ec5827caf0253cadb74709b061630e6b55e8237170593200081610af28585610d16565b9050801561078f576000858152602083905260409020610abb9085610df4565b60006107cf8383610e16565b60006103d8825490565b60008281527f02dd7bc7dec4dceedda775e58dd541e08a116c6c53815c0bd028192f7b6268006020908152604080832073ffffffffffffffffffffffffffffffffffffffff8516845290915290205460ff16610bcf576040517fe2517d3f00000000000000000000000000000000000000000000000000000000815273ffffffffffffffffffffffffffffffffffffffff8216600482015260248101839052604401610542565b5050565b60008281527f02dd7bc7dec4dceedda775e58dd541e08a116c6c53815c0bd028192f7b6268006020818152604080842073ffffffffffffffffffffffffffffffffffffffff8616855290915282205460ff16610cea5760008481526020828152604080832073ffffffffffffffffffffffffffffffffffffffff87168452909152902080547fffffffffffffffffffffffffffffffffffffffffffffffffffffffffffffff00166001179055610c863390565b73ffffffffffffffffffffffffffffffffffffffff168373ffffffffffffffffffffffffffffffffffffffff16857f2f8788117e7eff1d82e926ec794901d17c78024a50270940304540a733656f0d60405160405180910390a460019150506103d8565b60009150506103d8565b60006107cf8373ffffffffffffffffffffffffffffffffffffffff8416610e40565b60008281527f02dd7bc7dec4dceedda775e58dd541e08a116c6c53815c0bd028192f7b6268006020818152604080842073ffffffffffffffffffffffffffffffffffffffff8616855290915282205460ff1615610cea5760008481526020828152604080832073ffffffffffffffffffffffffffffffffffffffff8716808552925280832080547fffffffffffffffffffffffffffffffffffffffffffffffffffffffffffffff0016905551339287917ff6391f5c32d9c69d2a47ea670b442974b53935d1edc7fd64eb21e047a839171b9190a460019150506103d8565b60006107cf8373ffffffffffffffffffffffffffffffffffffffff8416610e8f565b6000826000018281548110610e2d57610e2d6110e4565b9060005260206000200154905092915050565b6000818152600183016020526040812054610e87575081546001818101845560008481526020808220909301849055845484825282860190935260409020919091556103d8565b5060006103d8565b60008181526001830160205260408120548015610cea576000610eb36001836110d1565b8554909150600090610ec7906001906110d1565b9050808214610f2c576000866000018281548110610ee757610ee76110e4565b9060005260206000200154905080876000018481548110610f0a57610f0a6110e4565b6000918252602080832090910192909255918252600188019052604090208390555b8554869080610f3d57610f3d611113565b6001900381819060005260206000200160009055905585600101600086815260200190815260200160002060009055600193505050506103d8565b600060208284031215610f8a57600080fd5b81357fffffffff00000000000000000000000000000000000000000000000000000000811681146107cf57600080fd5b803573ffffffffffffffffffffffffffffffffffffffff81168114610fde57600080fd5b919050565b600060208284031215610ff557600080fd5b6107cf82610fba565b60006020828403121561101057600080fd5b5035919050565b6000806040838503121561102a57600080fd5b8235915061103a60208401610fba565b90509250929050565b6000806040838503121561105657600080fd5b61105f83610fba565b946020939093013593505050565b6000806040838503121561108057600080fd5b50508035926020909101359150565b7f4e487b7100000000000000000000000000000000000000000000000000000000600052601160045260246000fd5b808201808211156103d8576103d861108f565b818103818111156103d8576103d861108f565b7f4e487b7100000000000000000000000000000000000000000000000000000000600052603260045260246000fd5b7f4e487b7100000000000000000000000000000000000000000000000000000000600052603160045260246000fdfea26469706673582212208db8fd80aeaebf13b7768e27dbf492f9ade170324761504b6ddf5c1bbd44a2cd64736f6c63430008140033",
  "linkReferences": {},
  "deployedLinkReferences": {}
}