{
  "_format": "hh-sol-artifact-1",
  "contractName": "SNOSBT",
  "sourceName": "contracts/airdao-sno-sbt/SNO-SBT.sol",
  "abi": [
    {
      "inputs": [],
      "stateMutability": "nonpayable",
      "type": "constructor"
    },
    {
      "inputs": [],
      "name": "AccessControlBadConfirmation",
      "type": "error"
    },
    {
      "inputs": [
        {
          "internalType": "address",
          "name": "account",
          "type": "address"
        },
        {
          "internalType": "bytes32",
          "name": "neededRole",
          "type": "bytes32"
        }
      ],
      "name": "AccessControlUnauthorizedAccount",
      "type": "error"
    },
    {
      "inputs": [],
      "name": "InvalidInitialization",
      "type": "error"
    },
    {
      "inputs": [],
      "name": "NotInitializing",
      "type": "error"
    },
    {
      "anonymous": false,
      "inputs": [
        {
          "indexed": false,
          "internalType": "uint64",
          "name": "version",
          "type": "uint64"
        }
      ],
      "name": "Initialized",
      "type": "event"
    },
    {
      "anonymous": false,
      "inputs": [
        {
          "indexed": true,
          "internalType": "bytes32",
          "name": "role",
          "type": "bytes32"
        },
        {
          "indexed": true,
          "internalType": "bytes32",
          "name": "previousAdminRole",
          "type": "bytes32"
        },
        {
          "indexed": true,
          "internalType": "bytes32",
          "name": "newAdminRole",
          "type": "bytes32"
        }
      ],
      "name": "RoleAdminChanged",
      "type": "event"
    },
    {
      "anonymous": false,
      "inputs": [
        {
          "indexed": true,
          "internalType": "bytes32",
          "name": "role",
          "type": "bytes32"
        },
        {
          "indexed": true,
          "internalType": "address",
          "name": "account",
          "type": "address"
        },
        {
          "indexed": true,
          "internalType": "address",
          "name": "sender",
          "type": "address"
        }
      ],
      "name": "RoleGranted",
      "type": "event"
    },
    {
      "anonymous": false,
      "inputs": [
        {
          "indexed": true,
          "internalType": "bytes32",
          "name": "role",
          "type": "bytes32"
        },
        {
          "indexed": true,
          "internalType": "address",
          "name": "account",
          "type": "address"
        },
        {
          "indexed": true,
          "internalType": "address",
          "name": "sender",
          "type": "address"
        }
      ],
      "name": "RoleRevoked",
      "type": "event"
    },
    {
      "anonymous": false,
      "inputs": [
        {
          "indexed": true,
          "internalType": "address",
          "name": "govWallet",
          "type": "address"
        }
      ],
      "name": "SBTBurn",
      "type": "event"
    },
    {
      "anonymous": false,
      "inputs": [
        {
          "indexed": true,
          "internalType": "address",
          "name": "govWallet",
          "type": "address"
        },
        {
          "indexed": true,
          "internalType": "address",
          "name": "snoWallet",
          "type": "address"
        }
      ],
      "name": "SBTMint",
      "type": "event"
    },
    {
      "inputs": [],
      "name": "DEFAULT_ADMIN_ROLE",
      "outputs": [
        {
          "internalType": "bytes32",
          "name": "",
          "type": "bytes32"
        }
      ],
      "stateMutability": "view",
      "type": "function"
    },
    {
      "inputs": [],
      "name": "ISSUER_ROLE",
      "outputs": [
        {
          "internalType": "bytes32",
          "name": "",
          "type": "bytes32"
        }
      ],
      "stateMutability": "view",
      "type": "function"
    },
    {
      "inputs": [],
      "name": "VOTING_MODERATOR_ROLE",
      "outputs": [
        {
          "internalType": "bytes32",
          "name": "",
          "type": "bytes32"
        }
      ],
      "stateMutability": "view",
      "type": "function"
    },
    {
      "inputs": [
        {
          "internalType": "bytes32",
          "name": "role",
          "type": "bytes32"
        }
      ],
      "name": "getRoleAdmin",
      "outputs": [
        {
          "internalType": "bytes32",
          "name": "",
          "type": "bytes32"
        }
      ],
      "stateMutability": "view",
      "type": "function"
    },
    {
      "inputs": [
        {
          "internalType": "bytes32",
          "name": "role",
          "type": "bytes32"
        },
        {
          "internalType": "uint256",
          "name": "index",
          "type": "uint256"
        }
      ],
      "name": "getRoleMember",
      "outputs": [
        {
          "internalType": "address",
          "name": "",
          "type": "address"
        }
      ],
      "stateMutability": "view",
      "type": "function"
    },
    {
      "inputs": [
        {
          "internalType": "bytes32",
          "name": "role",
          "type": "bytes32"
        }
      ],
      "name": "getRoleMemberCount",
      "outputs": [
        {
          "internalType": "uint256",
          "name": "",
          "type": "uint256"
        }
      ],
      "stateMutability": "view",
      "type": "function"
    },
    {
      "inputs": [],
      "name": "getTotalVotingMultiplier",
      "outputs": [
        {
          "internalType": "uint256",
          "name": "",
          "type": "uint256"
        }
      ],
      "stateMutability": "view",
      "type": "function"
    },
    {
      "inputs": [
        {
          "internalType": "address",
          "name": "govWallet",
          "type": "address"
        }
      ],
      "name": "getUserVotingMultiplierByWallet",
      "outputs": [
        {
          "internalType": "uint256",
          "name": "",
          "type": "uint256"
        }
      ],
      "stateMutability": "view",
      "type": "function"
    },
    {
      "inputs": [],
      "name": "getVotingMultiplier",
      "outputs": [
        {
          "internalType": "uint256",
          "name": "",
          "type": "uint256"
        }
      ],
      "stateMutability": "view",
      "type": "function"
    },
    {
      "inputs": [
        {
          "internalType": "bytes32",
          "name": "role",
          "type": "bytes32"
        },
        {
          "internalType": "address",
          "name": "account",
          "type": "address"
        }
      ],
      "name": "grantRole",
      "outputs": [],
      "stateMutability": "nonpayable",
      "type": "function"
    },
    {
      "inputs": [
        {
          "internalType": "bytes32",
          "name": "role",
          "type": "bytes32"
        },
        {
          "internalType": "address",
          "name": "account",
          "type": "address"
        }
      ],
      "name": "hasRole",
      "outputs": [
        {
          "internalType": "bool",
          "name": "",
          "type": "bool"
        }
      ],
      "stateMutability": "view",
      "type": "function"
    },
    {
      "inputs": [],
      "name": "initialize",
      "outputs": [],
      "stateMutability": "nonpayable",
      "type": "function"
    },
    {
      "inputs": [
        {
          "internalType": "bytes32",
          "name": "role",
          "type": "bytes32"
        },
        {
          "internalType": "address",
          "name": "callerConfirmation",
          "type": "address"
        }
      ],
      "name": "renounceRole",
      "outputs": [],
      "stateMutability": "nonpayable",
      "type": "function"
    },
    {
      "inputs": [
        {
          "internalType": "bytes32",
          "name": "role",
          "type": "bytes32"
        },
        {
          "internalType": "address",
          "name": "account",
          "type": "address"
        }
      ],
      "name": "revokeRole",
      "outputs": [],
      "stateMutability": "nonpayable",
      "type": "function"
    },
    {
      "inputs": [
        {
          "internalType": "address",
          "name": "govWallet",
          "type": "address"
        }
      ],
      "name": "sbtBurn",
      "outputs": [],
      "stateMutability": "nonpayable",
      "type": "function"
    },
    {
      "inputs": [
        {
          "internalType": "address",
          "name": "govWallet",
          "type": "address"
        }
      ],
      "name": "sbtExists",
      "outputs": [
        {
          "internalType": "bool",
          "name": "",
          "type": "bool"
        }
      ],
      "stateMutability": "view",
      "type": "function"
    },
    {
      "inputs": [
        {
          "internalType": "address",
          "name": "govWallet",
          "type": "address"
        }
      ],
      "name": "sbtIssuedAt",
      "outputs": [
        {
          "internalType": "uint256",
          "name": "",
          "type": "uint256"
        }
      ],
      "stateMutability": "view",
      "type": "function"
    },
    {
      "inputs": [
        {
          "internalType": "address",
          "name": "govWallet",
          "type": "address"
        },
        {
          "internalType": "address",
          "name": "snoWallet",
          "type": "address"
        }
      ],
      "name": "sbtMint",
      "outputs": [],
      "stateMutability": "nonpayable",
      "type": "function"
    },
    {
      "inputs": [
        {
          "internalType": "address",
          "name": "govWallet",
          "type": "address"
        }
      ],
      "name": "sbtVerify",
      "outputs": [
        {
          "internalType": "uint256",
          "name": "",
          "type": "uint256"
        }
      ],
      "stateMutability": "view",
      "type": "function"
    },
    {
      "inputs": [
        {
          "internalType": "uint256",
          "name": "multiplier",
          "type": "uint256"
        }
      ],
      "name": "setVotingMultiplier",
      "outputs": [],
      "stateMutability": "nonpayable",
      "type": "function"
    },
    {
      "inputs": [
        {
          "internalType": "bytes4",
          "name": "interfaceId",
          "type": "bytes4"
        }
      ],
      "name": "supportsInterface",
      "outputs": [
        {
          "internalType": "bool",
          "name": "",
          "type": "bool"
        }
      ],
      "stateMutability": "view",
      "type": "function"
    },
    {
      "inputs": [],
      "name": "totalSupply",
      "outputs": [
        {
          "internalType": "uint256",
          "name": "",
          "type": "uint256"
        }
      ],
      "stateMutability": "view",
      "type": "function"
    }
  ],
  "bytecode": "0x608060405234801561001057600080fd5b50610022640100000000610027810204565b61010c565b600061003a6401000000006100e8810204565b805490915068010000000000000000900460ff1615610085576040517ff92ee8a900000000000000000000000000000000000000000000000000000000815260040160405180910390fd5b80546001604060020a03908116146100e557805467ffffffffffffffff19166001604060020a0390811782556040519081527fc7f505b2f371ae2175ee4913f4499e1f2633a7b5936321eed1cdaeb6115181d29060200160405180910390a15b50565b7ff0c57e16840df040f15088dc2f81fe391c3923bec73e23a9662efc9c229c6a0090565b6114b28061011b6000396000f3fe608060405234801561001057600080fd5b506004361061019f576000357c01000000000000000000000000000000000000000000000000000000009004806382aefa24116100f5578063a217fddf116100a9578063d547741f11610083578063d547741f1461040d578063eac70dfc14610420578063ee6ff81a1461043357600080fd5b8063a217fddf146103df578063c0133752146103e7578063ca15c873146103fa57600080fd5b806390fdd589116100da57806390fdd5891461035457806391d14854146103675780639c8f1126146103cc57600080fd5b806382aefa24146102f55780639010d07c1461031c57600080fd5b806332ce7c0a116101575780636ee1cf06116101315780636ee1cf06146102af578063788c4202146102e55780638129fc1c146102ed57600080fd5b806332ce7c0a1461026d57806336568abe146102755780633fee7b0d1461028857600080fd5b806318160ddd1161018857806318160ddd14610204578063248a9ca3146102165780632f2ff15d1461025857600080fd5b806301ffc9a7146101a45780630f6d50dc146101cc575b600080fd5b6101b76101b236600461129b565b610446565b60405190151581526020015b60405180910390f35b6101b76101da366004611306565b73ffffffffffffffffffffffffffffffffffffffff16600090815260208190526040902054151590565b6002545b6040519081526020016101c3565b610208610224366004611321565b60009081527f02dd7bc7dec4dceedda775e58dd541e08a116c6c53815c0bd028192f7b626800602052604090206001015490565b61026b61026636600461133a565b6104a2565b005b6102086104ec565b61026b61028336600461133a565b610503565b6102087fa2e8fe7c00f159dc6d97ca8f61c83aa484a94b4677735133e05a1d3cf58ac69181565b6102086102bd366004611306565b73ffffffffffffffffffffffffffffffffffffffff1660009081526020819052604090205490565b600354610208565b61026b610561565b6102087f114e74f6ea3bd819998f78687bfcb11b140da08e9b7d222fa9c1f1ba1f2aa12281565b61032f61032a366004611366565b6106ef565b60405173ffffffffffffffffffffffffffffffffffffffff90911681526020016101c3565b610208610362366004611306565b610730565b6101b761037536600461133a565b60009182527f02dd7bc7dec4dceedda775e58dd541e08a116c6c53815c0bd028192f7b6268006020908152604080842073ffffffffffffffffffffffffffffffffffffffff93909316845291905290205460ff1690565b61026b6103da366004611321565b61076a565b610208600081565b61026b6103f5366004611388565b610845565b610208610408366004611321565b610a73565b61026b61041b36600461133a565b610ab2565b61026b61042e366004611306565b610af6565b610208610441366004611306565b610cc4565b60007fffffffff0000000000000000000000000000000000000000000000000000000082167f5a05180f00000000000000000000000000000000000000000000000000000000148061049c575061049c82610cef565b92915050565b60008281527f02dd7bc7dec4dceedda775e58dd541e08a116c6c53815c0bd028192f7b62680060205260409020600101546104dc81610d86565b6104e68383610d90565b50505050565b60006002546003546104fe91906113e1565b905090565b73ffffffffffffffffffffffffffffffffffffffff81163314610552576040517f6697b23200000000000000000000000000000000000000000000000000000000815260040160405180910390fd5b61055c8282610de7565b505050565b7ff0c57e16840df040f15088dc2f81fe391c3923bec73e23a9662efc9c229c6a00805468010000000000000000810460ff16159067ffffffffffffffff166000811580156105ac5750825b905060008267ffffffffffffffff1660011480156105c95750303b155b9050811580156105d7575080155b1561060e576040517ff92ee8a900000000000000000000000000000000000000000000000000000000815260040160405180910390fd5b84547fffffffffffffffffffffffffffffffffffffffffffffffff0000000000000000166001178555831561066f5784547fffffffffffffffffffffffffffffffffffffffffffffff00ffffffffffffffff16680100000000000000001785555b600060028190556108346003556106869033610d90565b5083156106e85784547fffffffffffffffffffffffffffffffffffffffffffffff00ffffffffffffffff168555604051600181527fc7f505b2f371ae2175ee4913f4499e1f2633a7b5936321eed1cdaeb6115181d29060200160405180910390a15b5050505050565b60008281527fc1f6fe24621ce81ec5827caf0253cadb74709b061630e6b55e823717059320006020819052604082206107289084610e35565b949350505050565b73ffffffffffffffffffffffffffffffffffffffff811660009081526020819052604081205461076257506000919050565b60035461049c565b3360009081527fd899505834629eb300e74c720bc2ccfa64c67750c977fb28a4698835213ef6c8602052604090205460ff16806107d557503360009081527fb7db2dd08fcb62d0c9e08c51941cae53c267786a0b75803fb7960902fc8ef97d602052604090205460ff165b610840576040517f08c379a000000000000000000000000000000000000000000000000000000000815260206004820152600e60248201527f4e6f7420617574686f72697a656400000000000000000000000000000000000060448201526064015b60405180910390fd5b600355565b7f114e74f6ea3bd819998f78687bfcb11b140da08e9b7d222fa9c1f1ba1f2aa12261086f81610d86565b828261089f8273ffffffffffffffffffffffffffffffffffffffff16600090815260208190526040902054151590565b15610906576040517f08c379a000000000000000000000000000000000000000000000000000000000815260206004820152601e60248201527f54686973206b696e64206f662053425420616c726561647920657869737400006044820152606401610837565b73ffffffffffffffffffffffffffffffffffffffff81811660009081526001602052604090205416156109bb576040517f08c379a000000000000000000000000000000000000000000000000000000000815260206004820152603560248201527f57616c6c657420686173206265656e20616c7265616479207573656420746f2060448201527f6d696e742074686973206b696e64206f662053425400000000000000000000006064820152608401610837565b6001600260008282546109ce91906113f8565b909155505073ffffffffffffffffffffffffffffffffffffffff80851660008181526001602081815260408084208054968c167fffffffffffffffffffffffff000000000000000000000000000000000000000097881681179091558085529184905280842042815590920180549095168417909455519192917fec517472143379d88d10fcb50037af41e880677081d0b233149c3d70b9f5b9369190a35050505050565b60008181527fc1f6fe24621ce81ec5827caf0253cadb74709b061630e6b55e82371705932000602081905260408220610aab90610e41565b9392505050565b60008281527f02dd7bc7dec4dceedda775e58dd541e08a116c6c53815c0bd028192f7b6268006020526040902060010154610aec81610d86565b6104e68383610de7565b3360009081527fecfb03a241cc67499591701273c9840824101e710aea92d3ca0339671f5c64c0602052604090205460ff1680610b6157503360009081527fb7db2dd08fcb62d0c9e08c51941cae53c267786a0b75803fb7960902fc8ef97d602052604090205460ff165b610bc7576040517f08c379a000000000000000000000000000000000000000000000000000000000815260206004820152600e60248201527f4e6f7420617574686f72697a65640000000000000000000000000000000000006044820152606401610837565b73ffffffffffffffffffffffffffffffffffffffff811660009081526020819052604090205415610cc15773ffffffffffffffffffffffffffffffffffffffff80821660008181526020818152604080832060018181018054909716855280845291842080547fffffffffffffffffffffffff0000000000000000000000000000000000000000908116909155948452918390529082905583549092169092556002805491929091610c7a90849061140b565b909155505060405173ffffffffffffffffffffffffffffffffffffffff8216907fb37cf8eece8b5e64575d707079155f564741a1a9523c32d65196063452c4065b90600090a25b50565b73ffffffffffffffffffffffffffffffffffffffff811660009081526020819052604081205461049c565b60007fffffffff0000000000000000000000000000000000000000000000000000000082167f7965db0b00000000000000000000000000000000000000000000000000000000148061049c57507f01ffc9a7000000000000000000000000000000000000000000000000000000007fffffffff0000000000000000000000000000000000000000000000000000000083161461049c565b610cc18133610e4b565b60007fc1f6fe24621ce81ec5827caf0253cadb74709b061630e6b55e8237170593200081610dbe8585610ef6565b90508015610728576000858152602083905260409020610dde9085611017565b50949350505050565b60007fc1f6fe24621ce81ec5827caf0253cadb74709b061630e6b55e8237170593200081610e158585611039565b90508015610728576000858152602083905260409020610dde9085611117565b6000610aab8383611139565b600061049c825490565b60008281527f02dd7bc7dec4dceedda775e58dd541e08a116c6c53815c0bd028192f7b6268006020908152604080832073ffffffffffffffffffffffffffffffffffffffff8516845290915290205460ff16610ef2576040517fe2517d3f00000000000000000000000000000000000000000000000000000000815273ffffffffffffffffffffffffffffffffffffffff8216600482015260248101839052604401610837565b5050565b60008281527f02dd7bc7dec4dceedda775e58dd541e08a116c6c53815c0bd028192f7b6268006020818152604080842073ffffffffffffffffffffffffffffffffffffffff8616855290915282205460ff1661100d5760008481526020828152604080832073ffffffffffffffffffffffffffffffffffffffff87168452909152902080547fffffffffffffffffffffffffffffffffffffffffffffffffffffffffffffff00166001179055610fa93390565b73ffffffffffffffffffffffffffffffffffffffff168373ffffffffffffffffffffffffffffffffffffffff16857f2f8788117e7eff1d82e926ec794901d17c78024a50270940304540a733656f0d60405160405180910390a4600191505061049c565b600091505061049c565b6000610aab8373ffffffffffffffffffffffffffffffffffffffff8416611163565b60008281527f02dd7bc7dec4dceedda775e58dd541e08a116c6c53815c0bd028192f7b6268006020818152604080842073ffffffffffffffffffffffffffffffffffffffff8616855290915282205460ff161561100d5760008481526020828152604080832073ffffffffffffffffffffffffffffffffffffffff8716808552925280832080547fffffffffffffffffffffffffffffffffffffffffffffffffffffffffffffff0016905551339287917ff6391f5c32d9c69d2a47ea670b442974b53935d1edc7fd64eb21e047a839171b9190a4600191505061049c565b6000610aab8373ffffffffffffffffffffffffffffffffffffffff84166111b2565b60008260000182815481106111505761115061141e565b9060005260206000200154905092915050565b60008181526001830160205260408120546111aa5750815460018181018455600084815260208082209093018490558454848252828601909352604090209190915561049c565b50600061049c565b6000818152600183016020526040812054801561100d5760006111d660018361140b565b85549091506000906111ea9060019061140b565b905080821461124f57600086600001828154811061120a5761120a61141e565b906000526020600020015490508087600001848154811061122d5761122d61141e565b6000918252602080832090910192909255918252600188019052604090208390555b85548690806112605761126061144d565b60019003818190600052602060002001600090559055856001016000868152602001908152602001600020600090556001935050505061049c565b6000602082840312156112ad57600080fd5b81357fffffffff0000000000000000000000000000000000000000000000000000000081168114610aab57600080fd5b803573ffffffffffffffffffffffffffffffffffffffff8116811461130157600080fd5b919050565b60006020828403121561131857600080fd5b610aab826112dd565b60006020828403121561133357600080fd5b5035919050565b6000806040838503121561134d57600080fd5b8235915061135d602084016112dd565b90509250929050565b6000806040838503121561137957600080fd5b50508035926020909101359150565b6000806040838503121561139b57600080fd5b6113a4836112dd565b915061135d602084016112dd565b7f4e487b7100000000000000000000000000000000000000000000000000000000600052601160045260246000fd5b808202811582820484141761049c5761049c6113b2565b8082018082111561049c5761049c6113b2565b8181038181111561049c5761049c6113b2565b7f4e487b7100000000000000000000000000000000000000000000000000000000600052603260045260246000fd5b7f4e487b7100000000000000000000000000000000000000000000000000000000600052603160045260246000fdfea2646970667358221220e2516008bc728c1da5948c7123318d98506cd68431dfd31617766cf9cc75510a64736f6c63430008140033",
  "linkReferences": {},
  "deployedLinkReferences": {}
}