{
  "_format": "hh-sol-artifact-1",
  "contractName": "SNOSBT",
  "sourceName": "contracts/airdao-sno-sbt/SNO-SBT.sol",
  "abi": [
    {
      "inputs": [],
      "stateMutability": "nonpayable",
      "type": "constructor"
    },
    {
      "inputs": [],
      "name": "AccessControlBadConfirmation",
      "type": "error"
    },
    {
      "inputs": [
        {
          "internalType": "address",
          "name": "account",
          "type": "address"
        },
        {
          "internalType": "bytes32",
          "name": "neededRole",
          "type": "bytes32"
        }
      ],
      "name": "AccessControlUnauthorizedAccount",
      "type": "error"
    },
    {
      "inputs": [],
      "name": "InvalidInitialization",
      "type": "error"
    },
    {
      "inputs": [],
      "name": "NotInitializing",
      "type": "error"
    },
    {
      "anonymous": false,
      "inputs": [
        {
          "indexed": false,
          "internalType": "uint64",
          "name": "version",
          "type": "uint64"
        }
      ],
      "name": "Initialized",
      "type": "event"
    },
    {
      "anonymous": false,
      "inputs": [
        {
          "indexed": true,
          "internalType": "bytes32",
          "name": "role",
          "type": "bytes32"
        },
        {
          "indexed": true,
          "internalType": "bytes32",
          "name": "previousAdminRole",
          "type": "bytes32"
        },
        {
          "indexed": true,
          "internalType": "bytes32",
          "name": "newAdminRole",
          "type": "bytes32"
        }
      ],
      "name": "RoleAdminChanged",
      "type": "event"
    },
    {
      "anonymous": false,
      "inputs": [
        {
          "indexed": true,
          "internalType": "bytes32",
          "name": "role",
          "type": "bytes32"
        },
        {
          "indexed": true,
          "internalType": "address",
          "name": "account",
          "type": "address"
        },
        {
          "indexed": true,
          "internalType": "address",
          "name": "sender",
          "type": "address"
        }
      ],
      "name": "RoleGranted",
      "type": "event"
    },
    {
      "anonymous": false,
      "inputs": [
        {
          "indexed": true,
          "internalType": "bytes32",
          "name": "role",
          "type": "bytes32"
        },
        {
          "indexed": true,
          "internalType": "address",
          "name": "account",
          "type": "address"
        },
        {
          "indexed": true,
          "internalType": "address",
          "name": "sender",
          "type": "address"
        }
      ],
      "name": "RoleRevoked",
      "type": "event"
    },
    {
      "anonymous": false,
      "inputs": [
        {
          "indexed": true,
          "internalType": "address",
          "name": "govWallet",
          "type": "address"
        }
      ],
      "name": "SBTBurn",
      "type": "event"
    },
    {
      "anonymous": false,
      "inputs": [
        {
          "indexed": true,
          "internalType": "address",
          "name": "govWallet",
          "type": "address"
        },
        {
          "indexed": true,
          "internalType": "address",
          "name": "snoWallet",
          "type": "address"
        }
      ],
      "name": "SBTMint",
      "type": "event"
    },
    {
      "inputs": [],
      "name": "DEFAULT_ADMIN_ROLE",
      "outputs": [
        {
          "internalType": "bytes32",
          "name": "",
          "type": "bytes32"
        }
      ],
      "stateMutability": "view",
      "type": "function"
    },
    {
      "inputs": [],
      "name": "ISSUER_ROLE",
      "outputs": [
        {
          "internalType": "bytes32",
          "name": "",
          "type": "bytes32"
        }
      ],
      "stateMutability": "view",
      "type": "function"
    },
    {
      "inputs": [],
      "name": "VOTING_MODERATOR_ROLE",
      "outputs": [
        {
          "internalType": "bytes32",
          "name": "",
          "type": "bytes32"
        }
      ],
      "stateMutability": "view",
      "type": "function"
    },
    {
      "inputs": [
        {
          "internalType": "uint256",
          "name": "value",
          "type": "uint256"
        }
      ],
      "name": "editMaxTimeSinceLastReward",
      "outputs": [],
      "stateMutability": "nonpayable",
      "type": "function"
    },
    {
      "inputs": [
        {
          "internalType": "bytes32",
          "name": "role",
          "type": "bytes32"
        }
      ],
      "name": "getRoleAdmin",
      "outputs": [
        {
          "internalType": "bytes32",
          "name": "",
          "type": "bytes32"
        }
      ],
      "stateMutability": "view",
      "type": "function"
    },
    {
      "inputs": [
        {
          "internalType": "bytes32",
          "name": "role",
          "type": "bytes32"
        },
        {
          "internalType": "uint256",
          "name": "index",
          "type": "uint256"
        }
      ],
      "name": "getRoleMember",
      "outputs": [
        {
          "internalType": "address",
          "name": "",
          "type": "address"
        }
      ],
      "stateMutability": "view",
      "type": "function"
    },
    {
      "inputs": [
        {
          "internalType": "bytes32",
          "name": "role",
          "type": "bytes32"
        }
      ],
      "name": "getRoleMemberCount",
      "outputs": [
        {
          "internalType": "uint256",
          "name": "",
          "type": "uint256"
        }
      ],
      "stateMutability": "view",
      "type": "function"
    },
    {
      "inputs": [],
      "name": "getTotalVotingMultiplier",
      "outputs": [
        {
          "internalType": "uint256",
          "name": "",
          "type": "uint256"
        }
      ],
      "stateMutability": "view",
      "type": "function"
    },
    {
      "inputs": [
        {
          "internalType": "address",
          "name": "govWallet",
          "type": "address"
        }
      ],
      "name": "getUserVotingMultiplierByWallet",
      "outputs": [
        {
          "internalType": "uint256",
          "name": "",
          "type": "uint256"
        }
      ],
      "stateMutability": "view",
      "type": "function"
    },
    {
      "inputs": [],
      "name": "getVotingMultiplier",
      "outputs": [
        {
          "internalType": "uint256",
          "name": "",
          "type": "uint256"
        }
      ],
      "stateMutability": "view",
      "type": "function"
    },
    {
      "inputs": [
        {
          "internalType": "bytes32",
          "name": "role",
          "type": "bytes32"
        },
        {
          "internalType": "address",
          "name": "account",
          "type": "address"
        }
      ],
      "name": "grantRole",
      "outputs": [],
      "stateMutability": "nonpayable",
      "type": "function"
    },
    {
      "inputs": [
        {
          "internalType": "bytes32",
          "name": "role",
          "type": "bytes32"
        },
        {
          "internalType": "address",
          "name": "account",
          "type": "address"
        }
      ],
      "name": "hasRole",
      "outputs": [
        {
          "internalType": "bool",
          "name": "",
          "type": "bool"
        }
      ],
      "stateMutability": "view",
      "type": "function"
    },
    {
      "inputs": [],
      "name": "initialize",
      "outputs": [],
      "stateMutability": "nonpayable",
      "type": "function"
    },
    {
      "inputs": [],
      "name": "maxTimeSinceLastReward",
      "outputs": [
        {
          "internalType": "uint256",
          "name": "",
          "type": "uint256"
        }
      ],
      "stateMutability": "view",
      "type": "function"
    },
    {
      "inputs": [
        {
          "internalType": "bytes32",
          "name": "role",
          "type": "bytes32"
        },
        {
          "internalType": "address",
          "name": "callerConfirmation",
          "type": "address"
        }
      ],
      "name": "renounceRole",
      "outputs": [],
      "stateMutability": "nonpayable",
      "type": "function"
    },
    {
      "inputs": [
        {
          "internalType": "bytes32",
          "name": "role",
          "type": "bytes32"
        },
        {
          "internalType": "address",
          "name": "account",
          "type": "address"
        }
      ],
      "name": "revokeRole",
      "outputs": [],
      "stateMutability": "nonpayable",
      "type": "function"
    },
    {
      "inputs": [
        {
          "internalType": "address",
          "name": "govWallet",
          "type": "address"
        }
      ],
      "name": "sbtBurn",
      "outputs": [],
      "stateMutability": "nonpayable",
      "type": "function"
    },
    {
      "inputs": [
        {
          "internalType": "address",
          "name": "govWallet",
          "type": "address"
        }
      ],
      "name": "sbtExists",
      "outputs": [
        {
          "internalType": "bool",
          "name": "",
          "type": "bool"
        }
      ],
      "stateMutability": "view",
      "type": "function"
    },
    {
      "inputs": [
        {
          "internalType": "address",
          "name": "govWallet",
          "type": "address"
        }
      ],
      "name": "sbtIssuedAt",
      "outputs": [
        {
          "internalType": "uint256",
          "name": "",
          "type": "uint256"
        }
      ],
      "stateMutability": "view",
      "type": "function"
    },
    {
      "inputs": [
        {
          "internalType": "address",
          "name": "govWallet",
          "type": "address"
        },
        {
          "internalType": "address",
          "name": "snoWallet",
          "type": "address"
        },
        {
          "internalType": "contract IServerNodes_Manager",
          "name": "manager",
          "type": "address"
        }
      ],
      "name": "sbtMint",
      "outputs": [],
      "stateMutability": "nonpayable",
      "type": "function"
    },
    {
      "inputs": [
        {
          "internalType": "address",
          "name": "govWallet",
          "type": "address"
        }
      ],
      "name": "sbtVerify",
      "outputs": [
        {
          "internalType": "uint256",
          "name": "",
          "type": "uint256"
        }
      ],
      "stateMutability": "view",
      "type": "function"
    },
    {
      "inputs": [
        {
          "internalType": "uint256",
          "name": "multiplier",
          "type": "uint256"
        }
      ],
      "name": "setVotingMultiplier",
      "outputs": [],
      "stateMutability": "nonpayable",
      "type": "function"
    },
    {
      "inputs": [
        {
          "internalType": "bytes4",
          "name": "interfaceId",
          "type": "bytes4"
        }
      ],
      "name": "supportsInterface",
      "outputs": [
        {
          "internalType": "bool",
          "name": "",
          "type": "bool"
        }
      ],
      "stateMutability": "view",
      "type": "function"
    },
    {
      "inputs": [],
      "name": "totalSupply",
      "outputs": [
        {
          "internalType": "uint256",
          "name": "",
          "type": "uint256"
        }
      ],
      "stateMutability": "view",
      "type": "function"
    }
  ],
  "bytecode": "0x608060405234801561001057600080fd5b50610022640100000000610027810204565b61010c565b600061003a6401000000006100e8810204565b805490915068010000000000000000900460ff1615610085576040517ff92ee8a900000000000000000000000000000000000000000000000000000000815260040160405180910390fd5b80546001604060020a03908116146100e557805467ffffffffffffffff19166001604060020a0390811782556040519081527fc7f505b2f371ae2175ee4913f4499e1f2633a7b5936321eed1cdaeb6115181d29060200160405180910390a15b50565b7ff0c57e16840df040f15088dc2f81fe391c3923bec73e23a9662efc9c229c6a0090565b6119818061011b6000396000f3fe608060405234801561001057600080fd5b50600436106101b5576000357c010000000000000000000000000000000000000000000000000000000090048063788c4202116101005780639c8f1126116100a9578063d547741f11610083578063d547741f1461043f578063eac70dfc14610452578063ee6ff81a1461046557600080fd5b80639c8f112614610411578063a217fddf14610424578063ca15c8731461042c57600080fd5b80639010d07c116100da5780639010d07c1461036157806390fdd5891461039957806391d14854146103ac57600080fd5b8063788c42021461032a5780638129fc1c1461033257806382aefa241461033a57600080fd5b806336568abe116101625780636ee1cf061161013c5780636ee1cf06146102d85780636f3f323c1461030e5780637807518b1461032157600080fd5b806336568abe1461028b5780633fee7b0d1461029e5780636c69efc9146102c557600080fd5b8063248a9ca311610193578063248a9ca31461022c5780632f2ff15d1461026e57806332ce7c0a1461028357600080fd5b806301ffc9a7146101ba5780630f6d50dc146101e257806318160ddd1461021a575b600080fd5b6101cd6101c83660046115bb565b610478565b60405190151581526020015b60405180910390f35b6101cd6101f036600461161f565b73ffffffffffffffffffffffffffffffffffffffff16600090815260208190526040902054151590565b6002545b6040519081526020016101d9565b61021e61023a36600461163c565b60009081527f02dd7bc7dec4dceedda775e58dd541e08a116c6c53815c0bd028192f7b626800602052604090206001015490565b61028161027c366004611655565b6104d4565b005b61021e61051e565b610281610299366004611655565b610535565b61021e7fa2e8fe7c00f159dc6d97ca8f61c83aa484a94b4677735133e05a1d3cf58ac69181565b6102816102d3366004611685565b610593565b61021e6102e636600461161f565b73ffffffffffffffffffffffffffffffffffffffff1660009081526020819052604090205490565b61028161031c36600461163c565b6107e2565b61021e60045481565b60035461021e565b6102816107f3565b61021e7f114e74f6ea3bd819998f78687bfcb11b140da08e9b7d222fa9c1f1ba1f2aa12281565b61037461036f3660046116d0565b610987565b60405173ffffffffffffffffffffffffffffffffffffffff90911681526020016101d9565b61021e6103a736600461161f565b6109c8565b6101cd6103ba366004611655565b60009182527f02dd7bc7dec4dceedda775e58dd541e08a116c6c53815c0bd028192f7b6268006020908152604080842073ffffffffffffffffffffffffffffffffffffffff93909316845291905290205460ff1690565b61028161041f36600461163c565b610a02565b61021e600081565b61021e61043a36600461163c565b610ad8565b61028161044d366004611655565b610b17565b61028161046036600461161f565b610b5b565b61021e61047336600461161f565b610c38565b60007fffffffff0000000000000000000000000000000000000000000000000000000082167f5a05180f0000000000000000000000000000000000000000000000000000000014806104ce57506104ce82610f0e565b92915050565b60008281527f02dd7bc7dec4dceedda775e58dd541e08a116c6c53815c0bd028192f7b626800602052604090206001015461050e81610fa5565b6105188383610faf565b50505050565b60006002546003546105309190611721565b905090565b73ffffffffffffffffffffffffffffffffffffffff81163314610584576040517f6697b23200000000000000000000000000000000000000000000000000000000815260040160405180910390fd5b61058e8282611006565b505050565b7f114e74f6ea3bd819998f78687bfcb11b140da08e9b7d222fa9c1f1ba1f2aa1226105bd81610fa5565b83836105c882610c38565b15610634576040517f08c379a000000000000000000000000000000000000000000000000000000000815260206004820152601e60248201527f54686973206b696e64206f662053425420616c7265616479206578697374000060448201526064015b60405180910390fd5b73ffffffffffffffffffffffffffffffffffffffff81811660009081526001602052604090205416156106e9576040517f08c379a000000000000000000000000000000000000000000000000000000000815260206004820152603560248201527f57616c6c657420686173206265656e20616c7265616479207573656420746f2060448201527f6d696e742074686973206b696e64206f66205342540000000000000000000000606482015260840161062b565b6106f286611054565b6001600260008282546107059190611738565b909155505073ffffffffffffffffffffffffffffffffffffffff858116600081815260016020818152604080842080547fffffffffffffffffffffffff00000000000000000000000000000000000000009081168e891690811790925582516060810184524281528085018881528d8a1682860190815284895295889052848820915182555195810180548316968a169690961790955592516002909401805490931693909616929092179055519192917fec517472143379d88d10fcb50037af41e880677081d0b233149c3d70b9f5b9369190a3505050505050565b60006107ed81610fa5565b50600455565b7ff0c57e16840df040f15088dc2f81fe391c3923bec73e23a9662efc9c229c6a00805468010000000000000000810460ff16159067ffffffffffffffff1660008115801561083e5750825b905060008267ffffffffffffffff16600114801561085b5750303b155b905081158015610869575080155b156108a0576040517ff92ee8a900000000000000000000000000000000000000000000000000000000815260040160405180910390fd5b84547fffffffffffffffffffffffffffffffffffffffffffffffff000000000000000016600117855583156109015784547fffffffffffffffffffffffffffffffffffffffffffffff00ffffffffffffffff16680100000000000000001785555b60006002819055610834600355610e1060045561091e9033610faf565b5083156109805784547fffffffffffffffffffffffffffffffffffffffffffffff00ffffffffffffffff168555604051600181527fc7f505b2f371ae2175ee4913f4499e1f2633a7b5936321eed1cdaeb6115181d29060200160405180910390a15b5050505050565b60008281527fc1f6fe24621ce81ec5827caf0253cadb74709b061630e6b55e823717059320006020819052604082206109c09084611155565b949350505050565b73ffffffffffffffffffffffffffffffffffffffff81166000908152602081905260408120546109fa57506000919050565b6003546104ce565b3360009081527fd899505834629eb300e74c720bc2ccfa64c67750c977fb28a4698835213ef6c8602052604090205460ff1680610a6d57503360009081527fb7db2dd08fcb62d0c9e08c51941cae53c267786a0b75803fb7960902fc8ef97d602052604090205460ff165b610ad3576040517f08c379a000000000000000000000000000000000000000000000000000000000815260206004820152600e60248201527f4e6f7420617574686f72697a6564000000000000000000000000000000000000604482015260640161062b565b600355565b60008181527fc1f6fe24621ce81ec5827caf0253cadb74709b061630e6b55e82371705932000602081905260408220610b1090611161565b9392505050565b60008281527f02dd7bc7dec4dceedda775e58dd541e08a116c6c53815c0bd028192f7b6268006020526040902060010154610b5181610fa5565b6105188383611006565b3360009081527fecfb03a241cc67499591701273c9840824101e710aea92d3ca0339671f5c64c0602052604090205460ff1680610bc657503360009081527fb7db2dd08fcb62d0c9e08c51941cae53c267786a0b75803fb7960902fc8ef97d602052604090205460ff165b610c2c576040517f08c379a000000000000000000000000000000000000000000000000000000000815260206004820152600e60248201527f4e6f7420617574686f72697a6564000000000000000000000000000000000000604482015260640161062b565b610c3581611054565b50565b73ffffffffffffffffffffffffffffffffffffffff811660009081526020819052604081205480600003610c6f5750600092915050565b73ffffffffffffffffffffffffffffffffffffffff808416600090815260208181526040808320815160608101835281548152600182015486168185015260029091015490941684820181905281517f9426e22600000000000000000000000000000000000000000000000000000000815291519092639426e22692600480820193918290030181865afa158015610d0b573d6000803e3d6000fd5b505050506040513d601f19601f82011682018060405250810190610d2f919061174b565b604080840151602085015191517ff3c94aa800000000000000000000000000000000000000000000000000000000815273ffffffffffffffffffffffffffffffffffffffff928316600482015292935060009291169063f3c94aa890602401600060405180830381865afa158015610dab573d6000803e3d6000fd5b505050506040513d6000823e601f3d9081017fffffffffffffffffffffffffffffffffffffffffffffffffffffffffffffffe0168201604052610df191908101906117a7565b905060005b8151811015610f015760008373ffffffffffffffffffffffffffffffffffffffff16635ea21491848481518110610e2f57610e2f611889565b60200260200101516040518263ffffffff167c0100000000000000000000000000000000000000000000000000000000028152600401610e8b919073ffffffffffffffffffffffffffffffffffffffff91909116815260200190565b602060405180830381865afa158015610ea8573d6000803e3d6000fd5b505050506040513d601f19601f82011682018060405250810190610ecc91906118b8565b90504260045482610edd9190611738565b10610eee5750939695505050505050565b5080610ef9816118d1565b915050610df6565b5060009695505050505050565b60007fffffffff0000000000000000000000000000000000000000000000000000000082167f7965db0b0000000000000000000000000000000000000000000000000000000014806104ce57507f01ffc9a7000000000000000000000000000000000000000000000000000000007fffffffff000000000000000000000000000000000000000000000000000000008316146104ce565b610c35813361116b565b60007fc1f6fe24621ce81ec5827caf0253cadb74709b061630e6b55e8237170593200081610fdd8585611216565b905080156109c0576000858152602083905260409020610ffd9085611337565b50949350505050565b60007fc1f6fe24621ce81ec5827caf0253cadb74709b061630e6b55e82371705932000816110348585611359565b905080156109c0576000858152602083905260409020610ffd9085611437565b73ffffffffffffffffffffffffffffffffffffffff811660009081526020819052604090205415610c355773ffffffffffffffffffffffffffffffffffffffff80821660008181526020818152604080832060018181018054909716855280845291842080547fffffffffffffffffffffffff0000000000000000000000000000000000000000908116909155948452918390528282558454841690945560029081018054909316909255815461110c908490611909565b909155505060405173ffffffffffffffffffffffffffffffffffffffff8216907fb37cf8eece8b5e64575d707079155f564741a1a9523c32d65196063452c4065b90600090a250565b6000610b108383611459565b60006104ce825490565b60008281527f02dd7bc7dec4dceedda775e58dd541e08a116c6c53815c0bd028192f7b6268006020908152604080832073ffffffffffffffffffffffffffffffffffffffff8516845290915290205460ff16611212576040517fe2517d3f00000000000000000000000000000000000000000000000000000000815273ffffffffffffffffffffffffffffffffffffffff821660048201526024810183905260440161062b565b5050565b60008281527f02dd7bc7dec4dceedda775e58dd541e08a116c6c53815c0bd028192f7b6268006020818152604080842073ffffffffffffffffffffffffffffffffffffffff8616855290915282205460ff1661132d5760008481526020828152604080832073ffffffffffffffffffffffffffffffffffffffff87168452909152902080547fffffffffffffffffffffffffffffffffffffffffffffffffffffffffffffff001660011790556112c93390565b73ffffffffffffffffffffffffffffffffffffffff168373ffffffffffffffffffffffffffffffffffffffff16857f2f8788117e7eff1d82e926ec794901d17c78024a50270940304540a733656f0d60405160405180910390a460019150506104ce565b60009150506104ce565b6000610b108373ffffffffffffffffffffffffffffffffffffffff8416611483565b60008281527f02dd7bc7dec4dceedda775e58dd541e08a116c6c53815c0bd028192f7b6268006020818152604080842073ffffffffffffffffffffffffffffffffffffffff8616855290915282205460ff161561132d5760008481526020828152604080832073ffffffffffffffffffffffffffffffffffffffff8716808552925280832080547fffffffffffffffffffffffffffffffffffffffffffffffffffffffffffffff0016905551339287917ff6391f5c32d9c69d2a47ea670b442974b53935d1edc7fd64eb21e047a839171b9190a460019150506104ce565b6000610b108373ffffffffffffffffffffffffffffffffffffffff84166114d2565b600082600001828154811061147057611470611889565b9060005260206000200154905092915050565b60008181526001830160205260408120546114ca575081546001818101845560008481526020808220909301849055845484825282860190935260409020919091556104ce565b5060006104ce565b6000818152600183016020526040812054801561132d5760006114f6600183611909565b855490915060009061150a90600190611909565b905080821461156f57600086600001828154811061152a5761152a611889565b906000526020600020015490508087600001848154811061154d5761154d611889565b6000918252602080832090910192909255918252600188019052604090208390555b85548690806115805761158061191c565b6001900381819060005260206000200160009055905585600101600086815260200190815260200160002060009055600193505050506104ce565b6000602082840312156115cd57600080fd5b81357fffffffff0000000000000000000000000000000000000000000000000000000081168114610b1057600080fd5b73ffffffffffffffffffffffffffffffffffffffff81168114610c3557600080fd5b60006020828403121561163157600080fd5b8135610b10816115fd565b60006020828403121561164e57600080fd5b5035919050565b6000806040838503121561166857600080fd5b82359150602083013561167a816115fd565b809150509250929050565b60008060006060848603121561169a57600080fd5b83356116a5816115fd565b925060208401356116b5816115fd565b915060408401356116c5816115fd565b809150509250925092565b600080604083850312156116e357600080fd5b50508035926020909101359150565b7f4e487b7100000000000000000000000000000000000000000000000000000000600052601160045260246000fd5b80820281158282048414176104ce576104ce6116f2565b808201808211156104ce576104ce6116f2565b60006020828403121561175d57600080fd5b8151610b10816115fd565b7f4e487b7100000000000000000000000000000000000000000000000000000000600052604160045260246000fd5b80516117a2816115fd565b919050565b600060208083850312156117ba57600080fd5b825167ffffffffffffffff808211156117d257600080fd5b818501915085601f8301126117e657600080fd5b8151818111156117f8576117f8611768565b8381026040517fffffffffffffffffffffffffffffffffffffffffffffffffffffffffffffffe0603f8301168101818110858211171561183a5761183a611768565b60405291825284820192508381018501918883111561185857600080fd5b938501935b8285101561187d5761186e85611797565b8452938501939285019261185d565b98975050505050505050565b7f4e487b7100000000000000000000000000000000000000000000000000000000600052603260045260246000fd5b6000602082840312156118ca57600080fd5b5051919050565b60007fffffffffffffffffffffffffffffffffffffffffffffffffffffffffffffffff8203611902576119026116f2565b5060010190565b818103818111156104ce576104ce6116f2565b7f4e487b7100000000000000000000000000000000000000000000000000000000600052603160045260246000fdfea2646970667358221220bae52dab3927bae999878572bfd3a6fc6634de1f3ba8ceac43c6cb2ff3fd70f164736f6c63430008140033",
  "deployedBytecode": "",
  "linkReferences": {},
  "deployedLinkReferences": {}
}