{
  "_format": "hh-sol-artifact-1",
  "contractName": "SNOSBTIssuer",
  "sourceName": "contracts/airdao-sbt-issuer/SNO-SBT-Issuer.sol",
  "abi": [
    {
      "inputs": [],
      "stateMutability": "nonpayable",
      "type": "constructor"
    },
    {
      "inputs": [],
      "name": "AccessControlBadConfirmation",
      "type": "error"
    },
    {
      "inputs": [
        {
          "internalType": "address",
          "name": "account",
          "type": "address"
        },
        {
          "internalType": "bytes32",
          "name": "neededRole",
          "type": "bytes32"
        }
      ],
      "name": "AccessControlUnauthorizedAccount",
      "type": "error"
    },
    {
      "anonymous": false,
      "inputs": [
        {
          "indexed": true,
          "internalType": "bytes32",
          "name": "role",
          "type": "bytes32"
        },
        {
          "indexed": true,
          "internalType": "bytes32",
          "name": "previousAdminRole",
          "type": "bytes32"
        },
        {
          "indexed": true,
          "internalType": "bytes32",
          "name": "newAdminRole",
          "type": "bytes32"
        }
      ],
      "name": "RoleAdminChanged",
      "type": "event"
    },
    {
      "anonymous": false,
      "inputs": [
        {
          "indexed": true,
          "internalType": "bytes32",
          "name": "role",
          "type": "bytes32"
        },
        {
          "indexed": true,
          "internalType": "address",
          "name": "account",
          "type": "address"
        },
        {
          "indexed": true,
          "internalType": "address",
          "name": "sender",
          "type": "address"
        }
      ],
      "name": "RoleGranted",
      "type": "event"
    },
    {
      "anonymous": false,
      "inputs": [
        {
          "indexed": true,
          "internalType": "bytes32",
          "name": "role",
          "type": "bytes32"
        },
        {
          "indexed": true,
          "internalType": "address",
          "name": "account",
          "type": "address"
        },
        {
          "indexed": true,
          "internalType": "address",
          "name": "sender",
          "type": "address"
        }
      ],
      "name": "RoleRevoked",
      "type": "event"
    },
    {
      "inputs": [],
      "name": "DEFAULT_ADMIN_ROLE",
      "outputs": [
        {
          "internalType": "bytes32",
          "name": "",
          "type": "bytes32"
        }
      ],
      "stateMutability": "view",
      "type": "function"
    },
    {
      "inputs": [],
      "name": "SIGN_PROVIDER_ROLE",
      "outputs": [
        {
          "internalType": "bytes32",
          "name": "",
          "type": "bytes32"
        }
      ],
      "stateMutability": "view",
      "type": "function"
    },
    {
      "inputs": [
        {
          "internalType": "bytes32",
          "name": "role",
          "type": "bytes32"
        }
      ],
      "name": "getRoleAdmin",
      "outputs": [
        {
          "internalType": "bytes32",
          "name": "",
          "type": "bytes32"
        }
      ],
      "stateMutability": "view",
      "type": "function"
    },
    {
      "inputs": [
        {
          "internalType": "bytes32",
          "name": "role",
          "type": "bytes32"
        },
        {
          "internalType": "address",
          "name": "account",
          "type": "address"
        }
      ],
      "name": "grantRole",
      "outputs": [],
      "stateMutability": "nonpayable",
      "type": "function"
    },
    {
      "inputs": [
        {
          "internalType": "bytes32",
          "name": "role",
          "type": "bytes32"
        },
        {
          "internalType": "address",
          "name": "account",
          "type": "address"
        }
      ],
      "name": "hasRole",
      "outputs": [
        {
          "internalType": "bool",
          "name": "",
          "type": "bool"
        }
      ],
      "stateMutability": "view",
      "type": "function"
    },
    {
      "inputs": [
        {
          "internalType": "bytes32",
          "name": "role",
          "type": "bytes32"
        },
        {
          "internalType": "address",
          "name": "callerConfirmation",
          "type": "address"
        }
      ],
      "name": "renounceRole",
      "outputs": [],
      "stateMutability": "nonpayable",
      "type": "function"
    },
    {
      "inputs": [
        {
          "internalType": "bytes32",
          "name": "role",
          "type": "bytes32"
        },
        {
          "internalType": "address",
          "name": "account",
          "type": "address"
        }
      ],
      "name": "revokeRole",
      "outputs": [],
      "stateMutability": "nonpayable",
      "type": "function"
    },
    {
      "inputs": [
        {
          "internalType": "address",
          "name": "sbtAddress",
          "type": "address"
        },
        {
          "internalType": "address",
          "name": "govWallet",
          "type": "address"
        }
      ],
      "name": "sbtBurn",
      "outputs": [],
      "stateMutability": "nonpayable",
      "type": "function"
    },
    {
      "inputs": [
        {
          "internalType": "address",
          "name": "sbtAddress",
          "type": "address"
        },
        {
          "internalType": "bytes",
          "name": "signedData",
          "type": "bytes"
        },
        {
          "internalType": "uint8",
          "name": "v",
          "type": "uint8"
        },
        {
          "internalType": "bytes32",
          "name": "r",
          "type": "bytes32"
        },
        {
          "internalType": "bytes32",
          "name": "s",
          "type": "bytes32"
        }
      ],
      "name": "sbtMint",
      "outputs": [],
      "stateMutability": "payable",
      "type": "function"
    },
    {
      "inputs": [
        {
          "internalType": "bytes4",
          "name": "interfaceId",
          "type": "bytes4"
        }
      ],
      "name": "supportsInterface",
      "outputs": [
        {
          "internalType": "bool",
          "name": "",
          "type": "bool"
        }
      ],
      "stateMutability": "view",
      "type": "function"
    }
  ],
  "bytecode": "0x608060405234801561001057600080fd5b5061002560003364010000000061002b810204565b506100ff565b600061004083836401000000006100d2810204565b6100c857600083815260208181526040808320600160a060020a03861684529091529020805460ff191660011790556100806401000000006100fb810204565b600160a060020a031682600160a060020a0316847f2f8788117e7eff1d82e926ec794901d17c78024a50270940304540a733656f0d60405160405180910390a45060016100cc565b5060005b92915050565b600091825260208281526040808420600160a060020a0393909316845291905290205460ff1690565b3390565b610c398061010e6000396000f3fe6080604052600436106100ce576000357c010000000000000000000000000000000000000000000000000000000090048063787d188311610086578063a217fddf1161006b578063a217fddf14610220578063c5cf354114610235578063d547741f1461025557600080fd5b8063787d1883146101bc57806391d14854146101cf57600080fd5b80632f2ff15d116100b75780632f2ff15d1461014657806336568abe14610168578063722060c01461018857600080fd5b806301ffc9a7146100d3578063248a9ca314610108575b600080fd5b3480156100df57600080fd5b506100f36100ee366004610995565b610275565b60405190151581526020015b60405180910390f35b34801561011457600080fd5b506101386101233660046109de565b60009081526020819052604090206001015490565b6040519081526020016100ff565b34801561015257600080fd5b50610166610161366004610a19565b61030e565b005b34801561017457600080fd5b50610166610183366004610a19565b610339565b34801561019457600080fd5b506101387f88995461c3666bafd97271603dc3f82a16a8eb07fb58bc9e4e7b5df768de569081565b6101666101ca366004610a8e565b610397565b3480156101db57600080fd5b506100f36101ea366004610a19565b60009182526020828152604080842073ffffffffffffffffffffffffffffffffffffffff93909316845291905290205460ff1690565b34801561022c57600080fd5b50610138600081565b34801561024157600080fd5b50610166610250366004610b92565b610541565b34801561026157600080fd5b50610166610270366004610a19565b6105d2565b60007fffffffff0000000000000000000000000000000000000000000000000000000082167f7965db0b00000000000000000000000000000000000000000000000000000000148061030857507f01ffc9a7000000000000000000000000000000000000000000000000000000007fffffffff000000000000000000000000000000000000000000000000000000008316145b92915050565b600082815260208190526040902060010154610329816105f7565b6103338383610604565b50505050565b73ffffffffffffffffffffffffffffffffffffffff81163314610388576040517f6697b23200000000000000000000000000000000000000000000000000000000815260040160405180910390fd5b6103928282610700565b505050565b6103a3848484846107bb565b6000806000868060200190518101906103bc9190610bc0565b9194509250905073ffffffffffffffffffffffffffffffffffffffff83163314610447576040517f08c379a000000000000000000000000000000000000000000000000000000000815260206004820152601660248201527f53656e646572206973206e6f742076657269666965640000000000000000000060448201526064015b60405180910390fd5b4281116104b0576040517f08c379a000000000000000000000000000000000000000000000000000000000815260206004820152600f60248201527f5265717565737420657870697265640000000000000000000000000000000000604482015260640161043e565b6040517fc013375200000000000000000000000000000000000000000000000000000000815233600482015273ffffffffffffffffffffffffffffffffffffffff838116602483015289169063c013375290604401600060405180830381600087803b15801561051f57600080fd5b505af1158015610533573d6000803e3d6000fd5b505050505050505050505050565b600061054c816105f7565b6040517feac70dfc00000000000000000000000000000000000000000000000000000000815273ffffffffffffffffffffffffffffffffffffffff838116600483015284169063eac70dfc90602401600060405180830381600087803b1580156105b557600080fd5b505af11580156105c9573d6000803e3d6000fd5b50505050505050565b6000828152602081905260409020600101546105ed816105f7565b6103338383610700565b610601813361090b565b50565b60008281526020818152604080832073ffffffffffffffffffffffffffffffffffffffff8516845290915281205460ff166106f85760008381526020818152604080832073ffffffffffffffffffffffffffffffffffffffff86168452909152902080547fffffffffffffffffffffffffffffffffffffffffffffffffffffffffffffff001660011790556106963390565b73ffffffffffffffffffffffffffffffffffffffff168273ffffffffffffffffffffffffffffffffffffffff16847f2f8788117e7eff1d82e926ec794901d17c78024a50270940304540a733656f0d60405160405180910390a4506001610308565b506000610308565b60008281526020818152604080832073ffffffffffffffffffffffffffffffffffffffff8516845290915281205460ff16156106f85760008381526020818152604080832073ffffffffffffffffffffffffffffffffffffffff8616808552925280832080547fffffffffffffffffffffffffffffffffffffffffffffffffffffffffffffff0016905551339286917ff6391f5c32d9c69d2a47ea670b442974b53935d1edc7fd64eb21e047a839171b9190a4506001610308565b600084805190602001209050600060018286868660405160008152602001604052604051610805949392919093845260ff9290921660208401526040830152606082015260800190565b6020604051602081039080840390855afa158015610827573d6000803e3d6000fd5b5050604080517fffffffffffffffffffffffffffffffffffffffffffffffffffffffffffffffe0015173ffffffffffffffffffffffffffffffffffffffff811660009081527f09c7edd8a5587578ee0d751400bb6bf998545702574afa4cfdfb19e153417af0602052919091205490925060ff169050610903576040517f08c379a000000000000000000000000000000000000000000000000000000000815260206004820152600d60248201527f496e76616c696420696e70757400000000000000000000000000000000000000604482015260640161043e565b505050505050565b60008281526020818152604080832073ffffffffffffffffffffffffffffffffffffffff8516845290915290205460ff16610991576040517fe2517d3f00000000000000000000000000000000000000000000000000000000815273ffffffffffffffffffffffffffffffffffffffff821660048201526024810183905260440161043e565b5050565b6000602082840312156109a757600080fd5b81357fffffffff00000000000000000000000000000000000000000000000000000000811681146109d757600080fd5b9392505050565b6000602082840312156109f057600080fd5b5035919050565b73ffffffffffffffffffffffffffffffffffffffff8116811461060157600080fd5b60008060408385031215610a2c57600080fd5b823591506020830135610a3e816109f7565b809150509250929050565b7f4e487b7100000000000000000000000000000000000000000000000000000000600052604160045260246000fd5b803560ff81168114610a8957600080fd5b919050565b600080600080600060a08688031215610aa657600080fd5b8535610ab1816109f7565b9450602086013567ffffffffffffffff80821115610ace57600080fd5b818801915088601f830112610ae257600080fd5b813581811115610af457610af4610a49565b604051601f82017fffffffffffffffffffffffffffffffffffffffffffffffffffffffffffffffe0908116603f01168101908382118183101715610b3a57610b3a610a49565b816040528281528b6020848701011115610b5357600080fd5b826020860160208301376000602084830101528098505050505050610b7a60408701610a78565b94979396509394606081013594506080013592915050565b60008060408385031215610ba557600080fd5b8235610bb0816109f7565b91506020830135610a3e816109f7565b600080600060608486031215610bd557600080fd5b8351610be0816109f7565b6020850151909350610bf1816109f7565b8092505060408401519050925092509256fea2646970667358221220178cf4337fa824f46a274f34eb6cf36442f8a14e57c782f46bb1627d1a37e02c64736f6c63430008140033",
  "linkReferences": {},
  "deployedLinkReferences": {}
}