{
  "_format": "hh-sol-artifact-1",
  "contractName": "ValidatorSet",
  "sourceName": "contracts/consensus/ValidatorSet.sol",
  "abi": [
    {
      "anonymous": false,
      "inputs": [
        {
          "indexed": false,
          "internalType": "address",
          "name": "previousAdmin",
          "type": "address"
        },
        {
          "indexed": false,
          "internalType": "address",
          "name": "newAdmin",
          "type": "address"
        }
      ],
      "name": "AdminChanged",
      "type": "event"
    },
    {
      "anonymous": false,
      "inputs": [
        {
          "indexed": true,
          "internalType": "address",
          "name": "beacon",
          "type": "address"
        }
      ],
      "name": "BeaconUpgraded",
      "type": "event"
    },
    {
      "anonymous": false,
      "inputs": [
        {
          "indexed": false,
          "internalType": "uint8",
          "name": "version",
          "type": "uint8"
        }
      ],
      "name": "Initialized",
      "type": "event"
    },
    {
      "anonymous": false,
      "inputs": [
        {
          "indexed": true,
          "internalType": "bytes32",
          "name": "parentHash",
          "type": "bytes32"
        },
        {
          "indexed": false,
          "internalType": "address[]",
          "name": "newSet",
          "type": "address[]"
        }
      ],
      "name": "InitiateChange",
      "type": "event"
    },
    {
      "anonymous": false,
      "inputs": [
        {
          "indexed": true,
          "internalType": "address",
          "name": "nodeAddress",
          "type": "address"
        }
      ],
      "name": "QueueListNodeAdded",
      "type": "event"
    },
    {
      "anonymous": false,
      "inputs": [
        {
          "indexed": true,
          "internalType": "address",
          "name": "nodeAddress",
          "type": "address"
        }
      ],
      "name": "QueueListNodeRemoved",
      "type": "event"
    },
    {
      "anonymous": false,
      "inputs": [
        {
          "indexed": true,
          "internalType": "address",
          "name": "nodeAddress",
          "type": "address"
        },
        {
          "indexed": false,
          "internalType": "uint256",
          "name": "malisciousType",
          "type": "uint256"
        }
      ],
      "name": "Report",
      "type": "event"
    },
    {
      "anonymous": false,
      "inputs": [
        {
          "indexed": true,
          "internalType": "address",
          "name": "manager",
          "type": "address"
        },
        {
          "indexed": true,
          "internalType": "address",
          "name": "nodeAddress",
          "type": "address"
        },
        {
          "indexed": true,
          "internalType": "address",
          "name": "rewardReceiver",
          "type": "address"
        },
        {
          "indexed": false,
          "internalType": "address",
          "name": "nodeOwner",
          "type": "address"
        },
        {
          "indexed": false,
          "internalType": "address",
          "name": "tokenAddress",
          "type": "address"
        },
        {
          "indexed": false,
          "internalType": "uint256",
          "name": "amount",
          "type": "uint256"
        }
      ],
      "name": "Reward",
      "type": "event"
    },
    {
      "anonymous": false,
      "inputs": [
        {
          "indexed": false,
          "internalType": "address",
          "name": "stakingManager",
          "type": "address"
        },
        {
          "indexed": false,
          "internalType": "string",
          "name": "errorText",
          "type": "string"
        }
      ],
      "name": "RewardError",
      "type": "event"
    },
    {
      "anonymous": false,
      "inputs": [
        {
          "indexed": true,
          "internalType": "bytes32",
          "name": "role",
          "type": "bytes32"
        },
        {
          "indexed": true,
          "internalType": "bytes32",
          "name": "previousAdminRole",
          "type": "bytes32"
        },
        {
          "indexed": true,
          "internalType": "bytes32",
          "name": "newAdminRole",
          "type": "bytes32"
        }
      ],
      "name": "RoleAdminChanged",
      "type": "event"
    },
    {
      "anonymous": false,
      "inputs": [
        {
          "indexed": true,
          "internalType": "bytes32",
          "name": "role",
          "type": "bytes32"
        },
        {
          "indexed": true,
          "internalType": "address",
          "name": "account",
          "type": "address"
        },
        {
          "indexed": true,
          "internalType": "address",
          "name": "sender",
          "type": "address"
        }
      ],
      "name": "RoleGranted",
      "type": "event"
    },
    {
      "anonymous": false,
      "inputs": [
        {
          "indexed": true,
          "internalType": "bytes32",
          "name": "role",
          "type": "bytes32"
        },
        {
          "indexed": true,
          "internalType": "address",
          "name": "account",
          "type": "address"
        },
        {
          "indexed": true,
          "internalType": "address",
          "name": "sender",
          "type": "address"
        }
      ],
      "name": "RoleRevoked",
      "type": "event"
    },
    {
      "anonymous": false,
      "inputs": [
        {
          "indexed": true,
          "internalType": "address",
          "name": "nodeAddress",
          "type": "address"
        },
        {
          "indexed": true,
          "internalType": "address",
          "name": "stakingContract",
          "type": "address"
        },
        {
          "indexed": false,
          "internalType": "int256",
          "name": "changeAmount",
          "type": "int256"
        }
      ],
      "name": "StakeChanged",
      "type": "event"
    },
    {
      "anonymous": false,
      "inputs": [
        {
          "indexed": true,
          "internalType": "address",
          "name": "nodeAddress",
          "type": "address"
        },
        {
          "indexed": true,
          "internalType": "address",
          "name": "stakingContract",
          "type": "address"
        },
        {
          "indexed": false,
          "internalType": "uint256",
          "name": "amount",
          "type": "uint256"
        },
        {
          "indexed": false,
          "internalType": "bool",
          "name": "isAlwaysTop",
          "type": "bool"
        }
      ],
      "name": "StakeCreated",
      "type": "event"
    },
    {
      "anonymous": false,
      "inputs": [
        {
          "indexed": true,
          "internalType": "address",
          "name": "nodeAddress",
          "type": "address"
        },
        {
          "indexed": true,
          "internalType": "address",
          "name": "stakingContract",
          "type": "address"
        }
      ],
      "name": "StakeRemoved",
      "type": "event"
    },
    {
      "anonymous": false,
      "inputs": [
        {
          "indexed": true,
          "internalType": "address",
          "name": "nodeAddress",
          "type": "address"
        }
      ],
      "name": "TopListNodeAdded",
      "type": "event"
    },
    {
      "anonymous": false,
      "inputs": [
        {
          "indexed": true,
          "internalType": "address",
          "name": "nodeAddress",
          "type": "address"
        }
      ],
      "name": "TopListNodeRemoved",
      "type": "event"
    },
    {
      "anonymous": false,
      "inputs": [
        {
          "indexed": true,
          "internalType": "address",
          "name": "implementation",
          "type": "address"
        }
      ],
      "name": "Upgraded",
      "type": "event"
    },
    {
      "anonymous": false,
      "inputs": [
        {
          "indexed": false,
          "internalType": "address[]",
          "name": "newSet",
          "type": "address[]"
        }
      ],
      "name": "ValidatorSetFinalized",
      "type": "event"
    },
    {
      "inputs": [],
      "name": "DEFAULT_ADMIN_ROLE",
      "outputs": [
        {
          "internalType": "bytes32",
          "name": "",
          "type": "bytes32"
        }
      ],
      "stateMutability": "view",
      "type": "function"
    },
    {
      "inputs": [],
      "name": "REWARD_ORACLE_ROLE",
      "outputs": [
        {
          "internalType": "bytes32",
          "name": "",
          "type": "bytes32"
        }
      ],
      "stateMutability": "view",
      "type": "function"
    },
    {
      "inputs": [],
      "name": "STAKING_MANAGER_ROLE",
      "outputs": [
        {
          "internalType": "bytes32",
          "name": "",
          "type": "bytes32"
        }
      ],
      "stateMutability": "view",
      "type": "function"
    },
    {
      "inputs": [],
      "name": "_updateExternal",
      "outputs": [],
      "stateMutability": "nonpayable",
      "type": "function"
    },
    {
      "inputs": [
        {
          "internalType": "contract IOnBlockListener",
          "name": "listener",
          "type": "address"
        }
      ],
      "name": "addBlockListener",
      "outputs": [],
      "stateMutability": "nonpayable",
      "type": "function"
    },
    {
      "inputs": [],
      "name": "baseReward",
      "outputs": [
        {
          "internalType": "uint256",
          "name": "",
          "type": "uint256"
        }
      ],
      "stateMutability": "view",
      "type": "function"
    },
    {
      "inputs": [
        {
          "internalType": "uint256",
          "name": "newTopStakesCount",
          "type": "uint256"
        }
      ],
      "name": "changeTopStakesCount",
      "outputs": [],
      "stateMutability": "nonpayable",
      "type": "function"
    },
    {
      "inputs": [
        {
          "internalType": "address",
          "name": "rewardsBank",
          "type": "address"
        },
        {
          "internalType": "address",
          "name": "nodeAddress",
          "type": "address"
        },
        {
          "internalType": "address",
          "name": "nodeOwner",
          "type": "address"
        },
        {
          "internalType": "address",
          "name": "rewardReceiver",
          "type": "address"
        },
        {
          "internalType": "address",
          "name": "tokenAddress",
          "type": "address"
        },
        {
          "internalType": "uint256",
          "name": "amount",
          "type": "uint256"
        }
      ],
      "name": "emitReward",
      "outputs": [],
      "stateMutability": "nonpayable",
      "type": "function"
    },
    {
      "inputs": [],
      "name": "finalizeChange",
      "outputs": [],
      "stateMutability": "nonpayable",
      "type": "function"
    },
    {
      "inputs": [],
      "name": "getBlockListeners",
      "outputs": [
        {
          "internalType": "contract IOnBlockListener[]",
          "name": "",
          "type": "address[]"
        }
      ],
      "stateMutability": "view",
      "type": "function"
    },
    {
      "inputs": [
        {
          "internalType": "address",
          "name": "nodeAddress",
          "type": "address"
        }
      ],
      "name": "getNodeStake",
      "outputs": [
        {
          "internalType": "uint256",
          "name": "",
          "type": "uint256"
        }
      ],
      "stateMutability": "view",
      "type": "function"
    },
    {
      "inputs": [],
      "name": "getQueuedStakes",
      "outputs": [
        {
          "internalType": "address[]",
          "name": "",
          "type": "address[]"
        }
      ],
      "stateMutability": "view",
      "type": "function"
    },
    {
      "inputs": [],
      "name": "getRewardSettings",
      "outputs": [
        {
          "internalType": "uint64[5]",
          "name": "",
          "type": "uint64[5]"
        }
      ],
      "stateMutability": "view",
      "type": "function"
    },
    {
      "inputs": [
        {
          "internalType": "bytes32",
          "name": "role",
          "type": "bytes32"
        }
      ],
      "name": "getRoleAdmin",
      "outputs": [
        {
          "internalType": "bytes32",
          "name": "",
          "type": "bytes32"
        }
      ],
      "stateMutability": "view",
      "type": "function"
    },
    {
      "inputs": [
        {
          "internalType": "bytes32",
          "name": "role",
          "type": "bytes32"
        },
        {
          "internalType": "uint256",
          "name": "index",
          "type": "uint256"
        }
      ],
      "name": "getRoleMember",
      "outputs": [
        {
          "internalType": "address",
          "name": "",
          "type": "address"
        }
      ],
      "stateMutability": "view",
      "type": "function"
    },
    {
      "inputs": [
        {
          "internalType": "bytes32",
          "name": "role",
          "type": "bytes32"
        }
      ],
      "name": "getRoleMemberCount",
      "outputs": [
        {
          "internalType": "uint256",
          "name": "",
          "type": "uint256"
        }
      ],
      "stateMutability": "view",
      "type": "function"
    },
    {
      "inputs": [
        {
          "internalType": "address",
          "name": "manager",
          "type": "address"
        }
      ],
      "name": "getStakesByManager",
      "outputs": [
        {
          "internalType": "address[]",
          "name": "result",
          "type": "address[]"
        }
      ],
      "stateMutability": "view",
      "type": "function"
    },
    {
      "inputs": [],
      "name": "getTopStakes",
      "outputs": [
        {
          "internalType": "address[]",
          "name": "",
          "type": "address[]"
        }
      ],
      "stateMutability": "view",
      "type": "function"
    },
    {
      "inputs": [],
      "name": "getValidators",
      "outputs": [
        {
          "internalType": "address[]",
          "name": "",
          "type": "address[]"
        }
      ],
      "stateMutability": "view",
      "type": "function"
    },
    {
      "inputs": [
        {
          "internalType": "bytes32",
          "name": "role",
          "type": "bytes32"
        },
        {
          "internalType": "address",
          "name": "account",
          "type": "address"
        }
      ],
      "name": "grantRole",
      "outputs": [],
      "stateMutability": "nonpayable",
      "type": "function"
    },
    {
      "inputs": [
        {
          "internalType": "bytes32",
          "name": "role",
          "type": "bytes32"
        },
        {
          "internalType": "address",
          "name": "account",
          "type": "address"
        }
      ],
      "name": "hasRole",
      "outputs": [
        {
          "internalType": "bool",
          "name": "",
          "type": "bool"
        }
      ],
      "stateMutability": "view",
      "type": "function"
    },
    {
      "inputs": [
        {
          "internalType": "address",
          "name": "_rewardOracle",
          "type": "address"
        },
        {
          "internalType": "uint256",
          "name": "_baseReward",
          "type": "uint256"
        },
        {
          "internalType": "uint256",
          "name": "_topStakesCount",
          "type": "uint256"
        }
      ],
      "name": "initialize",
      "outputs": [],
      "stateMutability": "nonpayable",
      "type": "function"
    },
    {
      "inputs": [
        {
          "internalType": "address",
          "name": "nodeAddress",
          "type": "address"
        },
        {
          "internalType": "uint256",
          "name": "amount",
          "type": "uint256"
        },
        {
          "internalType": "bool",
          "name": "isAlwaysTop",
          "type": "bool"
        }
      ],
      "name": "newStake",
      "outputs": [],
      "stateMutability": "nonpayable",
      "type": "function"
    },
    {
      "inputs": [],
      "name": "process",
      "outputs": [],
      "stateMutability": "nonpayable",
      "type": "function"
    },
    {
      "inputs": [],
      "name": "proxiableUUID",
      "outputs": [
        {
          "internalType": "bytes32",
          "name": "",
          "type": "bytes32"
        }
      ],
      "stateMutability": "view",
      "type": "function"
    },
    {
      "inputs": [
        {
          "internalType": "contract IOnBlockListener",
          "name": "listener",
          "type": "address"
        }
      ],
      "name": "removeBlockListener",
      "outputs": [],
      "stateMutability": "nonpayable",
      "type": "function"
    },
    {
      "inputs": [
        {
          "internalType": "bytes32",
          "name": "role",
          "type": "bytes32"
        },
        {
          "internalType": "address",
          "name": "account",
          "type": "address"
        }
      ],
      "name": "renounceRole",
      "outputs": [],
      "stateMutability": "nonpayable",
      "type": "function"
    },
    {
      "inputs": [
        {
          "internalType": "bytes32",
          "name": "role",
          "type": "bytes32"
        },
        {
          "internalType": "address",
          "name": "account",
          "type": "address"
        }
      ],
      "name": "revokeRole",
      "outputs": [],
      "stateMutability": "nonpayable",
      "type": "function"
    },
    {
      "inputs": [
        {
          "internalType": "uint256",
          "name": "_baseReward",
          "type": "uint256"
        }
      ],
      "name": "setReward",
      "outputs": [],
      "stateMutability": "nonpayable",
      "type": "function"
    },
    {
      "inputs": [
        {
          "internalType": "uint64[5]",
          "name": "newSettings",
          "type": "uint64[5]"
        }
      ],
      "name": "setRewardSettings",
      "outputs": [],
      "stateMutability": "nonpayable",
      "type": "function"
    },
    {
      "inputs": [
        {
          "internalType": "address",
          "name": "nodeAddress",
          "type": "address"
        },
        {
          "internalType": "uint256",
          "name": "amount",
          "type": "uint256"
        }
      ],
      "name": "stake",
      "outputs": [],
      "stateMutability": "nonpayable",
      "type": "function"
    },
    {
      "inputs": [
        {
          "internalType": "address",
          "name": "",
          "type": "address"
        }
      ],
      "name": "stakes",
      "outputs": [
        {
          "internalType": "uint256",
          "name": "amount",
          "type": "uint256"
        },
        {
          "internalType": "contract IStakeManager",
          "name": "stakingContract",
          "type": "address"
        },
        {
          "internalType": "bool",
          "name": "isAlwaysTop",
          "type": "bool"
        }
      ],
      "stateMutability": "view",
      "type": "function"
    },
    {
      "inputs": [
        {
          "internalType": "bytes4",
          "name": "interfaceId",
          "type": "bytes4"
        }
      ],
      "name": "supportsInterface",
      "outputs": [
        {
          "internalType": "bool",
          "name": "",
          "type": "bool"
        }
      ],
      "stateMutability": "view",
      "type": "function"
    },
    {
      "inputs": [],
      "name": "topStakesCount",
      "outputs": [
        {
          "internalType": "uint256",
          "name": "",
          "type": "uint256"
        }
      ],
      "stateMutability": "view",
      "type": "function"
    },
    {
      "inputs": [],
      "name": "totalStakeAmount",
      "outputs": [
        {
          "internalType": "uint256",
          "name": "",
          "type": "uint256"
        }
      ],
      "stateMutability": "view",
      "type": "function"
    },
    {
      "inputs": [
        {
          "internalType": "address",
          "name": "nodeAddress",
          "type": "address"
        },
        {
          "internalType": "uint256",
          "name": "amount",
          "type": "uint256"
        }
      ],
      "name": "unstake",
      "outputs": [],
      "stateMutability": "nonpayable",
      "type": "function"
    },
    {
      "inputs": [
        {
          "internalType": "address",
          "name": "newImplementation",
          "type": "address"
        }
      ],
      "name": "upgradeTo",
      "outputs": [],
      "stateMutability": "nonpayable",
      "type": "function"
    },
    {
      "inputs": [
        {
          "internalType": "address",
          "name": "newImplementation",
          "type": "address"
        },
        {
          "internalType": "bytes",
          "name": "data",
          "type": "bytes"
        }
      ],
      "name": "upgradeToAndCall",
      "outputs": [],
      "stateMutability": "payable",
      "type": "function"
    }
  ],
  "bytecode": "0x60a06040523060805234801561001457600080fd5b5060805161493e61004c600039600081816109be01528181610a6e01528181610ee701528181610f9701526110dc015261493e6000f3fe6080604052600436106102a2576000357c01000000000000000000000000000000000000000000000000000000009004806389e53e6b11610170578063b7ab4db5116100e8578063ca15c8731161009c578063d547741f11610081578063d547741f146107e4578063e03baa9114610804578063f98e58a11461081957600080fd5b8063ca15c87314610781578063cfbf92a9146107a157600080fd5b8063bfd1f45e116100cd578063bfd1f45e14610737578063c2a672e01461074c578063c33fb8771461076c57600080fd5b8063b7ab4db514610702578063b8658bba1461071757600080fd5b806394409a561161013f578063aaf598b311610124578063aaf598b3146106a0578063adc9772e146106c2578063b6065502146106e257600080fd5b806394409a5614610675578063a217fddf1461068b57600080fd5b806389e53e6b1461059b5780638fd55bac146105bd5780639010d07c146105dd57806391d148541461062257600080fd5b8063429b4b831161021e57806371058e87116101d2578063754bf0b5116101b7578063754bf0b51461054557806376ad03bc146105655780637a1ac61e1461057b57600080fd5b806371058e87146104fc578063752862111461053057600080fd5b80634f1ef286116102035780634f1ef286146104be57806352d1902d146104d15780636f60820a146104e657600080fd5b8063429b4b831461047e5780634dd5bc191461049e57600080fd5b80632f2ff15d116102755780633659cfe61161025a5780633659cfe6146104155780633937c0b3146104355780633bc6a1421461046957600080fd5b80632f2ff15d146103d557806336568abe146103f557600080fd5b806301ffc9a7146102a757806316934fc4146102dc578063248a9ca314610375578063293be456146103b3575b600080fd5b3480156102b357600080fd5b506102c76102c23660046140be565b610839565b60405190151581526020015b60405180910390f35b3480156102e857600080fd5b506103436102f7366004614122565b60ca602052600090815260409020805460019091015473ffffffffffffffffffffffffffffffffffffffff81169074010000000000000000000000000000000000000000900460ff1683565b6040805193845273ffffffffffffffffffffffffffffffffffffffff90921660208401521515908201526060016102d3565b34801561038157600080fd5b506103a561039036600461413f565b60009081526066602052604090206001015490565b6040519081526020016102d3565b3480156103bf57600080fd5b506103d36103ce36600461413f565b610895565b005b3480156103e157600080fd5b506103d36103f0366004614158565b6108c5565b34801561040157600080fd5b506103d3610410366004614158565b6108ef565b34801561042157600080fd5b506103d3610430366004614122565b6109a7565b34801561044157600080fd5b506103a57fa6b5d83d32632203555cb9b2c2f68a8d94da48cadd9266ac0d17babedb52ea5b81565b34801561047557600080fd5b506103d3610bac565b34801561048a57600080fd5b506103d3610499366004614188565b610bca565b3480156104aa57600080fd5b506103d36104b93660046141cf565b610e38565b6103d36104cc3660046142a4565b610ed0565b3480156104dd57600080fd5b506103a56110c2565b3480156104f257600080fd5b506103a560cb5481565b34801561050857600080fd5b506103a57f5d23543221ee839e143ccd74c27fb92d54ec6d35fcc6165e5f665bb1f476e56581565b34801561053c57600080fd5b506103d36111af565b34801561055157600080fd5b506103d361056036600461413f565b6112d6565b34801561057157600080fd5b506103a560cc5481565b34801561058757600080fd5b506103d3610596366004614350565b611401565b3480156105a757600080fd5b506105b06115ec565b6040516102d39190614385565b3480156105c957600080fd5b506103d36105d8366004614122565b61165b565b3480156105e957600080fd5b506105fd6105f83660046143c0565b61166f565b60405173ffffffffffffffffffffffffffffffffffffffff90911681526020016102d3565b34801561062e57600080fd5b506102c761063d366004614158565b600091825260666020908152604080842073ffffffffffffffffffffffffffffffffffffffff93909316845291905290205460ff1690565b34801561068157600080fd5b506103a560d25481565b34801561069757600080fd5b506103a5600081565b3480156106ac57600080fd5b506106b561168e565b6040516102d391906143e2565b3480156106ce57600080fd5b506103d36106dd36600461443c565b6116fc565b3480156106ee57600080fd5b506103d36106fd366004614122565b611911565b34801561070e57600080fd5b506106b5611925565b34801561072357600080fd5b506106b5610732366004614122565b611992565b34801561074357600080fd5b506106b5611c26565b34801561075857600080fd5b506103d361076736600461443c565b611c93565b34801561077857600080fd5b506103d3611efd565b34801561078d57600080fd5b506103a561079c36600461413f565b612018565b3480156107ad57600080fd5b506103a56107bc366004614122565b73ffffffffffffffffffffffffffffffffffffffff16600090815260ca602052604090205490565b3480156107f057600080fd5b506103d36107ff366004614158565b61202f565b34801561081057600080fd5b506106b5612054565b34801561082557600080fd5b506103d3610834366004614468565b6120c1565b60007fffffffff0000000000000000000000000000000000000000000000000000000082167f5a05180f00000000000000000000000000000000000000000000000000000000148061088f575061088f826120d9565b92915050565b7f5d23543221ee839e143ccd74c27fb92d54ec6d35fcc6165e5f665bb1f476e5656108bf81612170565b5060cc55565b6000828152606660205260409020600101546108e081612170565b6108ea838361217a565b505050565b73ffffffffffffffffffffffffffffffffffffffff81163314610999576040517f08c379a000000000000000000000000000000000000000000000000000000000815260206004820152602f60248201527f416363657373436f6e74726f6c3a2063616e206f6e6c792072656e6f756e636560448201527f20726f6c657320666f722073656c66000000000000000000000000000000000060648201526084015b60405180910390fd5b6109a3828261219c565b5050565b73ffffffffffffffffffffffffffffffffffffffff7f0000000000000000000000000000000000000000000000000000000000000000163003610a6c576040517f08c379a000000000000000000000000000000000000000000000000000000000815260206004820152602c60248201527f46756e6374696f6e206d7573742062652063616c6c6564207468726f7567682060448201527f64656c656761746563616c6c00000000000000000000000000000000000000006064820152608401610990565b7f000000000000000000000000000000000000000000000000000000000000000073ffffffffffffffffffffffffffffffffffffffff16610ae17f360894a13ba1a3210667c828492db98dca3e2076cc3735a920a3ca505d382bbc5473ffffffffffffffffffffffffffffffffffffffff1690565b73ffffffffffffffffffffffffffffffffffffffff1614610b84576040517f08c379a000000000000000000000000000000000000000000000000000000000815260206004820152602c60248201527f46756e6374696f6e206d7573742062652063616c6c6564207468726f7567682060448201527f6163746976652070726f787900000000000000000000000000000000000000006064820152608401610990565b610b8d816121be565b60408051600080825260208201909252610ba9918391906121c9565b50565b333014610bb857600080fd5b610bc06123c6565b610bc8612404565b565b7fa6b5d83d32632203555cb9b2c2f68a8d94da48cadd9266ac0d17babedb52ea5b610bf481612170565b60008311610c5e576040517f08c379a000000000000000000000000000000000000000000000000000000000815260206004820152601260248201527f616d6f756e74206d757374206265203e203000000000000000000000000000006044820152606401610990565b73ffffffffffffffffffffffffffffffffffffffff8416600090815260ca602052604090205415610ceb576040517f08c379a000000000000000000000000000000000000000000000000000000000815260206004820152601160248201527f416c726561647920686173207374616b650000000000000000000000000000006044820152606401610990565b6040805160608101825284815233602080830191825285151583850190815273ffffffffffffffffffffffffffffffffffffffff898116600090815260ca90935294909120925183559051600190920180549151151574010000000000000000000000000000000000000000027fffffffffffffffffffffff0000000000000000000000000000000000000000009092169290931691909117179055610d90846124b6565b604080518481528315156020820152339173ffffffffffffffffffffffffffffffffffffffff8716917fe519f13339e9a08f3caede8e5c4c1bc5569ef57466ab0dbf5308925ac7540f4c910160405180910390a3604051838152339073ffffffffffffffffffffffffffffffffffffffff8616907f18f12eacda24b1ab9f5b9516de560f1ab3ea27b70e44092ff1ab7bc58013b7e4906020015b60405180910390a350505050565b7fa6b5d83d32632203555cb9b2c2f68a8d94da48cadd9266ac0d17babedb52ea5b610e6281612170565b6040805173ffffffffffffffffffffffffffffffffffffffff878116825285811660208301529181018490528186169188811691908a16907fe382555d7262c4f986a10dce5e8b050c65395136daac44bb1a9ac852e45839e59060600160405180910390a450505050505050565b73ffffffffffffffffffffffffffffffffffffffff7f0000000000000000000000000000000000000000000000000000000000000000163003610f95576040517f08c379a000000000000000000000000000000000000000000000000000000000815260206004820152602c60248201527f46756e6374696f6e206d7573742062652063616c6c6564207468726f7567682060448201527f64656c656761746563616c6c00000000000000000000000000000000000000006064820152608401610990565b7f000000000000000000000000000000000000000000000000000000000000000073ffffffffffffffffffffffffffffffffffffffff1661100a7f360894a13ba1a3210667c828492db98dca3e2076cc3735a920a3ca505d382bbc5473ffffffffffffffffffffffffffffffffffffffff1690565b73ffffffffffffffffffffffffffffffffffffffff16146110ad576040517f08c379a000000000000000000000000000000000000000000000000000000000815260206004820152602c60248201527f46756e6374696f6e206d7573742062652063616c6c6564207468726f7567682060448201527f6163746976652070726f787900000000000000000000000000000000000000006064820152608401610990565b6110b6826121be565b6109a3828260016121c9565b60003073ffffffffffffffffffffffffffffffffffffffff7f00000000000000000000000000000000000000000000000000000000000000001614611189576040517f08c379a000000000000000000000000000000000000000000000000000000000815260206004820152603860248201527f555550535570677261646561626c653a206d757374206e6f742062652063616c60448201527f6c6564207468726f7567682064656c656761746563616c6c00000000000000006064820152608401610990565b507f360894a13ba1a3210667c828492db98dca3e2076cc3735a920a3ca505d382bbc5b90565b73fffffffffffffffffffffffffffffffffffffffe3314806111ff57503360009081527f6f48904484b35701cf1f41ad9068b394adf7e2f8a59d2309a04d10a155eaa72b602052604090205460ff165b61128b576040517f08c379a000000000000000000000000000000000000000000000000000000000815260206004820152602660248201527f6f6e6c7920737570657220757365722063616e2063616c6c207468697320667560448201527f6e6374696f6e00000000000000000000000000000000000000000000000000006064820152608401610990565b60d0805461129b9160cf91613f3b565b507fa66cceae2e370a14add414cb77d00e2ff17cd603ee59764f2c2ff98f3e04627660cf6040516112cc91906144fa565b60405180910390a1565b60006112e181612170565b6000821161134b576040517f08c379a000000000000000000000000000000000000000000000000000000000815260206004820152601d60248201527f6e6577546f705374616b6573436f756e74206d757374206265203e20300000006044820152606401610990565b60d0548210156113fb5760d05461136360088261457a565b61136d90846145b5565b10156113fb576040517f08c379a000000000000000000000000000000000000000000000000000000000815260206004820152602a60248201527f6465637265617365206f66206d6f7265207468616e2031322e3525206973206e60448201527f6f7420616c6c6f776564000000000000000000000000000000000000000000006064820152608401610990565b5060cb55565b600154610100900460ff161580801561141e57506001805460ff16105b806114375750303b15801561143757506001805460ff16145b6114c3576040517f08c379a000000000000000000000000000000000000000000000000000000000815260206004820152602e60248201527f496e697469616c697a61626c653a20636f6e747261637420697320616c72656160448201527f647920696e697469616c697a65640000000000000000000000000000000000006064820152608401610990565b6001805460ff191681179055801561150257600180547fffffffffffffffffffffffffffffffffffffffffffffffffffffffffffff00ff166101001790555b60cc83905560cb8290556040805160a08101825260018152620288706020820152620f424091810191909152620222e0606082015262094700608082015261154e9060cd906005613f8b565b5061155a6000336124c7565b6115847f5d23543221ee839e143ccd74c27fb92d54ec6d35fcc6165e5f665bb1f476e565856124c7565b80156115e657600180547fffffffffffffffffffffffffffffffffffffffffffffffffffffffffffff00ff1681556040519081527f7f26b83ff96e1f2b6a682f133852f6798a09c465da95921460cefb38474024989060200160405180910390a15b50505050565b6115f4614029565b6040805160a08101918290529060cd90600590826000855b82829054906101000a900467ffffffffffffffff1667ffffffffffffffff168152602001906008019060208260070104928301926001038202915080841161160c5790505b5050505050905090565b600061166681612170565b6109a3826124d1565b6000828152609860205260408120611687908361263b565b9392505050565b6060600080548060200260200160405190810160405280929190818152602001828054801561165157602002820191906000526020600020905b815473ffffffffffffffffffffffffffffffffffffffff1681526001909101906020018083116116c8575050505050905090565b60008111611766576040517f08c379a000000000000000000000000000000000000000000000000000000000815260206004820152601260248201527f616d6f756e74206d757374206265203e203000000000000000000000000000006044820152606401610990565b73ffffffffffffffffffffffffffffffffffffffff8216600090815260ca6020526040902080546117f3576040517f08c379a000000000000000000000000000000000000000000000000000000000815260206004820152601360248201527f5374616b6520646f65736e2774206578697374000000000000000000000000006044820152606401610990565b600181015473ffffffffffffffffffffffffffffffffffffffff163314611876576040517f08c379a000000000000000000000000000000000000000000000000000000000815260206004820181905260248201527f7374616b696e67436f6e7472616374206d757374206265207468652073616d656044820152606401610990565b60008061188285612647565b12801591506118a3578260d2600082825461189d91906145b5565b90915550505b828260000160008282546118b791906145b5565b909155506118c790508482612689565b604051838152339073ffffffffffffffffffffffffffffffffffffffff8616907f18f12eacda24b1ab9f5b9516de560f1ab3ea27b70e44092ff1ab7bc58013b7e490602001610e2a565b600061191c81612170565b6109a382612706565b606060cf8054806020026020016040519081016040528092919081815260200182805480156116515760200282019190600052602060002090815473ffffffffffffffffffffffffffffffffffffffff1681526001909101906020018083116116c8575050505050905090565b60d15460d0546060916119a4916145b5565b67ffffffffffffffff8111156119bc576119bc614248565b6040519080825280602002602001820160405280156119e5578160200160208202803683370190505b5090506000805b60d054811015611b03578373ffffffffffffffffffffffffffffffffffffffff1660ca600060d08481548110611a2457611a246145c8565b600091825260208083209091015473ffffffffffffffffffffffffffffffffffffffff90811684529083019390935260409091019020600101541603611af15760d08181548110611a7757611a776145c8565b60009182526020909120015473ffffffffffffffffffffffffffffffffffffffff168383611aa4816145f7565b945081518110611ab657611ab66145c8565b602002602001019073ffffffffffffffffffffffffffffffffffffffff16908173ffffffffffffffffffffffffffffffffffffffff16815250505b80611afb816145f7565b9150506119ec565b5060005b60d154811015611c1e578373ffffffffffffffffffffffffffffffffffffffff1660ca600060d18481548110611b3f57611b3f6145c8565b600091825260208083209091015473ffffffffffffffffffffffffffffffffffffffff90811684529083019390935260409091019020600101541603611c0c5760d18181548110611b9257611b926145c8565b60009182526020909120015473ffffffffffffffffffffffffffffffffffffffff168383611bbf816145f7565b945081518110611bd157611bd16145c8565b602002602001019073ffffffffffffffffffffffffffffffffffffffff16908173ffffffffffffffffffffffffffffffffffffffff16815250505b80611c16816145f7565b915050611b07565b508152919050565b606060d18054806020026020016040519081016040528092919081815260200182805480156116515760200282019190600052602060002090815473ffffffffffffffffffffffffffffffffffffffff1681526001909101906020018083116116c8575050505050905090565b60008111611cfd576040517f08c379a000000000000000000000000000000000000000000000000000000000815260206004820152601260248201527f616d6f756e74206d757374206265203e203000000000000000000000000000006044820152606401610990565b73ffffffffffffffffffffffffffffffffffffffff808316600090815260ca6020526040902060018101549091163314611d93576040517f08c379a000000000000000000000000000000000000000000000000000000000815260206004820181905260248201527f7374616b696e67436f6e7472616374206d757374206265207468652073616d656044820152606401610990565b8054821115611dfe576040517f08c379a000000000000000000000000000000000000000000000000000000000815260206004820152601860248201527f616d6f756e7420626967676572207468616e207374616b6500000000000000006044820152606401610990565b600080611e0a85612647565b1280159150611e2b578260d26000828254611e259190614611565b90915550505b82826000016000828254611e3f9190614611565b9091555033905073ffffffffffffffffffffffffffffffffffffffff85167f18f12eacda24b1ab9f5b9516de560f1ab3ea27b70e44092ff1ab7bc58013b7e4611e8786614624565b60405190815260200160405180910390a38154600003611ef357611eab84826127f3565b604051339073ffffffffffffffffffffffffffffffffffffffff8616907f698b699627f845a0a177da4fbb291c966684fdb0b944bcac38450e79abaa834490600090a36115e6565b6115e6848261285c565b334114611f8c576040517f08c379a000000000000000000000000000000000000000000000000000000000815260206004820152602660248201527f6f6e6c7920737570657220757365722063616e2063616c6c207468697320667560448201527f6e6374696f6e00000000000000000000000000000000000000000000000000006064820152608401610990565b611f946128d1565b611f9c612983565b3073ffffffffffffffffffffffffffffffffffffffff16633bc6a1426040518163ffffffff167c0100000000000000000000000000000000000000000000000000000000028152600401600060405180830381600087803b15801561200057600080fd5b505af1925050508015612011575060015b15610bc857565b600081815260986020526040812061088f90612be6565b60008281526066602052604090206001015461204a81612170565b6108ea838361219c565b606060d08054806020026020016040519081016040528092919081815260200182805480156116515760200282019190600052602060002090815473ffffffffffffffffffffffffffffffffffffffff1681526001909101906020018083116116c8575050505050905090565b60006120cc81612170565b6108ea60cd836005614047565b60007fffffffff0000000000000000000000000000000000000000000000000000000082167f7965db0b00000000000000000000000000000000000000000000000000000000148061088f57507f01ffc9a7000000000000000000000000000000000000000000000000000000007fffffffff0000000000000000000000000000000000000000000000000000000083161461088f565b610ba98133612bf0565b6121848282612c8c565b60008281526098602052604090206108ea9082612d62565b6121a68282612d84565b60008281526098602052604090206108ea9082612e21565b60006109a381612170565b7f4910fdfa16fed3260ed0e7147f7cc6da11a60208b5b9406d12a635614ffd91435460ff16156121fc576108ea83612e43565b8273ffffffffffffffffffffffffffffffffffffffff166352d1902d6040518163ffffffff167c0100000000000000000000000000000000000000000000000000000000028152600401602060405180830381865afa92505050801561227f575060408051601f3d908101601f1916820190925261227c9181019061465c565b60015b61230b576040517f08c379a000000000000000000000000000000000000000000000000000000000815260206004820152602e60248201527f45524331393637557067726164653a206e657720696d706c656d656e7461746960448201527f6f6e206973206e6f7420555550530000000000000000000000000000000000006064820152608401610990565b7f360894a13ba1a3210667c828492db98dca3e2076cc3735a920a3ca505d382bbc81146123ba576040517f08c379a000000000000000000000000000000000000000000000000000000000815260206004820152602960248201527f45524331393637557067726164653a20756e737570706f727465642070726f7860448201527f6961626c655555494400000000000000000000000000000000000000000000006064820152608401610990565b506108ea838383612f4d565b60cb5460d054116123d357565b60cf5460d6546123e391906145b5565b4310156123ec57565b60006123f960d354612f72565b9050610ba98161306f565b60d15460000361241057565b60cb5460d054101561243457600061242960d45461315b565b9050610ba98161320e565b60cb5460d05403610bc857600061248060d160d45481548110612459576124596145c8565b60009182526020909120015473ffffffffffffffffffffffffffffffffffffffff16612647565b1315610bc857600061249360d354612f72565b905060006124a260d45461315b565b90506124ad8261306f565b6109a38161320e565b6124bf8161306f565b610ba9612404565b6109a3828261217a565b60006124dc82613348565b90506000198103612549576040517f08c379a000000000000000000000000000000000000000000000000000000000815260206004820152600960248201527f4e6f7420666f756e6400000000000000000000000000000000000000000000006044820152606401610990565b6000805461255990600190614611565b81548110612569576125696145c8565b6000918252602082200154815473ffffffffffffffffffffffffffffffffffffffff9091169190839081106125a0576125a06145c8565b6000918252602082200180547fffffffffffffffffffffffff00000000000000000000000000000000000000001673ffffffffffffffffffffffffffffffffffffffff93909316929092179091558054806125fd576125fd614675565b600082815260209020810160001990810180547fffffffffffffffffffffffff00000000000000000000000000000000000000001690550190555050565b600061168783836133c9565b600061088f8260d060d35481548110612662576126626145c8565b60009182526020909120015473ffffffffffffffffffffffffffffffffffffffff166133f3565b80156126e05760d060d354815481106126a4576126a46145c8565b60009182526020909120015473ffffffffffffffffffffffffffffffffffffffff908116908316036109a3576126d86134d6565b6109a3612404565b60006126eb8361362f565b126109a3576126fb60d18361364a565b60d4556109a3612404565b600061271182613348565b9050600019811461277e576040517f08c379a000000000000000000000000000000000000000000000000000000000815260206004820152601060248201527f416c7265616479206c697374656e6572000000000000000000000000000000006044820152606401610990565b50600080546001810182559080527f290decd9548b62a8d60345a988386fc84ba6bc95484008f6362f93160ef3e5630180547fffffffffffffffffffffffff00000000000000000000000000000000000000001673ffffffffffffffffffffffffffffffffffffffff92909216919091179055565b73ffffffffffffffffffffffffffffffffffffffff8216600090815260ca6020526040812090815560010180547fffffffffffffffffffffff0000000000000000000000000000000000000000001690558015612853576126d882613723565b6109a38261373b565b801561288857600061286d83612647565b136109a35761287d60d08361364a565b60d3556109a3612404565b60d160d4548154811061289d5761289d6145c8565b60009182526020909120015473ffffffffffffffffffffffffffffffffffffffff908116908316036109a3576126d8613753565b60005b600054811015610ba957600081815481106128f1576128f16145c8565b6000918252602082200154604080517fa2a14817000000000000000000000000000000000000000000000000000000008152905173ffffffffffffffffffffffffffffffffffffffff9092169263a2a148179260048084019382900301818387803b15801561295f57600080fd5b505af1925050508015612970575060015b508061297b816145f7565b9150506128d4565b60d5544311612a14576040517f08c379a000000000000000000000000000000000000000000000000000000000815260206004820152602360248201527f72657761726420616c72656164792063616c6c656420696e207468697320626c60448201527f6f636b00000000000000000000000000000000000000000000000000000000006064820152608401610990565b4360d55533600090815260ca6020526040812060d254815460cf5460cc54939493612a3f91906146a4565b612a4991906146a4565b612a53919061457a565b60018301546040517f21670f220000000000000000000000000000000000000000000000000000000081523360048201526024810183905291925073ffffffffffffffffffffffffffffffffffffffff16906321670f2290604401600060405180830381600087803b158015612ac857600080fd5b505af1925050508015612ad9575060015b6109a357612ae56146bb565b806308c379a003612b5f5750612af96146f3565b80612b045750612b61565b60018301546040517f12e1ce9822ac52f0302044a0a74d82822132efa1b3b4a9106fce30f124b7ca7e91612b529173ffffffffffffffffffffffffffffffffffffffff9091169084906147eb565b60405180910390a1505050565b505b60018201546040805173ffffffffffffffffffffffffffffffffffffffff909216825260208201819052600d828201527f756e6b6e6f776e206572726f72000000000000000000000000000000000000006060830152517f12e1ce9822ac52f0302044a0a74d82822132efa1b3b4a9106fce30f124b7ca7e9181900360800190a15050565b600061088f825490565b600082815260666020908152604080832073ffffffffffffffffffffffffffffffffffffffff8516845290915290205460ff166109a357612c308161383d565b612c3b83602061385c565b604051602001612c4c92919061481a565b60408051601f19818403018152908290527f08c379a00000000000000000000000000000000000000000000000000000000082526109909160040161489b565b600082815260666020908152604080832073ffffffffffffffffffffffffffffffffffffffff8516845290915290205460ff166109a357600082815260666020908152604080832073ffffffffffffffffffffffffffffffffffffffff851684529091529020805460ff19166001179055612d043390565b73ffffffffffffffffffffffffffffffffffffffff168173ffffffffffffffffffffffffffffffffffffffff16837f2f8788117e7eff1d82e926ec794901d17c78024a50270940304540a733656f0d60405160405180910390a45050565b60006116878373ffffffffffffffffffffffffffffffffffffffff8416613abd565b600082815260666020908152604080832073ffffffffffffffffffffffffffffffffffffffff8516845290915290205460ff16156109a357600082815260666020908152604080832073ffffffffffffffffffffffffffffffffffffffff85168085529252808320805460ff1916905551339285917ff6391f5c32d9c69d2a47ea670b442974b53935d1edc7fd64eb21e047a839171b9190a45050565b60006116878373ffffffffffffffffffffffffffffffffffffffff8416613b0c565b73ffffffffffffffffffffffffffffffffffffffff81163b612ee7576040517f08c379a000000000000000000000000000000000000000000000000000000000815260206004820152602d60248201527f455243313936373a206e657720696d706c656d656e746174696f6e206973206e60448201527f6f74206120636f6e7472616374000000000000000000000000000000000000006064820152608401610990565b7f360894a13ba1a3210667c828492db98dca3e2076cc3735a920a3ca505d382bbc80547fffffffffffffffffffffffff00000000000000000000000000000000000000001673ffffffffffffffffffffffffffffffffffffffff92909216919091179055565b612f5683613bff565b600082511180612f635750805b156108ea576115e68383613c4c565b60008060d08381548110612f8857612f886145c8565b60009182526020909120015473ffffffffffffffffffffffffffffffffffffffff169050612fb760d084613c71565b612fbf613d26565b8260d35403612fd557612fd06134d6565b612fe6565b60d05460d35403612fe65760d38390555b73ffffffffffffffffffffffffffffffffffffffff8116600090815260ca602052604081205460d280549192909161301f908490614611565b90915550504360d65560405173ffffffffffffffffffffffffffffffffffffffff8216907fa332cf2909289691b958b6a3cc484aeae751eb997c42ffb20cedd6bc47d9784f90600090a292915050565b60d180546001808201835560008390527f695fb3134ad82c3b8022bc5464edd0bcc9424ef672b52245dcb6ab2374327ce390910180547fffffffffffffffffffffffff00000000000000000000000000000000000000001673ffffffffffffffffffffffffffffffffffffffff8516179055905490036130f357600060d455613117565b60006130fe8261362f565b13156131175760d15461311390600190614611565b60d4555b60405173ffffffffffffffffffffffffffffffffffffffff8216907f13e20c2c86edb7fd9c4e781927a258a390e043bc948182fb996223fff6202a9590600090a250565b60008060d18381548110613171576131716145c8565b60009182526020909120015473ffffffffffffffffffffffffffffffffffffffff1690506131a060d184613c71565b8260d454036131b6576131b1613753565b6131c7565b60d15460d454036131c75760d48390555b60405173ffffffffffffffffffffffffffffffffffffffff8216907f6fc2e7915026e6cb0f33f9f79c5aab575b783bf2266799a86fa6b220b91b07f490600090a292915050565b60d080546001810182556000919091527fe89d44c8fd6a9bac8af33ce47f56337617d449bf7ff3956b618c646de829cbcb0180547fffffffffffffffffffffffff00000000000000000000000000000000000000001673ffffffffffffffffffffffffffffffffffffffff8316179055613286613d26565b60d080546000916132ad9161329d90600190614611565b81548110612459576124596145c8565b12156132c65760d0546132c290600190614611565b60d3555b73ffffffffffffffffffffffffffffffffffffffff8116600090815260ca602052604081205460d28054919290916132ff9084906145b5565b909155505060405173ffffffffffffffffffffffffffffffffffffffff8216907f172688e175fc2d12b540136329a3eafe3c60fafae6f2d476fe400a1a2c41063690600090a250565b6000805b6000548110156133bf578273ffffffffffffffffffffffffffffffffffffffff1660008281548110613380576133806145c8565b60009182526020909120015473ffffffffffffffffffffffffffffffffffffffff16036133ad5792915050565b806133b7816145f7565b91505061334c565b5060001992915050565b60008260000182815481106133e0576133e06145c8565b9060005260206000200154905092915050565b60008173ffffffffffffffffffffffffffffffffffffffff168373ffffffffffffffffffffffffffffffffffffffff16036134305750600061088f565b73ffffffffffffffffffffffffffffffffffffffff808416600090815260ca60208181526040808420815160608082018452825482526001928301548089168387015260ff740100000000000000000000000000000000000000009182900481161515848701528b8a1689529686529684902084519182018552805482529092015496871693820193909352939094049091161515928201929092526116879190613d6c565b600060d35560015b60d054811015610ba957600061361160ca600060d08581548110613504576135046145c8565b60009182526020808320919091015473ffffffffffffffffffffffffffffffffffffffff90811684528382019490945260409283018220835160608101855281548152600190910154948516918101919091527401000000000000000000000000000000000000000090930460ff1615159183019190915260d35460d0805460ca9392908110613596576135966145c8565b60009182526020808320919091015473ffffffffffffffffffffffffffffffffffffffff9081168452838201949094526040928301909120825160608101845281548152600190910154938416918101919091527401000000000000000000000000000000000000000090920460ff16151590820152613d6c565b121561361d5760d38190555b80613627816145f7565b9150506134de565b600061088f8260d160d45481548110612662576126626145c8565b6000805b83548110156136c0578273ffffffffffffffffffffffffffffffffffffffff16848281548110613680576136806145c8565b60009182526020909120015473ffffffffffffffffffffffffffffffffffffffff16036136ae57905061088f565b806136b8816145f7565b91505061364e565b506040517f08c379a000000000000000000000000000000000000000000000000000000000815260206004820152600f60248201527f56616c7565206e6f7420666f756e6400000000000000000000000000000000006044820152606401610990565b600061373060d08361364a565b90506108ea81612f72565b600061374860d18361364a565b90506108ea8161315b565b60d15460000361375f57565b600060d45560015b60d154811015610ba957600061381f60ca600060d1858154811061378d5761378d6145c8565b60009182526020808320919091015473ffffffffffffffffffffffffffffffffffffffff90811684528382019490945260409283018220835160608101855281548152600190910154948516918101919091527401000000000000000000000000000000000000000090930460ff1615159183019190915260d45460d1805460ca9392908110613596576135966145c8565b131561382b5760d48190555b80613835816145f7565b915050613767565b606061088f73ffffffffffffffffffffffffffffffffffffffff831660145b6060600061386b8360026146a4565b6138769060026145b5565b67ffffffffffffffff81111561388e5761388e614248565b6040519080825280601f01601f1916602001820160405280156138b8576020820181803683370190505b5090507f3000000000000000000000000000000000000000000000000000000000000000816000815181106138ef576138ef6145c8565b60200101907effffffffffffffffffffffffffffffffffffffffffffffffffffffffffffff1916908160001a9053507f780000000000000000000000000000000000000000000000000000000000000081600181518110613952576139526145c8565b60200101907effffffffffffffffffffffffffffffffffffffffffffffffffffffffffffff1916908160001a905350600061398e8460026146a4565b6139999060016145b5565b90505b6001811115613a54577f303132333435363738396162636465660000000000000000000000000000000085600f16601081106139da576139da6145c8565b1a7f010000000000000000000000000000000000000000000000000000000000000002828281518110613a0f57613a0f6145c8565b60200101907effffffffffffffffffffffffffffffffffffffffffffffffffffffffffffff1916908160001a905350601090940493613a4d816148ae565b905061399c565b508315611687576040517f08c379a000000000000000000000000000000000000000000000000000000000815260206004820181905260248201527f537472696e67733a20686578206c656e67746820696e73756666696369656e746044820152606401610990565b6000818152600183016020526040812054613b045750815460018181018455600084815260208082209093018490558454848252828601909352604090209190915561088f565b50600061088f565b60008181526001830160205260408120548015613bf5576000613b30600183614611565b8554909150600090613b4490600190614611565b9050818114613ba9576000866000018281548110613b6457613b646145c8565b9060005260206000200154905080876000018481548110613b8757613b876145c8565b6000918252602080832090910192909255918252600188019052604090208390555b8554869080613bba57613bba614675565b60019003818190600052602060002001600090559055856001016000868152602001908152602001600020600090556001935050505061088f565b600091505061088f565b613c0881612e43565b60405173ffffffffffffffffffffffffffffffffffffffff8216907fbc7cd75a20ee27fd9adebab32041f755214dbc6bffa90cc0225b39da2e5c2d3b90600090a250565b606061168783836040518060600160405280602781526020016148e260279139613dca565b81548290613c8190600190614611565b81548110613c9157613c916145c8565b9060005260206000200160009054906101000a900473ffffffffffffffffffffffffffffffffffffffff16828281548110613cce57613cce6145c8565b9060005260206000200160006101000a81548173ffffffffffffffffffffffffffffffffffffffff021916908373ffffffffffffffffffffffffffffffffffffffff160217905550818054806125fd576125fd614675565b613d31600143614611565b407f55252fa6eee4741b4e24a74a70e9c11fd2c2281df8d6ea13126ff845f7825c8960d0604051613d6291906144fa565b60405180910390a2565b6000816040015115158360400151151514613d9c578260400151613d9257600019613d95565b60015b905061088f565b815183511115613dae5750600161088f565b815183511015613dc1575060001961088f565b50600092915050565b60606000808573ffffffffffffffffffffffffffffffffffffffff1685604051613df491906148c5565b600060405180830381855af49150503d8060008114613e2f576040519150601f19603f3d011682016040523d82523d6000602084013e613e34565b606091505b5091509150613e4586838387613e4f565b9695505050505050565b60608315613ee5578251600003613ede5773ffffffffffffffffffffffffffffffffffffffff85163b613ede576040517f08c379a000000000000000000000000000000000000000000000000000000000815260206004820152601d60248201527f416464726573733a2063616c6c20746f206e6f6e2d636f6e74726163740000006044820152606401610990565b5081613eef565b613eef8383613ef7565b949350505050565b815115613f075781518083602001fd5b806040517f08c379a0000000000000000000000000000000000000000000000000000000008152600401610990919061489b565b828054828255906000526020600020908101928215613f7b5760005260206000209182015b82811115613f7b578254825591600101919060010190613f60565b50613f879291506140a9565b5090565b600283019183908215613f7b5791602002820160005b83821115613fe857835183826101000a81548167ffffffffffffffff021916908362ffffff1602179055509260200192600801602081600701049283019260010302613fa1565b801561401c5782816101000a81549067ffffffffffffffff0219169055600801602081600701049283019260010302613fe8565b5050613f879291506140a9565b6040518060a001604052806005906020820280368337509192915050565b600283019183908215613f7b5791602002820160005b83821115613fe857835183826101000a81548167ffffffffffffffff021916908367ffffffffffffffff160217905550926020019260080160208160070104928301926001030261405d565b5b80821115613f8757600081556001016140aa565b6000602082840312156140d057600080fd5b81357fffffffff000000000000000000000000000000000000000000000000000000008116811461168757600080fd5b73ffffffffffffffffffffffffffffffffffffffff81168114610ba957600080fd5b60006020828403121561413457600080fd5b813561168781614100565b60006020828403121561415157600080fd5b5035919050565b6000806040838503121561416b57600080fd5b82359150602083013561417d81614100565b809150509250929050565b60008060006060848603121561419d57600080fd5b83356141a881614100565b925060208401359150604084013580151581146141c457600080fd5b809150509250925092565b60008060008060008060c087890312156141e857600080fd5b86356141f381614100565b9550602087013561420381614100565b9450604087013561421381614100565b9350606087013561422381614100565b9250608087013561423381614100565b8092505060a087013590509295509295509295565b7f4e487b7100000000000000000000000000000000000000000000000000000000600052604160045260246000fd5b601f19601f830116810181811067ffffffffffffffff8211171561429d5761429d614248565b6040525050565b600080604083850312156142b757600080fd5b82356142c281614100565b915060208381013567ffffffffffffffff808211156142e057600080fd5b818601915086601f8301126142f457600080fd5b81358181111561430657614306614248565b604051915061431e84601f19601f8401160183614277565b808252878482850101111561433257600080fd5b80848401858401376000848284010152508093505050509250929050565b60008060006060848603121561436557600080fd5b833561437081614100565b95602085013595506040909401359392505050565b60a08101818360005b60058110156143b757815167ffffffffffffffff1683526020928301929091019060010161438e565b50505092915050565b600080604083850312156143d357600080fd5b50508035926020909101359150565b6020808252825182820181905260009190848201906040850190845b8181101561443057835173ffffffffffffffffffffffffffffffffffffffff16835292840192918401916001016143fe565b50909695505050505050565b6000806040838503121561444f57600080fd5b823561445a81614100565b946020939093013593505050565b600060a0828403121561447a57600080fd5b82601f83011261448957600080fd5b60405160a0810167ffffffffffffffff82821081831117156144ad576144ad614248565b8160405282915060a08501868111156144c557600080fd5b855b818110156144ee57803583811681146144e05760008081fd5b8452602093840193016144c7565b50929695505050505050565b6020808252825482820181905260008481528281209092916040850190845b8181101561443057835473ffffffffffffffffffffffffffffffffffffffff1683526001938401939285019201614519565b7f4e487b7100000000000000000000000000000000000000000000000000000000600052601160045260246000fd5b6000826145b0577f4e487b7100000000000000000000000000000000000000000000000000000000600052601260045260246000fd5b500490565b8082018082111561088f5761088f61454b565b7f4e487b7100000000000000000000000000000000000000000000000000000000600052603260045260246000fd5b6000600019820361460a5761460a61454b565b5060010190565b8181038181111561088f5761088f61454b565b60007f800000000000000000000000000000000000000000000000000000000000000082036146555761465561454b565b5060000390565b60006020828403121561466e57600080fd5b5051919050565b7f4e487b7100000000000000000000000000000000000000000000000000000000600052603160045260246000fd5b808202811582820484141761088f5761088f61454b565b600060033d11156111ac5760046000803e7c010000000000000000000000000000000000000000000000000000000060005104905090565b600060443d10156147015790565b6040517ffffffffffffffffffffffffffffffffffffffffffffffffffffffffffffffffc803d016004833e81513d67ffffffffffffffff816024840111818411171561474f57505050505090565b82850191508151818111156147675750505050505090565b843d87010160208285010111156147815750505050505090565b61479060208286010187614277565b509095945050505050565b60005b838110156147b657818101518382015260200161479e565b50506000910152565b600081518084526147d781602086016020860161479b565b601f01601f19169290920160200192915050565b73ffffffffffffffffffffffffffffffffffffffff83168152604060208201526000613eef60408301846147bf565b7f416363657373436f6e74726f6c3a206163636f756e742000000000000000000081526000835161485281601785016020880161479b565b7f206973206d697373696e6720726f6c6520000000000000000000000000000000601791840191820152835161488f81602884016020880161479b565b01602801949350505050565b60208152600061168760208301846147bf565b6000816148bd576148bd61454b565b506000190190565b600082516148d781846020870161479b565b919091019291505056fe416464726573733a206c6f772d6c6576656c2064656c65676174652063616c6c206661696c6564a2646970667358221220e9e1ee2839bc20516c36e36dd04f455448d2d36fae5106a58f60f1cf6229ebcd64736f6c63430008110033",
  "linkReferences": {},
  "deployedLinkReferences": {}
}